:020000040800F2
:100000000000012035AD0508B5AD050819670408E5
:100010007D670408B5AD0508B5AD05080000000012
:10002000000000000000000000000000B5AD050861
:10003000B5AD050800000000B5AD05084122040873
:10004000B5AD0508B5AD0508B5AD0508B5AD0508F4
:10005000B5AD0508B5AD0508B9720408E573040827
:10006000A97304086D73040831730408B994050872
:10007000A9940508999405088994050875940508BC
:10008000619405084D940508B5AD0508B5AD0508A2
:10009000B5AD0508B5AD0508B5AD0508F5720408A0
:1000A000D167050859680508C16705088168050812
:1000B000496805083968050829680508F1960508A2
:1000C00015970508B5AD0508B5AD0508B5AD05082A
:1000D000B5AD0508192E0408D12B04088929040898
:1000E0007D720408B5AD0508B5AD0508B167050812
:1000F000E1670508B5AD05080968050839940508E4
:10010000B5AD0508B5AD050819680508B5AD050814
:1001100041270408F9240408B5AD05089503010832
:100120002594050811940508FD930508E993050831
:10013000D59305080000000000000000000000004A
:100140000000000000000000000000005905010848
:10015000C1930508AD93050899930508B1220408D9
:10016000B5AD0508B5AD0508B5AD0508B5AD0508D3
:10017000B5AD0508B5AD05080000000000000000A1
:10018000B5AD0508B5AD0508B5AD0508B5AD0508B3
:10019000B5AD0508B5AD050800000000B5AD050812
:1001A000000000000000000000000000B5AD0508E0
:1001B000B5AD0508B5AD0508000000000000000061
:1001C000000000000000000000000000000000002F
:1001D000000000000000000000000000B5AD0508B0
:0801E0008CA8050001000000DD
:1001E8002320010010000000F44B0120004D0120E5
:1001F80000000000E11D02080D1001005800000079
:10020800904B0120104D012000000000FDC30308A1
:100218000400080080000000D04A0120684D012039
:100228000000000000000000FD0101001E000000A9
:100238008C4A0120E84D012000000000CBFF030894
:10024800FB01010001000000484A0120084E01207E
:1002580000000000A50A0508FC01010009000000D3
:10026800144901200C4E012000000000B50A0508C1
:10027800F70101000600000008490120184E01207E
:100288000000000050090008F90101000400000006
:1002980004490120204E01200000000079000408D4
:1002A8000A80010028000000DC480120244E0120BB
:1002B80000000000CD1C0208160215003F000000D7
:1002C800802901204C4E012000000000890B050800
:1002D8003400010010000000084801208C4E012065
:1002E8000000000065A402081102010008000000D7
:1002F800E04701209C4E012000000000560900083C
:100308001212010004000000D8470120A44E012069
:10031800000000005E0900081820010032000000FB
:10032800A4470120A84E012000000000F90B050891
:10033800061001001C00000064290120DC4E012089
:1003480000000000D50A0508122001001F00000067
:100358009C460120F84E01200000000062090008B8
:10036800000201000B000000D8430120184F0120B3
:100378000000000031060508130201000400000017
:1003880060290120244F0120000000008209000894
:10039800FA010100030000005C430120284F0120FE
:1003A8000000000015060508020201000300000015
:1003B800203901202C4F012000000000000000001F
:1003C8000C02010004000000FC380120304F01201D
:1003D80000000000FD050508FE01010014000000F2
:1003E800B83D0120344F0120000000008D050508AC
:1003F800FD07010076000000885701200058012001
:1004080000000000D9830108261001000E0000003A
:10041800885801207858012000000000E11F0108D9
:100428000B3001001A000000CC520120C8580120EE
:1004380000000000880900081F30010024000000A7
:1004480094520120E458012000000000A40900088B
:10045800050201000400000024540120085901206D
:1004680000000000C8090008030101000A0000009C
:10047800305201200C59012000000000D11B010856
:100488000101010004000000705E0120C86701201E
:10049800000000000000000000010100040000004E
:1004A800685E0120CC67012000000000CC0900082C
:1004B8000201010003000000645E0120D0670120F2
:1004C80000000000F1980308220201001C0100004E
:1004D80000650120D467012000000000410B0508D9
:1004E8000C200600CC00000078630120F068012091
:1004F80000000000B1980308010201000B00000091
:100508007C5E0120BC69012000000000210605086E
:100518001B02010010000000D0620120C869012000
:1005280000000000A50605081B1001000C000000D3
:100538000C5B0120D86901200000000095AC01087F
:1005480021020100F00000008C590120E46901201B
:1005580000000000FDAB010823120100100000009C
:10056800E45F0120D46A012000000000D0090008DF
:10057800371001002E0000004C620120E46A0120BF
:1005880000000000E00900080E020100020000005F
:10059800E05F0120146B0120000000000E0A000833
:1005A8001610010006000000D85F0120186B01201A
:1005B80000000000100A00082F10010022000000AF
:1005C800A4670120206B012000000000160A000823
:1005D8001E00010009000000185F0120446B012083
:1005E80000000000380A000805100100060000009D
:1005F800645F0120506B012000000000420A0008DF
:10060800F5810100680000001C590120586B012089
:1006180000000000C59C01082C0004001000000028
:10062800487B0120387B012000000000893D02083A
:100638002B001200240000007C7B0120587B012045
:10064800000000005D3D0208292014007800000029
:10065800AC790120A07B0120000000000000000010
:10066800F62101000C000000C4770120187C01204D
:1006780000000000480A00081C0202001C000000DC
:1006880068770120687C012000000000210D050822
:10069800282001001800000084770120847C0120B4
:1006A8000000000055470208140001000400000083
:1006B800507701209C7C012000000000540A0008AB
:1006C800012001000C000000F86D0120A07C012031
:1006D80000000000580A00080EF003009E01000008
:1006E800E06B0120AC7C012000000000419E020864
:1006F80013000100040000008C7301204C7E0120CF
:1007080000000000640A000819000100050000004C
:100718000C8401208C84012000000000680A000875
:100728001A0001000E000000788201209484012044
:10073800000000006E0A0008203201000A000000D4
:1007480068810120A4840120000000001D9E020889
:100758001500100070000000B47F0120B084012053
:1007680000000000000000002A00080060000000EF
:10077800C08201202085012000000000F59D0208AC
:100788000300010001000000B88B0120C08B01208C
:100798000000000000000000031201003D000000FE
:1007A800508B0120C48B0120000000007C0A000847
:1007B80025201E002C010000B8880120048C01208F
:1007C80000000000000000001010010002000000FE
:1007D80040880120308D012000000000BA0A00087E
:1007E800F82101000600000094880120348D0120C2
:1007F80000000000BC0A0008020001000C00000014
:100808009C8E0120308F01200000000000000000B5
:100818002902010040000000D08D01203C8F0120FA
:1008280000000000C20A00080A02010014000000CB
:10083800448D01209C8F012000000000D9990308F5
:100848002802040004000000CC930120E496012053
:1008580000000000A10605082702040004000000AB
:10086800C8930120E89601200000000095060508BD
:100878001F0208001000000010910120EC960120D2
:1008880000000000B50505081A0201003C00000040
:10089800D4900120FC96012000000000850C05087A
:1008A8003810010001000000C88F0120389701208E
:1008B80000000000020B00082700010004000000EF
:1008C800C0970120C497012000000000040B000815
:1008D80007020100020000002CA1012044A1012010
:1008E80000000000080B00081D02020006000000BE
:1008F800E8A0012048A1012000000000000000003D
:10090800060204001000000004A1012050A10120EB
:10091800000000006D0C0508081204001400000017
:10092800F0A0012060A101200000000039060508A0
:100938001002010001000000A4C00120A0C0012095
:08094800000000000A0B00088A
:100950003D01000000000000000001010101FFFF57
:10096000FFFF0000000100000549464C494748547C
:100970005F424C49545A5F46373232000000000251
:100980000000000001220000AE014A015E012C01BE
:1009900064010100000001000A019A01001E0A0022
:1009A000000200000000000000010000000500003F
:1009B0000102030000000000000000000000000031
:1009C000000000000080070000000000C8000000D8
:1009D0000000000000000000000000000000000017
:1009E00020003200C800D007960014003200280012
:1009F0004C0440060005500014000F00080064007D
:100A00000100010005000A000000F401960000004A
:100A1000C4090000190000000000000000000000F0
:100A200000000000000000000000000000000000C6
:100A300000000000000000000005010000000000B0
:100A40000000200001010000000000000100000083
:100A50000202000003000023E8036400040A00010E
:100A600014001E00080444300000280100007E0528
:100A7000EA05B4053200E803D007000000000000DA
:100A80000000000000000000000000000000000066
:100A90000000000000000000000000000000000056
:100AA0000000000000000000000000000000000046
:100AB0000000000000000000010000050101F40139
:100AC0001400000000000000000000000000000012
:100AD0000000000000000000000000000000000016
:100AE0000000000000000000000000000000000006
:100AF00000000000000000000000000000000000F6
:0B0B00000000000020030000003C008B
:100B0B0000C20100000008000A06000200000040BD
:100B1B000100000009026400030100C03209040057
:100B2B00000103000000092111010001223600071A
:100B3B0005830308000A080B0102020201000904E5
:100B4B00010001020201000524001001052401002F
:100B5B000204240202052406010207058203080091
:100B6B00FF09040200020A00000007050102400011
:100B7B000007058102400000C1A80008C1A70008BA
:100B8B00A19D000800000000418C0008099200089C
:100B9B006D8C000800000000000000000000000049
:100BAB00218C0008318C0008118C0008018C000886
:100BBB001A0300000000000000000000000000000D
:100BCB000000000000000000000000000403090406
:100BDB000A06000200000040010000000907200087
:100BEB00010104C032090400000208065005070584
:100BFB0081024000000705010240000009022000AD
:100C0B00010104C032090400000208065005070563
:100C1B00810240000007050102400000090220008C
:100C2B00010104C032090400000208065005070543
:100C3B008102000200070501020002000A06000201
:100C4B00000000400100000009022200010100E049
:100C5B003209040000010301020009211101000106
:100C6B002236000705830308000A00000902220050
:100C7B00010100E032090400000103010200092117
:100C8B00110100012236000705830308000700004D
:100C9B0009022200010100E03209040000010301F6
:100CAB000200092111010001223600070583030808
:100CBB00000A00000A0600020000004001000000CC
:100CCB0009074300020104C03209040000010202BB
:100CDB000100052400100105240100010424020277
:100CEB000524060001070582030800100904010012
:100CFB00020A0000000705010240000007058102FF
:100D0B004000000009024300020100C03209040048
:100D1B00000102020100052400100105240100015D
:100D2B0004240202052406000107058203080010B3
:100D3B0009040100020A000000070501020002007D
:100D4B00070581020002000009024300020100C0F6
:100D5B003209040000010202010005240010010504
:100D6B002401000104240202052406000107058268
:100D7B000308001009040100020A00000007050126
:100D8B000240000007058102400000001201000232
:100D9B000000004083042A570002010203010000F7
:100DAB0012010002020000408304405700020102BE
:100DBB000301000012010002EF02014083045632CE
:100DCB00000201020301000005010905A101A100B8
:100DDB00050109300931093209330935093409365E
:100DEB0009371581257F75089508810205091901B9
:100DFB00290815002501950875018102C0C0000066
:100E0B000921110100012236000010000060024090
:100E1B00106002400000000000000000000B00000A
:100E2B000000000000000000000000000060024015
:100E3B00286002400100000000000000060C0000CA
:100E4B0000000000000000000000000000600240F5
:100E5B00406002400200000000000000100D000086
:100E6B0000000000000000000000000000600240D5
:100E7B00586002400300000000000000160E000046
:100E8B0000000000000000000000000000600240B5
:100E9B00706002400400000000000000200F000002
:100EAB000000000000000000000000000060024095
:100EBB0088600240050000000000000026100000C2
:100ECB000000000000000000000000000060024075
:100EDB00A06002400600000000000000301100007E
:100EEB000000000000000000000000000060024055
:100EFB00B86002400700000000000000362F000021
:100F0B000000000000000000000000000064024030
:100F1B0010640240000000000000000000380000D8
:100F2B000000000000000000000000000064024010
:100F3B002864024001000000000000000639000098
:100F4B0000000000000000000000000000640240F0
:100F5B00406402400200000000000000103A000054
:100F6B0000000000000000000000000000640240D0
:100F7B00586402400300000000000000163B000014
:100F8B0000000000000000000000000000640240B0
:100F9B00706402400400000000000000203C0000D0
:100FAB000000000000000000000000000064024090
:100FBB008864024005000000000000002644000089
:100FCB000000000000000000000000000064024070
:100FDB00A064024006000000000000003045000045
:100FEB000000000000000000000000000064024050
:100FFB00B864024007000000000000003646000005
:10100B0000000000000000000000000000000000D5
:10101B0004010000000700000000000000000000B9
:10102B0000020000100000000000000000000000A3
:10103B00070000007D000000010000000000803F61
:10104B0000FF0000000000000000AA55070100008F
:10105B0001AA5505010000082CF20508FF1FFF1F10
:10106B002D202D2D202D2D2D2D202D2D2D2D000026
:10107B00000000000000000000000000000000AABB
:10108B00550B010000AA5505010000AA55090200E5
:10109B000000AA5503009F0001000000C0120000D1
:1010AB00C0580120000000009858012000000000EB
:1010BB00149406081C9406080000000065990308A8
:1010CB00A0860100040000000000000000000000EA
:1010DB000000000000000000000000000000000005
:1010EB0000000000000000000000000000000000F5
:1010FB00149406082494060800000000D5FE03088B
:10110B00E8030000040000000000000000000000E5
:10111B0000000000000000000000000000000000C4
:10112B0000000000000000000000000000000000B4
:10113B002C9406080000000000000000310F000096
:10114B007D000000FF000000000000000000000018
:10115B000000000000000000000000000000000084
:10116B000000000000000000000000000000000074
:10117B00CC1307080000000000000000650500000C
:10118B007D000000FF0000000000000000000000D8
:10119B000000000000000000000000000000000044
:1011AB000000000000000000000000000000000034
:1011BB0018AA06080000000000000000AD10000097
:1011CB007D000000FF000000000000000000000098
:1011DB000000000000000000000000000000000004
:1011EB0000000000000000000000000000000000F4
:1011FB0034940608000000000000000035060408C7
:10120B00E8030000030000000000000000000000E5
:10121B0000000000000000000000000000000000C3
:10122B0000000000000000000000000000000000B3
:10123B003894060800000000000000002108030895
:10124B001027000003000000000000000000000059
:10125B000000000000000000000000000000000083
:10126B000000000000000000000000000000000073
:10127B00D40F0708000000005D390208CD67040891
:10128B005F76000005000000000000000000000079
:10129B000000000000000000000000000000000043
:1012AB000000000000000000000000000000000033
:1012BB00701307080000000000000000D97C040830
:1012CB0010270000010000000000000000000000DB
:1012DB000000000000000000000000000000000003
:1012EB0000000000000000000000000000000000F3
:1012FB00449406080000000000000000D9FE03081B
:10130B00E8030000050000000000000000000000E2
:10131B0000000000000000000000000000000000C2
:10132B0000000000000000000000000000000000B2
:10133B00509406080000000000000000199C0308F0
:10134B00204E000003000000000000000000000021
:10135B000000000000000000000000000000000082
:10136B000000000000000000000000000000000072
:10137B00609406080000000000000000159A0308A6
:10138B00204E0000030000000000000000000000E1
:10139B000000000000000000000000000000000042
:1013AB000000000000000000000000000000000032
:1013BB00709406080000000000000000750B040884
:1013CB00400D0300030000000000000000000000BF
:1013DB000000000000000000000000000000000002
:1013EB0000000000000000000000000000000000F2
:1013FB0080940608000000000000000009C80308E4
:10140B001027000001000000000000000000000099
:10141B0000000000000000000000000000000000C1
:10142B0000000000000000000000000000000000B1
:10143B00889406080000000000000000B1B8010805
:10144B001027000003000000000000000000000057
:10145B000000000000000000000000000000000081
:10146B000000000000000000000000000000000071
:10147B008C94060800000000000000002571020893
:10148B00A086010001000000000000000000000029
:10149B000000000000000000000000000000000041
:1014AB000000000000000000000000000000000031
:1014BB00949406080000000000000000B504040826
:1014CB0050C30000010000000000000000000000FD
:1014DB000000000000000000000000000000000001
:1014EB0000000000000000000000000000000000F1
:1014FB009C9406080000000000000000A5000408F2
:10150B00A8610000010000000000000000000000C6
:10151B0000000000000000000000000000000000C0
:10152B0000000000000000000000000000000000B0
:10153B00A89406080000000000000000F11102084A
:10154B00A086010001000000000000000000000068
:10155B000000000000000000000000000000000080
:10156B000000000000000000000000000000000070
:10157B00B49406080000000000000000F5340408D5
:10158B00A00F0000010000000000000000000000A0
:10159B000000000000000000000000000000000040
:1015AB000000000000000000000000000000000030
:1015BB00C09406080000000000000000B90C0208EF
:1015CB0010270000010000000000000000000000D8
:1015DB000000000000000000000000000000000000
:1015EB0000000000000000000000000000000000F0
:1015FB00CC940608000000000000000021E901085F
:10160B001A41000001000000000000000000000073
:10161B0000000000000000000000000000000000BF
:10162B0000000000000000000000000000000000AF
:10163B00D09406080000000000000000091C0108FF
:10164B001027000001000000000000000000000057
:10165B00000000000000000000000000000000007F
:10166B00000000000000000000000000000000006F
:10167B00DC94060800000000000000000D58020872
:10168B0050C300000100000000000000000000003B
:10169B00000000000000000000000000000000003F
:1016AB00000000000000000000000000000000002F
:1016BB00E0940608000000000000000095220108DD
:1016CB00400D0300000000000000000000000000BF
:1016DB0000000000000000000000000000000000FF
:1016EB0000000000000000000000000000000000EF
:1016FB00E89406080000000000000000A199030810
:10170B00400D03000000000000000000000000007E
:10171B0000000000000000000000000000000000BE
:10172B0000000000000000000000000000000000AE
:10173B00F09406080000000000000000A5F7010867
:10174B0050C3000003000000000000000000000078
:10175B00000000000000000000000000000000007E
:10176B00000000000000000000000000000000006E
:10177B00FC940608000000000000000061A70308AD
:10178B0040420F00000000000000000000000000BD
:10179B00000000000000000000000000000000003E
:1017AB00000000000000000000000000000000002E
:1017BB00089506080000000000000000ED9F0308DC
:1017CB0050C30000000000000000000000000000FB
:1017DB0000000000000000000000000000000000FE
:1017EB0000000000000000000000000000000000EE
:1017FB000100000000000100E0010100F58C010870
:10180B00000000000000000058F405087EFF0000F7
:10181B00FFFFFFFF080101FF0101FF00FFFFFFFFBB
:10182B00A9060208000000000000000034FD0508B6
:10183B00D10902080000000000000000ECFC0508C4
:10184B002D202D2D202D2D2D2D202D2D2D0000006B
:10185B00000000000000000000000000000000007D
:10186B00000000000000000000000000A8FC0508BC
:10187B00D05301209CFF2C0100000000B06601201A
:10188B00E0150C170000000044640120020000006A
:10189B00E0FC0508585E012088136F17010000005B
:1018AB005A5E012088136F17000000008E4C012038
:1018BB0000000000000000008C4C01200000000024
:1018CB00000000008A4C0120000000000000000016
:1018DB00884C01200000000000000000864C012015
:1018EB000000000000000000844C012000000000FC
:1018FB00000000009C05012000000000000000001B
:10190B00BC5D012003000000D0FD0508505E0120E6
:10191B0088136F17010000001A54012088136F17EA
:10192B0000000000BD8D0108000000000000000059
:10193B00E0FD0508456401200100000034FE0508A8
:10194B001C5401200100000040FE05081254012028
:10195B000200000048FE0508000000000000000027
:10196B000000000054FE0508A58D010800000000D2
:10197B0000000000F0FE0508000000000000000061
:10198B000000000044FF05080000000000000000FC
:10199B0000000000B4FF05085C5E0120020000009F
:1019AB00ECFF050816540120E0150C170000000091
:1019BB00A06F0120F46F0120D60101000000000090
:1019CB0000000000753F0208207401200000000099
:1019DB000000000000000000F015060800000000E9
:1019EB000000000000000000A81606080000000020
:1019FB00000000000000000054160608FF00000065
:101A0B00FFFFFFFF7544020800000000000000000C
:101A1B008015060801000000FA000000010000001C
:101A2B0001000000010000000001010100000000A6
:101A3B00F26D01200000F40101000000F06D0120A7
:101A4B000000F40101000000EE6D01200000F40124
:101A5B0001000000EC6D01200000F401010000000A
:101A6B00EA6D01200000F40101000000E86D012087
:101A7B000000F40101000000E66D01200000F401FC
:101A8B0001000000351B0208F91A020800000000D3
:101A9B0000020608D66D012005320100E46D01201D
:101AAB006400F40101000000E26D01206400C40930
:101ABB0001000000D46D0120E803D00701000000F5
:101ACB00D26D0120E803D00701000000D06D01208A
:101ADB00E803D00701000000CE6D01201E00B80BFB
:101AEB0001000000DC6D012005000F00010000006B
:101AFB00DE6D012003000A0001000000CC6D012007
:101B0B001E00F40101000000E06D01200200000046
:101B1B008C020608CA6D012014006400010000004D
:101B2B00D86D01203200E80301000000C86D0120D0
:101B3B000000C80001000000A16D012000C80100D9
:101B4B00A06D0120005001009F6D0120005A010083
:101B5B009D6D0120020000009802060864A1060892
:101B6B006CA106084A4C01200100C40900000000CA
:101B7B00484C01200100C40900000000464C012024
:101B8B000100C40900000000444C01200100C409FD
:101B9B0000000000404C01200100C40900000000BF
:101BAB00424C01200100C409000000003E4C012002
:101BBB000100C409000000003C4C01200100C409D5
:101BCB00000000009B5E012000C801009A5E01200E
:101BDB0000C80100985E01200000FFFF0A00000012
:101BEB00965E01200100C80001000000945E0120F8
:101BFB003200307532000000925E01207EFF14002F
:101C0B0005000000905E012005002C01050000007E
:101C1B008F5E0120055A05008C5E012000FF01003C
:101C2B008E5E0120020000005C1001208A5E012004
:101C3B0003000000B4F505088B5E012000FF0100D6
:101C4B008D5E0120020000005C100120895E0120E6
:101C5B0003000000B4F50508891A0208191A0208D6
:101C6B0000000000A4020608086E0120EE02CA085C
:101C7B0001000000066E012000C801006400000096
:101C8B00056E012000C8010064000000046E0120F5
:101C9B0002000000B0030608765E01200000803EC3
:101CAB0005000000745E012080C1803E050000002D
:101CBB006E5E01200083007D050000006C5E01203C
:101CCB0080C1803E05000000675E012000FF01001F
:101CDB00605E01206400F401010000005E5E0120E3
:101CEB0004000000BC0306085D5E0120020000003A
:101CFB00D0030608CF6B01200D000000DC030608A3
:101D0B00CC6B012000640100CA6B0120320010274C
:101D1B000A000000C86B01200D000000DC03060860
:101D2B00C76B01200D000000DC030608C66B012009
:101D3B000200000014040608000000000000000070
:101D4B0000000000200406080E6E01203E0000007B
:101D5B00580406080C6E01200100FF7F01000000F3
:101D6B000B6E01200200000054050608D16B012008
:101D7B000300000064050608D06B0120030000007F
:101D8B00640506088E6D0120000A01008C6D012090
:101D9B000000E803010000008A6D01200000E80349
:101DAB0001000000886D01200000E8030100000025
:101DBB00866D01200000E803010000007E6D01200C
:101DCB000000E80301000000846D01200000E8031F
:101DDB0001000000826D01200000E80301000000FB
:101DEB00806D0120001401009C6D01200200000099
:101DFB00740506089A6D01200000F4010100000033
:101E0B00986D01200000F40101000000966D012087
:101E1B000000F40101000000946D01200000F401AA
:101E2B0001000000926D01200000A00F01000000D6
:101E3B00906D01200000A00F01000000B56D012086
:101E4B0019640100B46D0120020000008005060832
:101E5B00B26D0120E803D0070A000000B06D01202D
:101E6B00006401000A000000A56D01200064010060
:101E7B00A46D012000640100AC6D01200064010021
:101E8B000A000000AB6D0120006401000A00000095
:101E9B00AA6D0120006401000A000000AF6D012053
:101EAB0000FF01000A000000AE6D012000FF0100E1
:101EBB000A000000AD6D012000FF01000A000000C8
:101ECB00A96D012001FF01000A000000A86D01208F
:101EDB0001FF01000A000000A76D012001FF0100B6
:101EEB000A000000DA6B01200000F4010100000081
:101EFB00D86B01200000A00F01000000D66B012061
:101F0B000000A00F01000000D46B01200000A00F07
:101F1B0001000000D26B01200000A00F01000000A7
:101F2B00A173012000C80100A0730120006401000F
:101F3B009F730120006401009E7301200064010067
:101F4B009D730120006401009C730120FF080100B8
:101F5B009B730120016401008119020845190208D5
:101F6B00000000008C050608A4730120013201005B
:101F7B00A373012001000000FC050608A2730120D9
:101F8B0004000000040606089A7301200064010097
:101F9B00987301201400E8030100000096730120E0
:101FAB00E80330750A0000009473012000C801009B
:101FBB009373012000C801009273012000C8010037
:101FCB009173012000320100A6730120004B010028
:101FDB00A573012004000000180606089073012069
:101FEB00006401000A000000B47301200000D00758
:101FFB0001000000AF73012000C80100AE73012087
:10200B0000C80100AD73012000C80100B2730120AC
:10201B000000D00701000000AC73012000C80100D4
:10202B00AB73012000C80100AA73012000C8010096
:10203B00B07301200000D00701000000A97301203C
:10204B0000C80100A873012000C80100A77301207C
:10205B0000C801006D1702085517020800000000A8
:10206B002C060608C36B0120005A0100C26B01202D
:10207B0000C80100C06B0120E803D007010000007D
:10208B000000000000000000B53F0208C80606086B
:10209B0049464C494748545F424C49545A5F46376E
:1020AB0032320000885E012000030100875E0120B0
:1020BB000003010009900108C18F01080000000016
:1020CB001C070608858F0108418F010800000000DE
:1020DB00B807060851900108D5F001080000000070
:1020EB0038080608785E012001030100111C020864
:1020FB00E51B020800000000900B0608C98E0108C2
:10210B007D8E010800000000000C06087D170208F8
:10211B0081400208000000009C0C06089D46020846
:10212B003D1C020800000000440D0608BD17020804
:10213B000000000000000000D00D06087518020812
:10214B001D18020800000000340E060809190208C9
:10215B00CD18020800000000DC0E06085997020893
:10216B00BD19020800000000680F0608C76D0120AA
:10217B0001060100F5170208CD1702080000000048
:10218B00641006088F960208314102080000000017
:10219B00D4100608A1970208F541020800000000C0
:1021AB0024120608C66D0120010301002D17020839
:1021BB000517020800000000F8120608F99702083C
:1021CB0000000000000000005C130608158F0108DA
:1021DB00E1E7010800000000DC1306080000000026
:1021EB00000000000000000068140608F119020846
:1021FB006D42020800000000D8140608FFFFFFFF25
:10220B000000803F00000000000000000000000004
:10221B0000000000000000000000000000000000B3
:10222B0000000000000000000000803F00000000E4
:10223B0000000000000000000000803F00000000D4
:10224B0000000000000000000000803F00000000C4
:10225B000000000000000000010000000000FA4335
:10226B000000FA430000803F19CA03080000000079
:10227B000000000000000000FFFFFFFFFF00000058
:10228B00000000008C8F01200800000000000000FF
:10229B007C8F0120080000008189000865890008F7
:1022AB002189000800000000158900080189000839
:1022BB00ED88000800000000000000000000000096
:1022CB0000000000DD88000800000000CD88000839
:1022DB00958E0008698B0008318B0008458B000830
:1022EB00E98A0008D58A0008C18A0008D1A900082C
:1022FB00C9880008458800087D930008685E0C00BB
:10230B0002010000A00F0000B80B00000102FFFF4C
:10231B0001000000FFFF0000C80F070800000802C3
:10232B000503040000000000D00F0708010008029D
:10233B00050404000000000094BD06080200FE0125
:10234B000110030000000000CCA4060803001402D7
:10235B000003000000000000D80F070804001F0254
:10236B000200080000000000E00F070805001F0234
:10237B000201080000000000FFFFFFFF0DA800088E
:10238B006DA70008D1A500080000000000000000A8
:10239B00919B0008CD9E000800000000000000008B
:1023AB0000000000A58B0008958B0008858B0008AA
:1023BB00758B0008B10D0508ED060508E906050843
:1023CB00E5060508F9100508E1060508DD06050810
:1023DB00146606081F0000001C0000001F00000010
:1023EB001E0000001F0000001E0000001F00000068
:1023FB001F0000001E0000001F0000001E00000058
:10240B001F0000000068214CFF010000F4010000D8
:10241B00FF000000B46F0608B001000002000000CE
:10242B0009000000010000002C1901200000000031
:10243B000000000000000000000000000000000091
:10244B000000000000000000000000000000000081
:10245B000000000000000000000000000000000071
:10246B000000000000000000000000000000000061
:10247B000000000000000000000000000000000051
:0C248B0000000000000000000000000045
:1024970001000000010000002423002000000000CC
:0424A7002000000011
:082800000000000000000000D0
:10800000026C03463AB11A6CD20608D50022012050
:1080100083F83C207047426480F83C20F3E71A6CF8
:1080200049494A4811401A6841F00201F0B4196404
:108030004168474D21F44031416041685C6821430B
:1080400041605168186921F48071D3F808C0DF6875
:10805000516054689E6A44EA0024AE4254605468F9
:1080600024F040745460506840EA0C0050609068FE
:1080700020F400609060916841EA0701916054D05B
:108080009068DC6A20F07060906091680E439660A2
:10809000906820F040509060916821439160906812
:1080A0009C6920F002009060916841EA440191606F
:1080B00093F82010002941D05468596A44F40064B0
:1080C000481E5460516821F460415160516841EA92
:1080D00040315160D06A0025DC6920F470005E698F
:1080E000611ED0622846D46A44EA0154D46294687E
:1080F00024F400749460946893F8301044EA4124A6
:108100009460946824F480649460916841EA8621C4
:1081100091605D641A6C22F0030242F001021A645D
:10812000002283F83C20F0BC7047916821F0706118
:108130009160916821F040519160B0E7516821F45D
:1081400000615160C6E700BFFDEEFFFF0023014064
:108150000100000F2DE9F04F022389468A462DEDDC
:10816000108B99B0DFEDCABA14930346169004330E
:10817000159217934FEADA06169DDDF85CC04FEAB8
:10818000CA0305EB46111396F0004FF0000B01EB0C
:10819000061437010390A6EB86020194049706EBC0
:1081A000460E04EBC202041D381D06EB86072C4464
:1081B000C6EBC60802972844029D02EB46174FEA19
:1081C000C808ED0001EBC60602954FEA0E150595AD
:1081D0004FEACE050695139D4FEA451E019D95ED8C
:1081E000007AD34492ED005AD7ED004AD945D1ED3B
:1081F000006A50ED013A35EE241AD6ED002A1CED46
:10820000016A73EE875A54ED017A33EEC73A36EEBF
:10821000264A77EEA21A36EE666A77EEE27A74EEB6
:10822000256A71EE812A77EE633A37EEC57A36EE2B
:10823000A22A77EEE47A76EEE26A0CED012A37EEB6
:10824000247A77EE857AD1ED018AC1ED006A74EE69
:10825000655A96ED015AB0EE460A94ED004AA7EE33
:108260002B6AD2ED010AE7EEAB3A74EE456AD7ED20
:10827000012AA7EE6B0A9CED007AD5ED014A34EE97
:10828000054A37EE689A90ED005A36EEE02A76EE0F
:10829000E26A30EEA28A32EE222A76EEA06AF0EE90
:1082A000492A75EE640A37EE287A75EE249AE2EED2
:1082B0006B2A74EEC54AF0EE608AB0EE40AAE6EE94
:1082C000AB4AE6EEAB8AA6EEEBAAF0EE496AB0EE58
:1082D000629A37EE695AE2EE2B6AB0EE432A74EEE8
:1082E00008AAA7EEEB9AA7EEAB2A77EE297A35EE2D
:1082F000617A75EEC89A35EE415A75EEC45A37EE7A
:10830000AABA77EEEA7A37EE011A8CED00BA36EEA9
:10831000287AC1ED017A39EE844A76EEC27A1944A0
:1083200075EE885A9C4435EE215A00ED014A70EEF4
:108330008A0A70EE244AC5ED005A36EE686A80ED6E
:10834000001A72EEA33A85ED015A33EE093A04EDB4
:10835000017A72EE266A87ED006A1D44C6ED000AB6
:108360001844C2ED004AC4ED007A1C44C7ED016A0E
:108370001F44C6ED013A1E4482ED013A1A443FF60D
:108380002EAF139A072A40F2C681039A0EF1080E07
:10839000169F08F108000832029E059D4FF0000864
:1083A00094463A46083608357244069C0499D346EA
:1083B000109207EB0C0208340C310F92BA190E928E
:1083C0007A190D923A190C923A180B927A1809926E
:1083D00007F10C020A9201220892149ADDF824C0D7
:1083E0009044159A0A9F02EBC8020B9EA8EB880ED8
:1083F0000C9D02EBC80192ED00BA0D9C01EBC80286
:10840000D1ED00AA0E9802EBC80192ED00AA01EB93
:10841000C802D1ED009A02EBC80192ED009A01EB7F
:10842000C802D1ED008A0F9902EB0E1E92ED008A70
:10843000109A0EEBC80ADEED017A1192CDED047AA6
:108440000AEBC802DAED017A02EBC80A1291CDED0F
:10845000057AD2ED017A0AEBC802DDF820E0CDED15
:10846000017ADAED017A02EBC80ACDED067AD2ED97
:10847000017A0AEBC802CDED027ADAED017ACDED90
:10848000077AD2ED017ADDE91121CDED037A01E021
:10849000F304353F17ED017ADE44D2ED007A94ED16
:1084A000005AF145D5ED006A37EE274AD0ED004A73
:1084B00077EE677A1CED016A96ED007A91ED001A6D
:1084C00076EE055A36EE872A97ED00DA71EE24EA49
:1084D00076EE453A74EE252A31EE641A35EE466A98
:1084E0003EEE825A74EE655A31EE664A72EE854A65
:1084F00031EE471AB0EE67CA47ED014A34EE077A0B
:10850000D1ED014A31EE261AD0ED016A72EEC52A8C
:1085100095ED014AA7EE6BCA74EEE60A96ED010AE4
:10852000E7EE2B7A92ED017A94ED015A74EEA64AA9
:108530003DEE473ADCED006A70EEC4CA70EEC00A48
:10854000B0EE43EA7CEE80CA74EE001A70EE840A44
:10855000ACEEEBEA36EEC54A3DEE077AB0EE63DAF2
:1085600036EE850AACEEAB3AF0EE4EDAA1EE2BDA3F
:10857000A1EE2B6AE1EE6BDA75EE666AB0EE441A94
:10858000F0EE4CCA37EE405AA0EEAB1AE0EEEBCA62
:10859000E0EEAB6A37EE007A74EEA10A35EEE1FA4E
:1085A00075EEE45A75EE6EFA37EE600A71EEA55A72
:1085B000DDED061A35EE425A7FEE244A3FEE822A5E
:1085C00022EEE1FA61EE80FADDED051A3EEE855A03
:1085D0003EEE066A73EEAD3A21EE82EA73EE4DDAB4
:1085E0003DEE033A24EEE1DADDED071A34EE2C4AD3
:1085F0007CEE266A61EE85CA25EEE1CADDED041A3D
:1086000077EE81EA77EEC17AE9EEA2FADDED032A90
:10861000A9EE80FA9DED030AAAEEA4EADDED014A77
:10862000AAEE82DA9DED012AE8EEA5CADDED025A36
:10863000A8EE85CA9DED025A21EEAD1A62EE832A9C
:108640006EEEE11A27EEC00A64EEA34A26EEC22AB5
:1086500065EE865A24EE455AABEE2E1AEBEE2D1A35
:10866000E8EE272AA8EE030AEAEE264AAAEE232A13
:10867000E9EE045AA9EE065A37EE207A87ED007A21
:108680001F44C2ED00FA82ED01FA1A440CED01EA32
:108690008CED00DA9C44C4ED00CA84ED01CA1C4490
:1086A00081ED001AC1ED011A1944C6ED002A86EDCC
:1086B000010A1E44C0ED005A80ED015A1844C5ED70
:1086C000004A85ED012A1D443FF6E4AE1099089A50
:1086D0000831013210910F99089208310F910E99CB
:1086E00008310E910D9908310D910C9908310C91BA
:1086F0000B9908310B910A9908310A9109990831AF
:108700000991139991427FF468AE149B8A46DB006D
:108710009BB214932EE519B0BDEC108BBDE8F08F21
:10872000124B30B41D686B6A28B943EA014300203C
:10873000AB6230BC7047AC6A013803EB14440BD019
:10874000002303F14002013305EB8202DBB25268E1
:10875000834204EB1244F4D3403044EA014405EB75
:1087600080004460002030BC704700BF9019012099
:10877000037870B42BB30246C0F10105531912F807
:10878000014FDBB2002CF9D101335B000E4C032208
:108790000B8084F8043484F80524017879B102232D
:1087A00000265A1CE518023354FA82F285F80414A4
:1087B000DBB282F8046410F8011F0029F1D170BC0B
:1087C00070470223E2E700BF9019012030B5EFF3B4
:1087D0001181802383F312880A4AD2F80435D2F833
:1087E0000845D2F80405D2F80855CAB282F31188B8
:1087F000013BA84294BF4FF4006000201B1B1844AB
:1088000030BD00BF90190120012380F8513070471E
:10881000014BD3F80C0570479019012001207047D7
:10882000024BC3F81025C3F81415704790190120A6
:10883000024BC3F81825C3F81C1570479019012086
:1088400070477047212870B505D0222829D02028EC
:1088500010D0002070BD0029FBD0072AF9D1184B99
:1088600018791C685A799B79087100200C604A714C
:108870008B7170BD0029ECD0072AEAD11148104B4A
:108880000C680E794D79D0F8142589791C601E7119
:108890005D719971002ADCD02146D0F8100590470F
:1088A000D7E70029D5D0022AD3D1064AD2F81C3501
:1088B000002BCED00988D2F818059847C9E700BF29
:1088C00000000120901901200020704703460A2271
:1088D00001481A80704700BF080001200346642247
:1088E00001481A80704700BF14000120012901D0FF
:1088F00000207047014BD3F890301847000001204A
:10890000012900D05EE1024BD3F88C30184700BF3C
:1089100000000120014BD3F88830184700000120E7
:1089200010B40B780A46044603F00303012B05D06C
:10893000022B0BD000205DF8044B70478B8843B9A5
:10894000204611465DF8044B01F0A4B98B88832BB7
:10895000F6D0034B5DF8044BD3F88030184700BFC6
:108960000000012038B5054B04460D46DB6F9847E3
:108970002946204601F012FF002038BD00000120EA
:1089800038B5054B04460D469B6F9847294620464F
:1089900001F080FF002038BD0000012011F0800FA1
:1089A00001F00F01F0B4D0F8A8424FF01C0042D102
:1089B000C1EBC10500FB0140002604EB850500F575
:1089C000FE7085F8FD61457801708360C27005B165
:1089D000C180022A01D10023037194F8BC33012B1A
:1089E0001AD00122236884F8BC234178057891428B
:1089F0002CD003F5006605F00F0103F530638A40C3
:108A0000F16903EB451341EA0242F2611A6812046C
:108A100005D5002384F8BC330020F0BC7047826881
:108A20001D68C2F30A02C07818492A4342EA80420C
:108A300011431960EDE7C1EBC105012600FB0140C0
:108A400004EB85053C3085F83D60BCE705F00F067A
:108A5000D3F81CC803F5106203F50067B14002EBC0
:108A6000451241EA0C01F96113681904D1D48368F5
:108A70001668C3F30A03C0780449334343EA8043CA
:108A800043EA855319431160C3E700BF008000101B
:108A9000F0B4002452004E1C2746030FB0F1204FC3
:108AA0004FEA001003F1300503F1370334BF0D55D1
:108AB0000B5537550234A242EFD1F0BC704700BFCE
:108AC000024808B5FFF754FE014808BD8492060825
:108AD000941D0120024808B5FFF74AFE014808BD71
:108AE00094920608941D01200B481A220B4B006833
:108AF0001B680A80C01801D109487047094B082239
:108B0000094910B51C68FFF7C3FF04220749204636
:108B1000FFF7BEFF024810BD107AF01F187AF01F51
:108B2000B0000120147AF01FB2000120C200012021
:108B3000024808B5FFF71CFE014808BDA0920608D0
:108B4000941D012008B520B90448FFF711FE044820
:108B500008BD0448FFF70CFE014808BDAC920608AA
:108B6000941D0120D0920608042301480B80704711
:108B7000CC00012003460A2201481A80704700BF3A
:108B8000D00001200346202201481A80704700BF10
:108B9000DC0001200346202201481A80704700BFF4
:108BA000FC0001200346202201481A80704700BFC4
:108BB0001C01012003460A2201481A80704700BFA9
:108BC0003C0101200023D0F8982218461373704707
:108BD0000346222201481A80704700BF4801012045
:108BE0000346222201481A80704700BF6C01012011
:108BF0000346222201481A80704700BF90010120DD
:108C000003460A2201481A80704700BFB4010120C0
:108C10000346432201481A80704700BFC00101206B
:108C20000346432201481A80704700BF0402012016
:108C30000346432201481A80704700BF48020120C2
:108C4000D0F8943283B110B5D0F8904294F8000275
:108C5000FF2807D09B68214694F801229847FF23FC
:108C600084F80032002010BD0020704701F00F0191
:108C7000D0F8A822C1EBC10102EB810238B5D0F8CF
:108C80009032D0F89452D2F8144203F50371EA6896
:108C9000D3F80402C3F80C429047002038BD00BF4F
:108CA00008B5D0F88C325B689847002008BD00BF3B
:108CB00008B5D0F88C321BB11B68984700B908BDC5
:108CC000022008BD836B40221A645A6C42F00402F1
:108CD0005A647047704700BF836B1A6C12F0500FD4
:108CE0001A6C20D142F4007219681A648A6812F072
:108CF000405F1AD19A69C2B9CA6A12F4700F02D0E1
:108D00008A68500511D44A6822F020024A601A6C21
:108D100022F480721A641A6CD10406D41A6C42F0E0
:108D200001021A647047D20600D570479B6BDB6C5A
:108D3000184700BF2DE9F843884600294FD047184F
:108D4000461E284C802507F1FF39EFF3118185F38A
:108D50001288D4F80425C9B2D4F80805D4F804352B
:108D6000D4F808C581F31188634594BF4FF40063BC
:108D70000023121A1344012B1AD1012039F0BCF937
:108D8000EFF3118185F31288D4F80425C9B2D4F821
:108D90000805D4F80435D4F8087581F31188BB426E
:108DA00094BF4FF400630023121A1344012BE4D044
:108DB000EFF3118285F31288D4F80835D2B216F891
:108DC000011F234483F82015D4F808350133C3F379
:108DD0000A03C4F8083582F311884E45B5D14046E0
:108DE000BDE8F88390190120F8B5002390F85050A1
:108DF00080F85030CDB10F4E96F8942F032A16D13B
:108E0000D6F8CC7F00F13C0429462046FFF792FFBC
:108E1000D6F8CC3F2D1A0444DB1B322B01D8002D91
:108E2000F2D1B5FA85F04009F8BD0120FCE71846FB
:108E3000FAE700BF90190120002280F85120D3E703
:108E400090F85020531C0244DBB280F8503082F876
:108E50003C1090F851200AB1132B00D9C4E7704799
:108E6000F8B50B4E0D46144696F8943F032B0ED1E1
:108E7000D6F8CC7F002C0ADD21462846FFF75AFFA2
:108E8000D6F8CC3F241A0544DB1B322BF2D9F8BDAF
:108E90009019012010B503200C464FF00DFE032859
:108EA0000AD0074B93F8D03F012B4FF012030CBFB1
:108EB00004480548238010BD12230448238010BDB8
:108EC00090190120B4020120A00201208C0201208F
:108ED0002DE9F04FDFF81883B94D44462DED068B90
:108EE00089B0CDE9060105920FCD0FC40FCD0FC497
:108EF000B44B95E8070093F8D63F84E80700042BAD
:108F000000F20C81DFE813F036010A0105010500CB
:108F100044019FEDAD8A9FEDAD9AAD4AAD4B0598EA
:108F2000AD49002818BF1346AC4AC8E9062139EEFE
:108F3000087ADFEDAB7AF5EE006AAA4A28EE278AB6
:108F4000A94FB0EE67AA02F1150BC6EE879A00266C
:108F5000DFEDA68A0292C8F82430079BB34200F0E6
:108F6000D280029A731C12F8014B0393DBB2029277
:108F7000002C00F01B81002203E00132152A00F0D2
:108F8000158102EB420155001BF80100A042F4D10B
:108F900004938C4B194491F8F11F002900F00E81C5
:108FA000204638F003FC824600684EF0FFFB9AF83A
:108FB000051038F039FC0178002940F0F7802009CD
:108FC000DFF8409204F00F0C0322441E4D44049B32
:108FD000052C05F8C82C05F8C73C00F2C580784977
:108FE00001EB4401888D40FA0CF111F0010100F011
:108FF000BB8001210493A9F19C0501FA0CF1013910
:10900000084051F01FFD6E4B032202211C44049BBB
:1090100094F83840204405EBC00078618271C37138
:109020009AF808203DF024F9059B002B7BD0654B76
:109030006449B3F8D43F91F8D61F07EE903AD9F8B7
:1090400064320429F8EEE77AFCEEE77A17EE900A2C
:10905000B3FBF0F202F57F4202F1FF024FEA124247
:10906000B3FBF2F2B2FBF0F083B272D007EE902ABB
:10907000F8EE676A66EE887A28EEE77A5149C7ED1E
:10908000027A91F8D70FA9EE267A06990190384610
:109090000091514687ED037A30F0BCFF002E65DD6C
:1090A0007B68D8F83820934262D0012E5ED0D8F881
:1090B000502093425CD0022E58D0D8F868209342BA
:1090C00056D0032E52D0D8F88020934250D0042E90
:1090D0004CD0D8F8982093424AD0052E46D0D8F8E4
:1090E000B020934244D0062E40D0D8F8C820D31ADE
:1090F00018BF0123039E01223B741837082E07F87E
:10910000072C7FF42AAF3A4809B0BDEC068BBDE8C6
:10911000F08F9FED388AB0EE489AFEE69FED368AD2
:10912000B0EE489AF9E6FAFE697AFCEEE77AD9F8E9
:1091300064124FF6FF7317EE902A1846B1FBF2F255
:109140001A44120CB1FBF2F21E4991F8D61F042901
:109150008CD107EE900A07EE102AF8EE677AF8EE47
:10916000476A67EE8A7A87E779615DE70123C1E79D
:109170000023BFE70023184A01219FED198A0693B7
:10918000164BB0EE489A0591C8E90632104BCEE670
:109190000023114A01219FED198A06930F4BB0EE6F
:1091A000489A0591C8E90632094BC0E6144A0020E6
:1091B000074BC8F81C20C8F82430A5E70B68FFDE71
:1091C00098E4050890190120ACC5A737ACC5A736AF
:1091D0005900040899340308D138030865000408CD
:1091E0006F12833A6B2901204800002000007A4466
:1091F00014000020282930386F12033900000000C5
:1092000085370308882A012070B5D0F89062E6B14E
:1092100001EB810500EB8505EB695BB1D0F8A80295
:10922000C1EBC10400EB8404626CB3FBF2F402FBFB
:1092300014341CB10020C6F8140270BD2346224627
:10924000EC610AF059FF204670BD022070BD00BFDE
:10925000002310B504241A461946C0F86C42D0F811
:10926000A8020AF049FF002010BD00BF10B5134648
:1092700002240A460021C0F86C42C0E90733D0F846
:10928000A8020AF039FF002010BD00BF70B5D0F869
:10929000A852C1EBC1000C46002605EB80001C2142
:1092A000C0F80822C0F8103280F8FC41C0F81462FF
:1092B00080F8FD612B6901FB0451012B01F5FE7162
:1092C00008BFC0F80C22DAB228681CB90AF0DAFC30
:1092D000002070BD0AF062FD002070BD0E48D0F87D
:1092E000B03F10B5A3B190F8304D00F55260D3F8FF
:1092F000042234B1002440230121FFF7C7FF204698
:1093000010BD4FF400730121FFF7C0FF204610BDD0
:109310000224204610BD00BF9019012010B50C4C4E
:10932000D4F80C3563B10B49013BD1F86822C4F87D
:109330000C3512F8014BC1F86822047013B10123F7
:10934000184610BDFFF7CAFF0123184610BD00BF25
:1093500090190120882A012013B5074CD4F86832EF
:1093600003B9FEE701A8FFF7D9FF0028F6D09DF862
:10937000040002B010BD00BF882A012010B50B68A0
:10938000064C074AC4F80C35C2F868020BB100203D
:1093900010BDFFF7A3FF002010BD00BF90190120F2
:1093A000882A01202DE9F0410A46D0F8A052002772
:1093B0000B4E044685F838222F7205F50B720D23EB
:1093C0008121C5F82C62D0F8A8020AF095FE05F5B7
:1093D000037220461F230121BDE8F04156E700BF7C
:1093E000555342532DE9F047137882B09146044615
:1093F0008A465A2B5CD8DFE813F0CE005B005B0096
:109400007D005B005B005B005B005B005B005B0062
:109410005B005B005B005B005B005B005B00B2001D
:109420005B005B005B005B005B005B005B00A90115
:1094300074005B005B0074005B005B005B005B0022
:10944000CD015B00F7015B005B003B015B00E000CE
:109450005B005B005B005B0028015B005B005B0066
:109460005B005B005B005B005B005B005B005B0024
:109470005B005B005B005B005B005B005B005B0014
:109480005B005B005B005B005B005B005B005B0004
:109490005B005B005B005B005B005B005B005B00F4
:1094A0005B005B005B005B005B005B005B00180225
:1094B000D0F8A0120524002091F85D325A1C01EB6F
:1094C000C303D2B283F83C4283F84002042A00F07E
:1094D00003824FF0FF3581F85D22284602B0BDE8D7
:1094E000F087D0F8A032002005465881284602B007
:1094F000BDE8F087D0F8A042002104F10B0304F18D
:109500001D0003F8011F8342FBD1702094F85C32E8
:109510000C25207394F85D02E574984213D004EB97
:10952000C300013390F83C52DBB2A573042B90F8D2
:109530004152257690F8400218BF84F85C3260767C
:1095400008BF84F85C121223638199F80430122B4F
:1095500098BF63810025284602B0BDE8F08799F8DE
:109560000130D0F8A002DB0740F18381072100F130
:10957000120300F10B0583224181C3F10604D54992
:1095800001E092F8402003F80129E218AB4211FAF9
:1095900082F2F6D1DEE7D0F8A062D6F81472002F7E
:1095A00040F02D82D0F8A43208469B6898470546C3
:1095B000002840F06D8270818FE7D0F8A062357A84
:1095C000002D40F0908196F91832002BC0F2708186
:1095D000D0F8A43208469B6898470746002840F018
:1095E0007182D4F8A4325046DB68984705460028BB
:1095F00040F08D82D9F80210D4F8A00209BAD0F850
:109600006072C6F86412B9F807305BBA9BB21944AD
:10961000C6F86832B94200F26882B6F85E12D6F82F
:10962000142203FB01F3934240F09E81B3F5007FC7
:109630004FF00101204606F10C0228BF4FF40073E1
:1096400031729BB2FFF722FE47E799F80150D0F83C
:10965000A03215F0020040F0F781D3F86012D3E990
:10966000992422448A4200F201820546588134E757
:10967000D0F8A08298F80860002E40F0328198F966
:109680001832002B80F2CE81D0F8A43208469B68B5
:1096900098470546002840F04E82D9F80200D4F8D9
:1096A000A06200BAD6F86072C8F86402B9F8073050
:1096B0005BBA9BB21844C8F86832B84200F2F8802E
:1096C000B8F85E22022003FB02F3D8F8142288F8CF
:1096D00008009A4240F0EC80B6F85E324FF4007C0D
:1096E000D6F8687206F10C05D4F8A422504607FBA0
:1096F00003F72946A8F80AC06745D2F81080D6F8C3
:10970000642228BF6746B7FBF3F39BB2C04700282B
:10971000C0F25F812A463B46D4F8A80281210AF0B4
:10972000EBFCB6F85E52D6F83432B7FBF5F5D6E965
:109730009920DF1B2A44451BC6F83472C6E99925D7
:10974000002D7FF407AF03233372C6E6D0F8A07272
:10975000082000225F4E07F11303788107F10B0503
:10976000C3F1070001E092F8482003F80129C2186C
:109770009D4216FA82F2F6D1D4F8A4325046DB6844
:10978000984700283FF4E6AEBB7B002563F07F03DB
:10979000BB73A2E6D0F8A062002506F10B0306F128
:1097A000170203F8015F9342FBD1D4F8A43250466C
:1097B0000DF1020201A95B689847002840F0F7808C
:1097C000019B0821BDF802200220013BF17352BA2F
:1097D0000C211C0EF374F2821A0C1B0A347472747E
:1097E000B374B0827181B5E6D0F8A0620846D4F8AF
:1097F000A43206F25E2206F518715B6898470546AA
:10980000002840F0C180D6F860320821B6F85E2208
:10981000013B308252BA7181180EF373190C7282B7
:109820001B0A30737173B37357E6D0F8A072082027
:109830000022284E07F11303788107F10B05C3F1CD
:10984000070001E092F8502003F80129C218AB424A
:1098500016FA82F2F6D1D4F8A4325046DB68984763
:1098600000283FF477AEFB7B002563F07F03FB739A
:1098700033E6D4F8A44201EBC10199F80430E4695D
:1098800004EB810422790532934228BF13464381B9
:10989000002B3FF45FAE013B9AB2531C0C322344C1
:1098A000024413F8011D9C4202F80119F9D151E656
:1098B00096F85D3205211A460133DBB206EBC2028F
:1098C000042B82F8405282F83C1200F0A88086F8FF
:1098D0005D323FE698E405084FF0FF3581F85D0200
:1098E000FBE54646F8E6B6F85E5206F10C08D6F8F7
:1098F00068720846D4F8A432414607FB05F7D6F84B
:109900006422D3F81490B7F5007F28BF4FF4007796
:10991000B7FBF5F39BB2C8470028C0F22781B6F821
:109920005E02D6F83432B7FBF0F1D6E99925DB1B9D
:109930000A446D1AC6F83432C6E9992525B920467D
:109940002946FFF72FFDC8E505FB00F342462046F8
:109950000121B3F5007F4FF0000528BF4FF40073DD
:109960009BB2FFF793FCB8E590F85D3205215A1CD5
:1099700000EBC303D2B283F8405283F83C12042AAE
:109980003AD080F85D22E5E5D4F8A0220220002537
:1099900092F85D32591C02EBC303C9B283F83C0252
:1099A00083F84052042924D082F85D12D2E5D4F81D
:1099B000A022022092F85D32591C02EBC303C9B207
:1099C00083F8405283F83C020429EDD182F85D52BD
:1099D000C0E5D4F8A0220420002592F85D32591C7D
:1099E00002EBC303C9B283F83C0283F840528142C0
:1099F000DAD182F85D5270E580F85D526DE596F837
:109A00005D32052100251A460133DBB206EBC202A6
:109A1000042B82F83C1282F840527FF458AF86F84B
:109A20005D525AE598F85D3205211A460133DBB2E2
:109A300008EBC202042B82F8406282F83C1200F06C
:109A4000918088F85D3285E593F85D220520002538
:109A500011460132D2B203EBC101042A81F83C0263
:109A600081F840527BD083F85D2273E593F85D2244
:109A7000052411460132D2B203EBC101042A81F858
:109A8000400281F83C42EED1054683F85D0224E5B0
:109A9000D4F8A0220220002592F85D321946013345
:109AA000DBB202EBC101042B81F8407281F83C0269
:109AB00018BF82F85D324FF0050308BF82F85D726F
:109AC00033720AE5D4F8A022022092F85D321946DA
:109AD0000133DBB202EBC101042B81F8405281F863
:109AE0003C0286D082F85D3234E590F85D32052183
:109AF0001A460133DBB200EBC202042B82F840525B
:109B000082F83C123FF478AF80F85D3222E5D4F859
:109B1000A022022092F85D3219460133DBB202EB3B
:109B2000C101042B81F8407281F83C02DAD13D4634
:109B300082F85D72D1E4D4F8A022022092F85D325E
:109B400019460133DBB202EBC101042B81F84062FC
:109B500081F83C02C6D1354682F85D62BDE483F8E7
:109B60005D52BAE4354688F85D62B6E4D4F8A022C6
:109B70000420002592F85D3219460133DBB202EB76
:109B8000C101834281F83C0281F84052AAD130E7FA
:109B9000D0F8A01210B50B7A022B07D0033B012B93
:109BA00002D80021FFF7FEFB002010BD01F21B22AE
:109BB00091F819120446FFF715FC0028F4DA204644
:109BC0000121FFF7EFFBEFE738B5D0F8A84201F02D
:109BD0000F03626893422BD80A062BD41C25C1EBD5
:109BE000C102002005FB014104EB820201F5FE7178
:109BF00082F8FD0101220B708A7094F8BC03904238
:109C000016D084F8BC234A782068012A09781DD030
:109C100000F5306202EB41121568002D00DBF1B94E
:109C2000116841F4001111601BB3002384F8BC33A8
:109C3000002038BD1C21C3EBC302012001FB0341FE
:109C400004EB82023C3182F83D00D3E700F510625C
:109C500002EB411215680029E2D0002DE0DB11680B
:109C600021F080411160116841F400111160002B56
:109C7000DBD104F57172217C09F0D8FFD5E700BF74
:109C800010B504468021FFF79FFF00212046BDE864
:109C9000104099E710B50C7882B00023D0F89822D4
:109CA00014F06004ADF8063016D0202C0ED14B789D
:109CB000023B092B0AD8DFE803F033390909090907
:109CC00009093F2F90F87432032B5AD00224FFF772
:109CD000D7FF204602B010BD4B780B2BF6D80FF201
:109CE000080C5CF823F000BF6D9D0008CD9C0008B7
:109CF000CD9C0008CD9C0008CD9C0008CD9C0008A0
:109D0000439D0008CD9C0008CD9C0008CD9C000818
:109D1000C59C00085F9D00088B7800241360D8E77D
:109D2000111D01220024FFF7A1FAD2E711460122FA
:109D30000024FFF79BFACCE74B8800241B0A5360F2
:109D4000C7E74B881B0A222B1FD0212BBED1CA8804
:109D50001149092A28BF0922FFF788FAB9E790F8C4
:109D60007432032BB2D18B789360B2E790F87422EF
:109D7000032AABD102220DF106011C46FFF776FA49
:109D8000A7E702F108010122E6E7CA880349362A5B
:109D900028BF3622E0E700BF00030120C8020120EF
:109DA0002DE9F0410A7884B000270D4612F06006D4
:109DB0000446D0F890328DF80D70ADF80E7016D0C4
:109DC000202E1AD1CE8806B3120643D51946019328
:109DD000D4F89432324668783E46D3F80880C047BB
:109DE000019BEA8820461946FFF740FA09E04B78C4
:109DF0000A2B20D00B2B28D08BB120460226FFF750
:109E00003FFF304604B0BDE8F081D0F894323246CE
:109E100048789B689847304604B0BDE8F08190F8D8
:109E20007432032B29D002262046FFF729FF304643
:109E300004B0BDE8F08190F87432032BF3D1012215
:109E40000DF10D01FFF712FADBE790F87432032BE6
:109E5000D7D0E8E74A78032583F80162394683F8CA
:109E600000221A46C0F848613346C0F84C613E46AD
:109E7000C0F86C52FFF70AFAC3E702220DF10E0197
:109E8000FFF7F4F9BDE700BF70B5D0F8A052044663
:109E900095F8183213B9D5F814323BB98121204610
:109EA000FFF792FE6B7A022B07D070BD6B7A002B06
:109EB000F4D10121FFF788FEF0E705F50372204693
:109EC0001F230121BDE87040FFF7E0B9F8B5D0F8D5
:109ED000A0420546267A5EB1012E07D104F21B226C
:109EE00094F81912FFF77EFA00282FDB0020F8BD46
:109EF000D0F8A832D4F81012D3F83032D4F81422A3
:109F00001F2BC4E98C1208D12D4BD4F80C229A4295
:109F100003D194F8191201291DD994F85D3200215A
:109F200005205A1C04EBC303D2B283F83C0283F829
:109F300040120223042A2846637214BF84F85D226B
:109F400084F85D12FFF7A0FF0020F8BD284601212C
:109F5000FFF728FACAE794F81A32013B0F2BDCD836
:109F600004F21B22FFF73EFA0028237A1DDB013B97
:109F7000022BBBD96189F1B1D5F8A07204F10C02B2
:109F80000420D7F83432D7F814425B1A87F83862C5
:109F9000A1423872D5F8A802C7F834320B4628BF60
:109FA000234681210AF0A8F8A0E7052BCED0284649
:109FB000FFF76AFF9AE72846FFF7F4F996E700BF34
:109FC0005553424370B5054641B9D0F86C320C4642
:109FD000032B10D0052B1FD0002070BDD0F88C3281
:109FE0009B6933B190F87422032A02D1984700206C
:109FF00070BD022070BDD0E953639E4212D8D0F8E4
:10A000008C321B6923B190F87422032A00D198473F
:10A010002846FFF71DF9DFE7C5F86C12FFF7D4FDFE
:10A02000204670BDF61AB342C0F84C6128BF3346D3
:10A030009BB2FFF72BF9204670BD00BF2DE9F0431E
:10A040000D784FF0010883B0044680F8805205F087
:10A050001F0C4F7800F5207EC44580F88172CB78C4
:10A060008E7806EB0326B6B2A0F882624A790B79A5
:10A0700003EB02239BB2A0F8843291F807908A790F
:10A08000C0F86C8202EB092292B2A0F88622C0F8D6
:10A0900070220DD0BCF1020F3ED0BCF1000F19D0E0
:10A0A00005F08001FFF790FD002003B0BDE8F083CC
:10A0B00005F06002402A67D06A0665D580212046F7
:10A0C000FFF782FD20460021FFF77EFD002003B050
:10A0D000BDE8F08305F06005202D6FD0402D6DD0D8
:10A0E000002DEBD1092FE9D801A151F827F000BFCD
:10A0F00007A2000835A20008BDA0000853A200086E
:10A10000BDA0000863A20008C3A20008BDA000080B
:10A11000F1A20008D1A1000805F06005202D4DD066
:10A12000402D4BD0002DC9D1012FD9B200F00481B0
:10A13000032F00F0EF80002FC0D190F87422022A84
:10A1400000F0CC81032AB9D113F0800F01F00F0386
:10A1500003EB830300EB830340F0D881D3F8443151
:10A16000002BABD001F07F03142202FB030202F5A7
:10A17000A072002B40F00D82002313601146204690
:10A180000222FFF773F88FE794F87422013A022A4B
:10A1900094D8DBB2032B91D8D4F88C327146204688
:10A1A0009B689847B4F88632002B7FF47DAF002877
:10A1B0007FF47AAF2046FFF74BF875E7D4F88C327E
:10A1C000714620469B689847002003B0BDE8F083A5
:10A1D000F6B2C14D012E85F86C623FF66FAF90F874
:10A1E0007432022B00F0BE81032B00F0A981802184
:10A1F000FFF7EAFC00212046FFF7E6FC3146204647
:10A20000FEF74EFD50E790F87432013B022B3FF60B
:10A2100055AF022A7FF452AF0122D0F87C32C260DF
:10A220000BB10323C360022204F10C012046FFF7A7
:10A230001DF839E790F87432013B022B3FF63EAF30
:10A24000012E7FF431AF0023C0F87C32FFF700F815
:10A250002AE7012E7FF428AFC0F87C62FEF7F8FFF2
:10A2600022E713437FF42AAF7F2E3FF627AF90F803
:10A270007432032B3FF422AFF1B2D0F8A83280F849
:10A28000761293F8BC23012A11D01A68002083F8B3
:10A290003810D2F8001821F4FE61C2F80018D2F884
:10A2A000001841EA0611C2F8001883F8BC032046E2
:10A2B000FEF7CEFF002E00F07E81022384F8743278
:10A2C000F2E6330A013B062B3FF6F8AE01A252F844
:10A2D00023F000BF55A400083BA4000829A40008EF
:10A2E000BDA00008BDA0000813A40008CDA300086D
:10A2F000012A7FF4E3AE90F87432022B00F2FF8063
:10A30000002B3FF4DBAE0023014641F8083FFEF787
:10A31000ADFFC9E690F87432022B00F0D380032B16
:10A320007FF4CCAE4F063FF445AF56EA02037FF40C
:10A3300041AFFFF749FC3DE790F87422022A00F094
:10A34000C180032A7FF4BAAE002E7FF4ADAE48067A
:10A350003FF430AFD4F8A80201F00F0142689142F7
:10A360003FF628AF13F0800F4FF01C0340F0278119
:10A3700003FB01020025134602F5FE7283F8FD512E
:10A3800000231170937090F8BC33012B3FF412AF8F
:10A390000121036880F8BC1355781178012D0CBF9A
:10A3A00003F5106303F5306303EB4113196821F4DF
:10A3B00000111960D278023A012A03D81A6842F0D3
:10A3C00080521A60002380F8BC33F3E6037C002B34
:10A3D0007FF474AED0F88C320DF106001B6B9847F9
:10A3E00007234370BDF806306BB1B4F88622002A0B
:10A3F0003FF4E0AE9A420146204628BF1A46ADF827
:10A400000620FEF733FFB4F88632002B7FF44CAE03
:10A41000D0E6037C002B7FF451AED0F88C320DF1E6
:10A4200006005B6B9847DDE7F6B2052E3FF646AEB9
:10A43000DFE806F0302820184038037C002B40F07D
:10A440009F80D0F88C320DF106009B6A984702235A
:10A450004370C7E7D0F888320DF10601007C1B6815
:10A460009847BFE7D0F888320DF10601007C1B69E0
:10A470009847B7E7D0F888320DF10601007CDB6819
:10A480009847AFE7D0F888320DF10601007C9B6851
:10A490009847A7E7D0F888320DF10601007C5B6889
:10A4A00098479FE7D0F888320DF10601007C9B6940
:10A4B000984797E7D0F888320DF10601007C5B6978
:10A4C00098478FE74D063FF4F9ADFFF77DFB204637
:10A4D0008021FFF779FBE7E5882A01204A067FF40F
:10A4E000EDAD1B064FF000034FF002024CBF00F130
:10A4F000140100F5A0710B60FEF7B8FED4E5032B44
:10A500007FF4DCAD011DFEF7B1FECDE59B69002BAC
:10A510003FF4D4AD01F07F035A1C02EB820200EB42
:10A520008202002B3FF428AED0F8A8121C2000FBBA
:10A53000031393F83E30002B3BD0012313601DE63C
:10A540007EB3416801293FF435AEC9B2FEF7A8FBDE
:10A5500095F86C1220466160FEF7AAFB02287FF492
:10A5600029AEABE5002E3FF425AE01210323416067
:10A5700080F87432FEF79CFB02287FF41BAE9DE549
:10A58000D0F88C320DF10600DB6A98470223437045
:10A5900028E7D0F8A8321C2000FB013393F8FE31E5
:10A5A000C9E702233146466080F87432FEF778FB33
:10A5B00000E61360E2E5012384F8743274E503FBDE
:10A5C0000102012513463C3283F83D50D8E600BF16
:10A5D000F0B5002383B00E460446ADF806300B7884
:10A5E000D0F8A07213F0600522D0202D19D14A783E
:10A5F000FE2A11D0FF2A14D14A8892B9CD8885B994
:10A600001B060ED44FF4807107F503721F233981A6
:10A610000121FEF73BFE08E04D8815B9CE88012EDA
:10A6200073D020460225FFF72BFB284603B0F0BD70
:10A630004B780B2BF5D801A252F823F07BA600082B
:10A64000A3A6000823A6000823A6000823A6000846
:10A6500023A6000823A6000823A6000823A60008B6
:10A6600023A6000891A600086DA6000890F8743291
:10A67000032BD6D18B787B60D7E790F87422032A1E
:10A68000CFD102220DF106011D46FEF7EFFDCCE70A
:10A6900090F87432032BC4D1391D0122FEF7E6FD78
:10A6A000C3E70979D0F8A80209F0F4FC3179D4F8AD
:10A6B000A80209F045FDB38896F9042003F00F03C2
:10A6C000002A4FF0000203EB830304EB83032ADB31
:10A6D000C3F84421237C9BBB4FF400730222012169
:10A6E0002046FEF75BF90123C4F85831D4F8A07274
:10A6F0007B7A022B32D03279D20996D0012B94D0BA
:10A7000020460121FEF74EFE8FE71A0689D5D0F8C4
:10A71000A4329B69984703463246204639463B603F
:10A72000FEF7A4FD81E79A61237C83B94FF400739F
:10A73000022281212046FEF731F90123E362D5E7A9
:10A740004023022201212046FEF728F9CBE74023CF
:10A75000022281212046FEF721F9EEE720468121E1
:10A76000FFF732FA00237B725FE700BF38B504467B
:10A7700000250121D0F8A80209F0E2FC8121D4F8DB
:10A78000A802C4F8585109F0DBFCD4F8A002E56235
:10A7900053F01AFD2846C4F8A05238BD38B5044617
:10A7A0008321D0F8A802002509F0CAFCD4F8980249
:10A7B000656518B153F008FDC4F89852002038BD03
:10A7C00038B5044600258121D0F8A80209F0B8FC6C
:10A7D0000121D4F8A802E56209F0B2FCD4F8A8027D
:10A7E0008221C4F8585109F0ABFCD4F890322564AA
:10A7F0004BB1D4F894325B689847D4F8900253F088
:10A80000E3FCC4F89052002038BD00BF70B5037C53
:10A81000044601259BBB4FF4007302222946FEF734
:10A82000BDF84FF40073C4F858510222812120462C
:10A83000FEF7B4F8E5624FF41B7053F0BDFC05461B
:10A84000C4F8A00220B30026D4F8A4320681304612
:10A85000A5F85C621B6898470121D4F8A80209F0AA
:10A8600019FC8121D4F8A80209F014FC05F5037243
:10A8700020461F230121FEF709FD304670BD40230D
:10A8800002222946FEF78AF84023C4F85851CCE743
:10A89000022070BD10B50823032283210446FEF771
:10A8A0007DF801231020636553F086FCC4F89802FC
:10A8B00018B103460020187310BD022010BD00BF60
:10A8C0002DE9F041037C04460125BBBB4FF4007326
:10A8D00002228121FEF762F829464FF4007302221A
:10A8E0002046E562FEF75AF8C4F858514FF00108C7
:10A8F0000823032282212046FEF750F84FF4077008
:10A90000C4F8408053F058FC0546C4F8900258B390
:10A91000D4F8943200271B689847267CC5F8147237
:10A920004146D5F804222046C5F81872AEB140233E
:10A930003E46FEF7ABFC3046BDE8F08140230222E4
:10A940008121FEF72BF82946402302222046E562AA
:10A95000FEF724F8C4F85851C8E74FF40073FEF727
:10A9600095FC3046BDE8F0814646E4E7154BDB68D0
:10A97000C3F3022310B4C3F107041A1D042C28BF2B
:10A980000424062A4FF0FF328CBF033B0023A24071
:10A99000002821EA020101FA03F108DB09010A4B50
:10A9A000C9B2034483F800135DF8044B704700F00C
:10A9B0000F000901054BC9B2034419765DF8044B39
:10A9C000704700BF00ED00E000E100E0FCEC00E0BB
:10A9D00030B5264C0022264841F28731D4F8643243
:10A9E00083B0244DA0FB030304F51C70C4F870521F
:10A9F000DB0C013BC4E99F12C4E99D3209F0BCFAAB
:10AA00001D4B062137201A6C42F020021A641B6C81
:10AA100003F020030193019BFFF7A8FFD4F87032E5
:10AA20004FF400001549164A4860D96841F0010109
:10AA3000D96099680A40062A06D0B2F5803F03D053
:10AA40001A6842F001021A600E4B00200E49D3F83A
:10AA5000B02F03F5A464C3F81C05C2F81002C3F8B4
:10AA60001405C2E9811403B030BD00BF882A01205B
:10AA700083DE1B43001400400038024000E100E088
:10AA80000700010090190120382D012038B50F4B27
:10AA90000F4AD3F86432A2FB03239B09013BB3F1B5
:10AAA000807F10D20B4A0024F0200B490725536009
:10AAB00081F82300214694604FF0FF301560FFF7C6
:10AAC00055FF204638BD012038BD00BF882A01202F
:10AAD000D34D621010E000E000ED00E043090122D8
:10AAE00000F01F0084B0013B02FA00F0032B0BD8EA
:10AAF000DFE803F015021E0C124B5A6C02435A6435
:10AB00005A6C10400090009B04B070470D4B1A6BBC
:10AB100002431A631A6B10400390039BF4E7094B3E
:10AB20005A6B02435A635A6B10400290029BEBE748
:10AB3000044B1A6C02431A641A6C10400190019B7A
:10AB4000E2E700BF0038024018B1002220213BF0AC
:10AB50008FBB70472DE9F0416C4C00234FF4F0722D
:10AB60002021064604F6B42084F8B03A53F05CFB8A
:10AB700004F694404FF4F072202153F055FB94F802
:10AB8000750E10B194F8762E1AB900252846BDE846
:10AB9000F0813BF043FC0746C4F8840E3BF080FD97
:10ABA00005460028F1D00FB12323FB800D21384644
:10ABB0003BF01AFCD4F8840E3BF086FD94F8760E38
:10ABC000534F013840B23CF0C5FD02232021C4F8A8
:10ABD0007C0E84F8783E4DF075FFB7F80A134D48A7
:10ABE0003CF040FDD4F8840E3BF068FDFF218C2042
:10ABF0004AF082FD8046D4F8840E3BF065FD0821C2
:10AC0000D4F87C0E4DF05EFFB8F11B0F05D0D4F8E0
:10AC1000840E0025FFF798FFB8E70122D4F8843EA0
:10AC200084F8B02A0BB12322DA80B7F80A13394826
:10AC30003CF018FDD4F8840E3BF040FD40210A2082
:10AC40004AF05AFDFF218A204AF056FD0346D4F807
:10AC5000840EC3F3801384F8883E3BF035FD082151
:10AC6000D4F87C0E4DF02EFF94F8743E012B44D0A6
:10AC7000022B3AD0EBB394F8893E182B09D194F803
:10AC8000882EB7F80A33A4F88C6EA4F88E2EA4F898
:10AC9000903EB7F80A131F483CF0E4FCB7F80A13DB
:10ACA0001C483CF0DFFCD4F8840E3BF007FD022189
:10ACB00000204AF021FDD4F8840E3BF005FD082168
:10ACC000D4F87C0E4DF0FEFE94F8992E94F89A3E3E
:10ACD000C2F1200294F8981EC3F1100384F89B2E51
:10ACE00084F89C3E84F8941E50E71023A7F80A339A
:10ACF000C1E72023A7F80A33BDE7002EF5D094F86A
:10AD0000883E002B14BF10232023EFE7882A012060
:10AD10000000012000390120004870474C2A012022
:10AD2000002800F08F80B0F804C0BCFA8CF3202B10
:10AD3000C3F11F0200F086806F4B2DE9F04F9D1884
:10AD4000DFF8E48185B0036808EB820095F85820AD
:10AD50000024DFF8D8E10192C0F8A01E674A02E0A3
:10AD60000134102C65D04FF0010909FA04F10CEA06
:10AD7000010531EA0C01F3D14FF0030A04FA09F797
:10AD800018684FF00F0B0AFA07F704EA0A0124F0DB
:10AD9000030620EA0700890006F1804618600BFAD6
:10ADA00001F0D3F80CB006F59C362BEA0707DF60FC
:10ADB000DEF8447047F48047CEF84470DEF8447003
:10ADC00007F480470397039FB76827EA00004C4FBA
:10ADD000BB421AD007F58067BB4234D0494FBB4213
:10ADE00035D0494FBB426BD0484FBB4271D0484F22
:10ADF000BB4269D0474FBB4278D0474FBB420CBFE4
:10AE00000727082707FA01F10843B06001341168E9
:10AE1000102C41EA05011160516821EA05015160D9
:10AE2000916841EA05019160D16821EA0505D56084
:10AE300099D1019B984498F8E03EF02B0CD805B0CE
:10AE4000BDE8F08F704709FA01F10843DDE70227FA
:10AE500007FA01F10843D8E7F021304B264888F87B
:10AE6000E01ED968019AC1F302210244C1F1070032
:10AE70000B1D92F86840042892F9682028BF04202E
:10AE8000062B4FF0FF338CBF033900218340002A8B
:10AE90006FEA030303F0030303FA01F31EDB204808
:10AEA00001211B0104F01F0485185209DBB201FACD
:10AEB00004F485F8003340F8224005B0BDE8F08F77
:10AEC0000AFA01F10843A0E7052707FA01F1084350
:10AED0009BE7042707FA01F1084396E704F00F0403
:10AEE0001B01104ADBB222441376A8E7062707FAB3
:10AEF00001F1084389E700BF98E40508003C0140E0
:10AF00000000024000080240000C02400010024015
:10AF10000014024000180240001C024000ED00E056
:10AF200000E100E0FCEC00E0882A0120003802404B
:10AF30002DE9F04F002383B0DFF810820D68DFF8B1
:10AF400010E203E00133102B00F0B88001229A4098
:10AF500032EA050405EA020CF4D14C6824F010072B
:10AF6000022F40F0AE80DF0803F0070A4FF00F0B0E
:10AF70000E6900EB87074FEA8A0AD7F820900BFA90
:10AF80000AFB06FA0AF64FEA430A29EA0B094FF0D0
:10AF9000030B46EA09090BFA0AF604EA0B0BC7F899
:10AFA00020906FEA060907680BFA0AFB27EA0606F3
:10AFB0004BEA060606608768C4F3001607EA090B29
:10AFC000CF689E4007FA0AF747EA0B078760476891
:10AFD00027EA020216434660C668E7008A6806EA66
:10AFE000090902FA0AF242EA0902C260AAD5D8F8AF
:10AFF000447023F0030903F003020F2647F480474F
:10B0000009F180499200C8F8447009F59C39D8F8D4
:10B01000447006FA02FA07F480470197444F019EF4
:10B02000B842D9F8086026EA0A061AD007F5806700
:10B03000B8425ED03F4FB84260D03F4FB84262D076
:10B040003E4FB84264D03E4FB84266D03D4FB84202
:10B0500068D03D4FB8420CBF0727082707FA02F215
:10B060001643C9F808606FEA0C07DEF80020E60313
:10B0700003F1010354BF3A404CEA0202CEF800202B
:10B08000A203DEF8046054BF3E404CEA0606E2022A
:10B09000CEF80460DEF8086054BF3E404CEA060675
:10B0A000A402CEF80860DEF80C2054BF3A404CEA07
:10B0B0000202102BCEF80C207FF448AF03B0BDE89D
:10B0C000F08F4FEA430A4FF00309D0F800B0013F78
:10B0D00004EA090609FA0AF9012F2BEA090B06FA14
:10B0E0000AF66FEA090946EA0B0606603FF674AFF6
:10B0F00061E7012707FA02F21643B2E7022707FACF
:10B1000002F21643ADE7032707FA02F21643A8E757
:10B11000042707FA02F21643A3E7052707FA02F20B
:10B1200016439EE7062707FA02F2164399E700BF87
:10B130000000024000080240000C024000100240E3
:10B140000014024000180240001C02400038024077
:10B15000003C0140002807DB00F01F0101234009EB
:10B16000024A8B4042F82030704700BF00E100E007
:10B17000F0B50446006883B0820AA2F58012522A14
:10B1800005D82E4E324492F870500D2D01D903B0DF
:10B19000F0BD2B4A00214CF059FA2A4B02272A4ACB
:10B1A00003EB8510AD01D0F8E81E80F8257F886894
:10B1B0000240062A06D0B2F5803F03D00A6842F06A
:10B1C00001020A601D4421680124204A002320480E
:10B1D00085F8254F01E050F8332091420BD0013320
:10B1E0000E2BF8D101210020FFF7C0FB002003B097
:10B1F000BDE8F040AEE706EBC303012193F9C900B7
:10B2000093F8C9400190FFF7B1FB0198FFF7A2FF47
:10B210001B2C08D101211920FFF7A8FB0D4B4FF083
:10B2200000721A60B3E72E2CB1D101212C20FFF758
:10B230009DFB084B4FF480525A60A8E798E405083C
:10B2400040420F00882A0120070001000000014051
:10B250005CE5050800E100E02DE9F041D0F800E0F0
:10B260000C46DFF8588084B0DEF804501746DFF84B
:10B2700050C0194605EA0805DDF828800646039304
:10B280002C43424644EA0C0CCEF804C009F012FAF2
:10B2900078B931680246039B30468F624021CDF871
:10B2A000008009F037FA003818BF012004B0BDE86B
:10B2B000F081012004B0BDE8F08100BF009800FCDF
:10B2C00000200180F8B5134F04460D460AE09B6943
:10B2D000DB0602D509F0AEF9D0B9D7F8B0315B1B67
:10B2E0000A2B08D823682A460A2120469E69B606FA
:10B2F000EDD50020F8BD636C2021002201200B4316
:10B3000084F84020636484F8411084F84220F8BD3A
:10B310000120F8BD803B01202DE9F84FCB4C0546BC
:10B3200094F8B411D4F8BC01C1F340013BF0D2F958
:10B3300094F8B411D4F8B801C94301F001013BF00D
:10B34000C9F9002D00F0E78005F1FF39C04E4FF03C
:10B350001008C04F5FFA89F9BF4DD4F8BC3133B142
:10B360001A689B8851690B4218BF1B049361D4F87B
:10B37000B83133B11A689B8851690B4218BF1B045E
:10B380009361B4F8C431002B40F0578194F8C61192
:10B39000D4F8C8013BF09EF9FA204FF47A714FF0CF
:10B3A000010C7B68C3F30803002B40F01981EFF315
:10B3B0001183002B40F01481D6F8CC2FD5F808E08B
:10B3C000D6F8CC3F9A42F7D1D4F8EC319E45F3D869
:10B3D000D4F8E8A101FB0AF3A3EB0E03B3FBFAF3E5
:10B3E00001FB02327B68C3F30803002B40F0B680F8
:10B3F000EFF31183002B40F0B180D6F8CC3FD5F8A5
:10B4000008B0D6F8CCEF7345F7D1D4F8ECE1F345AA
:10B41000F3D8D4F8E8A101FB0AFEAEEB0B0EBEFB9D
:10B42000FAFE01FB03E39B1AB3F57A7FDAD3013806
:10B43000B7D1D4F8BC3133B11A689B8851690B423B
:10B4400018BF1B049361D4F8B83133B11A689B88D4
:10B4500051690B4218BF1B049361B4F8C431002B2F
:10B4600040F0DF8094F8C611D4F8C80181F00101E2
:10B470003BF030F9FA204FF47A714FF0010C7B6801
:10B48000C3F30803002B40F08A80EFF31183002BF5
:10B4900040F08580D6F8CC2FD5F808E0D6F8CC3F20
:10B4A0009A42F7D1D4F8EC319E45F3D8D4F8E8A10C
:10B4B00001FB0AF3A3EB0E03B3FBFAF301FB023229
:10B4C0007B68C3F3080343BBEFF311832BBBD6F8B0
:10B4D000CC3FD5F808B0D6F8CCEF7345F7D1D4F807
:10B4E000ECE1F345F3D8D4F8E8A101FB0AFEAEEB9A
:10B4F0000B0EBEFBFAFE01FB03E39B1AB3F57A7F4A
:10B50000DED30138BBD109F1FF395FFA89F9B9F10E
:10B51000FF0F7FF422AFBDE8F88FEFF3118A88F3B5
:10B520001288D5F808B02B68DB0303D5C4F8E4C152
:10B53000D5F808B0D6F8CC3F5FFA8AFAD4F8E4E13F
:10B540008AF31188D4F8E8A1734401FB0AFEAEEB3C
:10B550000B0EBEFBFAFE01FB03E3CEE7EFF3118A0D
:10B5600088F31288D5F808B02B68DB0303D5C4F83C
:10B57000E4C1D5F808B0D6F8CC3F5FFA8AFAD4F81F
:10B58000E4E18AF31188D4F8E8A1734401FB0AFED0
:10B59000AEEB0B0EBEFBFAFE01FB03E343E7EFF35A
:10B5A000118E88F31288D5F808A02B68DA0303D52A
:10B5B000C4F8E4C1D5F808A0D6F8CC3F5FFA8EFEF7
:10B5C000D4F8E4218EF31188D4F8E8E11A4401FBA1
:10B5D0000EF3A3EB0A03B3FBFEF301FB02326FE7AA
:10B5E000EFF3118E88F31288D5F808A02B68DA03E0
:10B5F00003D5C4F8E4C1D5F808A0D6F8CC3F5FFA6B
:10B600008EFED4F8E4218EF31188D4F8E8E11A44D0
:10B6100001FB0EF3A3EB0A03B3FBFEF301FB0232C3
