:020000040800F2
:100000000000012099E5050819E605084D9404084B
:10001000B194040819E6050819E605080000000077
:1000200000000000000000000000000019E60508C4
:1000300019E605080000000019E605080554040843
:1000400019E6050819E6050819E6050819E6050880
:1000500019E6050819E60508ED9F040819A104082A
:10006000DDA00408A1A0040865A004080DCD0508C2
:10007000FDCC0508EDCC0508DDCC0508C9CC05088C
:10008000B5CC0508A1CC050819E6050819E6050850
:1000900019E6050819E6050819E6050829A0040867
:1000A000E5A705086DA80508D5A7050895A80508C2
:1000B0005DA805084DA805083DA8050819E605082E
:1000C00019E6050845CF050869CF050819E60508B2
:1000D00019E605084D5B04080559040819E60508EA
:1000E000B19F040819E6050819E60508C5A7050823
:1000F000F5A7050819E605081DA805088DCC050813
:1001000019E6050819E605082DA8050819E60508E9
:10011000BD5604087554040819E60508F9F10008ED
:1001200079CC050865CC050851CC05083DCC0508FF
:1001300029CC0508000000000000000000000000BD
:1001400000000000000000000000000091F6000820
:1001500015CC050801CC0508EDCB050819E6050806
:1001600019E6050819E6050819E6050819E605085F
:1001700019E6050819E60508000000000000000067
:1001800019E6050819E6050819E6050819E605083F
:1001900019E6050819E605080000000019E605083B
:1001A00000000000000000000000000019E6050843
:1001B00019E6050819E60508000000000000000027
:1001C000000000000000000000000000000000002F
:1001D00000000000000000000000000019E6050813
:0801E000F0E005000100000041
:1001E8000E020100020000002C4A01208C4A012066
:1001F800000000006809000823200100100000002A
:1002080080490120904A012000000000FD250208D5
:100218000D1001004000000034490120A04A0120CF
:100228000000000041F003080400080080000000FE
:1002380074480120E04A012000000000000000008E
:10024800FD0101001E00000030480120604B012024
:10025800000000001F2C0408FB0101000100000041
:10026800EC470120804B012000000000B939050847
:10027800FC01010009000000B8460120844B012060
:1002880000000000C9390508F70101000600000058
:10029800AC460120904B0120000000006A090008CC
:1002A800F901010004000000A8460120984B012034
:1002B80000000000C92C04080A8001002800000082
:1002C800804601209C4B012000000000E924020820
:1002D800160215003F000000642A0120C44B0120CB
:1002E800000000009D3A05083400010010000000DD
:1002F800AC450120044C0120000000002DBB020881
:10030800110201000800000084450120144C01205E
:10031800000000007009000812120100040000002B
:100328007C4501201C4C01200000000078090008D1
:10033800182001003200000048450120204C01200F
:10034800000000000D3B0508061001001C0000001D
:10035800482A0120544C012000000000E939050812
:1003680012200100210000003C440120704C0120B3
:10037800000000007C090008000201000B000000DA
:1003880078410120944C012000000000E933050861
:10039800FF110100060000001C410120A04C0120B3
:1003A800000000009933050808120400140000003A
:1003B80028410120A84C012000000000F133050865
:1003C8001302010004000000442A0120BC4C012053
:1003D800000000009E090008FA0101000300000067
:1003E800D8400120C04C012000000000CD33050892
:1003F8000202010003000000BC3D0120C44C0120A2
:1004080000000000000000000C02010004000000D1
:10041800983D0120C84C012000000000B5330508B4
:10042800FE01010014000000943E0120CC4C012084
:1004380000000000493305080B3001001A000000D5
:1004480008670120F869012000000000A4090008DD
:100458001F30010024000000D0660120146A01202A
:1004680000000000C00900080502010004000000A7
:10047800B4670120386A012000000000E409000880
:10048800030101000A000000706601203C6A012097
:1004980000000000A1240108010201000B00000077
:1004A800F47401202C78012000000000D9330508DD
:1004B8001B02010010000000E074012038780120C0
:1004C800000000005D3405081B1001000C0000004E
:1004D800246E01204878012000000000E9BE0108D0
:1004E80021020100F0000000A46C012054780120D2
:1004F8000000000059A001082312010010000000AC
:10050800147201204479012000000000E809000865
:10051800371001002E0000005C740120547901207E
:1005280000000000F809000816100100060000008D
:100538000C7201208479012000000000260A0008BE
:100548002F10010022000000087801208C7901207A
:10055800000000002C0A00081E000100090000002D
:1005680020710120B0790120000000004E0A000827
:10057800051001000600000088710120BC790120E7
:1005880000000000580A0008F5810100680000001A
:10059800346C0120C4790120000000004DAE010830
:1005A800FD070100760000007A6B01202C7A0120FB
:1005B80000000000558A0108261001000E00000006
:1005C800B47A0120A47A012000000000C58801083F
:1005D800F62101000C0000003C88012094890120CC
:1005E80000000000600A00081C0202001C00000055
:1005F800E0870120E489012000000000513C050843
:100608002820010018000000FC870120008A012032
:1006180000000000453A0208140001000400000030
:10062800D8870120188A0120000000006C0A000801
:10063800012001000C000000F07E01201C8A01202E
:1006480000000000700A00080EF003009E01000080
:10065800087C0120288A01200000000085A60208E5
:100668001300010004000000EC840120C88B012065
:10067800000000007C0A00080101010004000000DD
:10068800547B0120CC8B01200000000000000000FA
:1006980000010100040000004C7B0120D08B0120E8
:1006A80000000000800A00080201010003000000A9
:1006B800487B0120D48B012000000000D9C3030827
:1006C800220201001C01000038820120D88B012081
:1006D80000000000553A05080C200600CC00000078
:1006E800CC7D0120F48C01200000000099C3030890
:1006F80019000100050000001499012094990120B7
:1007080000000000840A00081A0001000E00000022
:10071800809701209C990120000000008A0A0008A7
:10072800203201000A00000070960120AC990120D7
:100738000000000061A6020815001000700000000B
:10074800BC940120B89901200000000000000000BE
:100758002A00080060000000C8970120289A01209C
:100768000000000039A602082C0004001000000058
:10077800989A0120889A01200000000019A4020814
:100788002B00120024000000CC9A0120A89A012016
:1007980000000000EDA302082920140078000000E2
:1007A800A8920120F09A012000000000000000003B
:1007B8000300010001000000489F0120509F012014
:1007C8000000000000000000031201003D000000CE
:1007D800E09E0120549F012000000000980A0008B4
:1007E80025201E002C010000489C0120949F012018
:1007F80000000000000000001010010002000000CE
:10080800D09B0120C0A0012000000000D60A0008EB
:10081800F821010006000000249C0120C4A001204A
:1008280000000000D80A0008020001000C000000C7
:100838006CA4012000A501200000000000000000B9
:100848002902010040000000B8A301200CA50120E6
:1008580000000000DE0A00080A020100140000007F
:100868002CA301206CA5012000000000F5C403089A
:1008780028020400040000009CA9012018B00120EF
:100888000000000059340508270204000400000095
:1008980098A901201CB00120000000004D34050873
:1008A8001F02080010000000E0A6012020B001206F
:1008B80000000000713305081A0201003C00000026
:1008C800A4A6012030B00120000000009D3B0508CF
:1008D800381001000100000098A501206CB001202B
:1008E800000000001E0B00082700010004000000A3
:1008F800F4B00120F8B0012000000000200B00082F
:10090800070201000200000058BA012070BA012055
:1009180000000000240B00081D0202000600000071
:1009280028BA012074BA012000000000000000006D
:10093800060204001000000030BA01207CBA012031
:1009480000000000813B05081002010001000000C2
:10095800BCD90120B8D9012000000000260B0008EE
:1009680000003F010000000000000000010101013B
:10097800FFFFFFFF0000000100000549464C494702
:1009880048545F424C49545A5F46375F50524F00B3
:10099800000000020000000001000000AE014A0152
:1009A8005E012C0164010100000001000A019A01A6
:1009B800001E0A0000020000000000000001000004
:1009C8000005000001020300000000000000000014
:1009D8000000000000000000008007000000000088
:1009E80000000000000000000000000000000000FF
:1009F80020003200C800D0079600140032002800FA
:100A08004C0440060005500014000F000800640064
:100A18000100010005000A000000F4019600C40965
:100A280000001900000000000000000000000000A5
:100A380000000000000000000000000000000000AE
:100A48000000000000000005010000000000000098
:100A5800200002010000000000000000010000006A
:100A68000202000003000023E8036400040A0001F6
:100A780014001E0008044430410000000000280152
:100A880000007E05EA05B4053200E803D00700003F
:100A9800000000000000000000000000000000004E
:100AA800000000000000000000000000000000003E
:100AB800000000000000000000000000000000002E
:100AC8000000000000000000000000000100000518
:100AD8000101F40114000000000000000000000003
:100AE80000000000000000000000000000000000FE
:100AF80000000000000000000000000000000000EE
:100B080000000000000000000000000000000000DD
:0F0B1800000000000000000020030000003C006F
:100B270000C20100000008000A06000200000040A1
:100B37000100000009026400030100C0320904003B
:100B470000010300000009211101000122360007FE
:100B570005830308000A080B0102020201000904C9
:100B67000100010202010005240010010524010013
:100B77000204240202052406010207058203080075
:100B8700FF09040200020A000000070501024000F5
:100B97000007058102400000CD290108CD28010882
:100BA700AD540108000000002D1E0108095101087D
:100BB700591E0108000000000000000000000000AE
:100BC7000D1E01081D1E0108FD1D0108ED1D010870
:100BD7001A030000000000000000000000000000F1
:100BE70000000000000000000000000004030904EA
:100BF700006002401060024000000000000000009A
:100C0700000B0000000000000000000000000000D2
:100C17000060024028600240010000000000000060
:100C2700060C0000000000000000000000000000AB
:100C37000060024040600240020000000000000027
:100C4700100D000000000000000000000000000080
:100C570000600240586002400300000000000000EE
:100C6700160E000000000000000000000000000059
:100C770000600240706002400400000000000000B5
:100C8700200F00000000000000000000000000002E
:100C9700006002408860024005000000000000007C
:100CA7002610000000000000000000000000000007
:100CB70000600240A0600240060000000000000043
:100CC70030110000000000000000000000000000DC
:100CD70000600240B860024007000000000000000A
:100CE700362F000000000000000000000000000098
:100CF7000064024010640240000000000000000091
:100D070000380000000000000000000000000000A4
:100D17000064024028640240010000000000000057
:100D2700063900000000000000000000000000007D
:100D3700006402404064024002000000000000001E
:100D4700103A000000000000000000000000000052
:100D570000640240586402400300000000000000E5
:100D6700163B00000000000000000000000000002B
:100D770000640240706402400400000000000000AC
:100D8700203C000000000000000000000000000000
:100D97000064024088640240050000000000000073
:100DA70026440000000000000000000000000000D2
:100DB70000640240A064024006000000000000003A
:100DC70030450000000000000000000000000000A7
:100DD70000640240B8640240070000000000000001
:100DE7003646000000000000000000000000000080
:100DF700120100020000004083042A57000201028A
:100E07000301000012010002020000408304405762
:100E1700000201020301000012010002EF0201407B
:100E27008304563200020102030110007D00000016
:100E370045A900086D8D000821930008F593000867
:100E470079940008B9950008BD8B0008A98B0008A4
:100E5700A18B0008010000000000803F0A06000285
:100E6700000000400100000009072000010104C044
:100E770032090400000208065005070581024000F8
:100E8700000705010240000009022000010104C01B
:100E970032090400000208065005070581024000D8
:100EA700000705010240000009022000010104C0FB
:100EB70032090400000208065005070581020002F6
:100EC70000070501020002000A06000200000040B8
:100ED7000100000009022200010100E032090400BC
:100EE7000001030102000921110100012236000758
:100EF70005830308000A000009022200010100E03F
:100F07003209040000010301020009211101000157
:100F170022360007058303080007000009022200A4
:100F2700010100E032090400000103010200092168
:100F3700110100012236000705830308000A00009B
:100F47000A060002000000400100000009074300F4
:100F5700020104C032090400000102020100052455
:100F670000100105240100010424020205240600E3
:100F7700010705820308001009040100020A0000A6
:100F8700000705010240000007058102400000003C
:100F970009024300020100C03209040000010202F5
:100FA70001000524001001052401000104240202A8
:100FB7000524060001070582030800100904010043
:100FC700020A00000007050102000200070581026E
:100FD7000002000009024300020100C032090400B8
:100FE700000102020100052400100105240100018F
:100FF70004240202052406000107058203080010E5
:1010070009040100020A0000000705010240000070
:10101700070581024000000000FF000000000000FB
:101027000000AA550701000001AA550501000008A4
:1010370098290608FF1FFF1F05010905A101A10047
:1010470005010930093109320933093509340936EF
:1010570009371581257F750895088102050919014A
:10106700290815002501950875018102C0C00000F7
:101077000921110100012236002D202D2D202D2DB3
:101087002D2D202D2D2D2D0000000000000000002B
:101097000000000000000000AA550B010000AA553F
:1010A70005010000AA550902000000AA5503009F88
:1010B70001000000C0120000F069012000000000DC
:1010C700C8690120000000000100000000000100C5
:1010D700E0017EFFFFFFFFFFFF000000FFFFFFFFB4
:1010E7000800000014D1060890D006080000000090
:1010F7004DC40308A08601000400000000000000A2
:1011070000000000000000000000000000000000D8
:1011170000000000000000000000000000000000C8
:101127000000000014D106081CD1060800000000CA
:10113700E13C0408E8030000040000000000000090
:101147000000000000000000000000000000000098
:101157000000000000000000000000000000000088
:101167000000000024D10608000000000000000075
:10117700310F00007D000000FF00000000000000AC
:101187000000000000000000000000000000000058
:101197000000000000000000000000000000000048
:1011A70000000000B84E0708000000000000000023
:1011B700650500007D000000FF0000000000000042
:1011C7000000000000000000000000000000000018
:1011D7000000000000000000000000000000000008
:1011E70000000000A8E10608000000000000000061
:1011F700AD1000007D000000FF00000000000000AF
:1012070000000000000000000000000000000000D7
:1012170000000000000000000000000000000000C7
:10122700000000002CD106080000000000000000AC
:1012370005340408E8030000030000000000000074
:101247000000000000000000000000000000000097
:101257000000000000000000000000000000000087
:101267000000000030D10608000000000000000068
:101277006D2E030810270000030000000000000087
:101287000000000000000000000000000000000057
:101297000000000000000000000000000000000047
:1012A70000000000C04A070800000000E19F020894
:1012B700019504085F7600000500000000000000AB
:1012C7000000000000000000000000000000000017
:1012D7000000000000000000000000000000000007
:1012E700000000005C4E070800000000000000003E
:1012F70089AB04081027000001000000000000006F
:1013070000000000000000000000000000000000D6
:1013170000000000000000000000000000000000C6
:10132700000000003CD1060800000000000000009B
:101337002D2B0408E8030000050000000000000052
:101347000000000000000000000000000000000096
:101357000000000000000000000000000000000086
:101367000000000048D1060800000000000000004F
:1013770049C70308204E00000300000000000000DA
:101387000000000000000000000000000000000056
:101397000000000000000000000000000000000046
:1013A7000000000058D106080000000000000000FF
:1013B70031C50308204E00000300000000000000B4
:1013C7000000000000000000000000000000000016
:1013D7000000000000000000000000000000000006
:1013E7000000000068D106080000000000000000AF
:1013F70045390408400D0300030000000000000009
:1014070000000000000000000000000000000000D5
:1014170000000000000000000000000000000000C5
:101427000000000078D1060800000000000000005E
:1014370079F40308102700000100000000000000F5
:101447000000000000000000000000000000000095
:101457000000000000000000000000000000000085
:1014670000000000BCD006080000000000000000DB
:10147700BDCA01081027000003000000000000009B
:101487000000000000000000000000000000000055
:101497000000000000000000000000000000000045
:1014A7000000000080D106080000000000000000D6
:1014B700BD820208A08601000100000000000000B4
:1014C7000000000000000000000000000000000015
:1014D7000000000000000000000000000000000005
:1014E7000000000088D1060800000000000000008E
:1014F7008532040850C3000001000000000000000E
:1015070000000000000000000000000000000000D4
:1015170000000000000000000000000000000000C4
:101527000000000090D10608000000000000000045
:10153700752E0408A86100000100000000000000EB
:101547000000000000000000000000000000000094
:101557000000000000000000000000000000000084
:10156700000000009CD106080000000000000000F9
:10157700C1590208A0860100010000000000000018
:101587000000000000000000000000000000000054
:101597000000000000000000000000000000000044
:1015A70000000000A8D106080000000000000000AD
:1015B70029620408A00F00000100000000000000DD
:1015C7000000000000000000000000000000000014
:1015D7000000000000000000000000000000000004
:1015E70000000000B4D10608000000000000000061
:1015F700D1070208102700000100000000000000CA
:1016070000000000000000000000000000000000D3
:1016170000000000000000000000000000000000C3
:1016270000000000C0D10608000000000000000014
:10163700F1FF01081A41000001000000000000004E
:101647000000000000000000000000000000000093
:101657000000000000000000000000000000000083
:1016670000000000C4D106080000000000000000D0
:10167700D924010810270000010000000000000025
:101687000000000000000000000000000000000053
:101697000000000000000000000000000000000043
:1016A70000000000A4D006080000000000000000B1
:1016B7002D63020850C30000010000000000000075
:1016C7000000000000000000000000000000000013
:1016D7000000000000000000000000000000000003
:1016E70000000000D0D10608000000000000000044
:1016F700192D0108400D0300000000000000000044
:1017070000000000000000000000000000000000D2
:1017170000000000000000000000000000000000C2
:1017270000000000D8D106080000000000000000FB
:1017370089C40308400D03000000000000000000FA
:101747000000000000000000000000000000000092
:101757000000000000000000000000000000000082
:1017670000000000E0D106080000000000000000B3
:101777009D13020850C30000030000000000000092
:101787000000000000000000000000000000000052
:101797000000000000000000000000000000000042
:1017A70000000000ECD10608000000000000000067
:1017B700BDD2030840420F000000000000000000F7
:1017C7000000000000000000000000000000000012
:1017D7000000000000000000000000000000000002
:1017E70000000000F8D1060800000000000000001B
:1017F70021CB030850C300000000000000000000D8
:1018070000000000000000000000000000000000D1
:1018170000000000000000000000000000000000C1
:101827000000000001FF010001000000491B020841
:101837000000000000000000C8310608000000009A
:101847000000000000000000784B060800000000C0
:101857000000000000000000304C060800000000F7
:101867000000000000000000DC4B0608000000003C
:1018770000000000CD2E020839810120010100007F
:10188700D54602080000000000000000044D0608CD
:10189700FD4902080000000000000000BC4C0608DB
:1018A7002D202D2D202D2D2D2D202D2D2D0000000F
:1018B7000000000000000000000000000000000021
:1018C700FFFFFFFF91330208000000000000000047
:1018D700084B060801000000FA00000001000000A4
:1018E70001000000010000000001010100000000EC
:1018F700E87E01200000F40101000000E67E0120DF
:101907000000F40101000000E47E01200000F40162
:1019170001000000E27E01200000F4010100000048
:10192700E07E01200000F40101000000DE7E0120BE
:101937000000F40101000000DC7E01200000F4013A
:101947000100000035230208F92202080000000008
:1019570088370608CC7E012005320100DA7E012097
:101967006400F40101000000D87E01206400C4096E
:1019770001000000CA7E0120E803D0070100000033
:10198700C87E0120E803D00701000000C67E0120C1
:10199700E803D00701000000C47E01201E00B80B39
:1019A70001000000D27E012005000F0001000000A9
:1019B700D47E012003000A0001000000C27E01203E
:1019C7001E00F40101000000D67E01200200000085
:1019D70014380608C07E01201400640001000000CE
:1019E700CE7E01203200E80301000000BE7E012008
:1019F7000000C80001000000C97D012000C80100E7
:101A0700C87D012000500100C77D0120005A010058
:101A1700C57D01200200000020380608E8D8060826
:101A2700F0D80608D64901200100C40900000000CB
:101A3700D44901200100C40900000000D249012057
:101A47000100C40900000000D04901200100C409B9
:101A570000000000CC4901200100C409000000007B
:101A6700CE4901200100C40900000000CA49012035
:101A77000100C40900000000C84901200100C40991
:101A870000000000737B012000C80100727B012069
:101A970000C80100707B01200000FFFF0A00000062
:101AA7006E7B01200100C800010000006C7B012053
:101AB70032003075320000006A7B01207EFF14007F
:101AC70005000000687B012005002C0105000000CF
:101AD700667B0120055A0500637B012000FF01009A
:101AE700657B012002000000FC0E0120617B0120C4
:101AF70003000000E42B0608627B012000FF0100C1
:101B0700647B012002000000FC0E0120607B0120A5
:101B170003000000E42B06088922020819220208A4
:101B2700000000002C380608007F0120EE02CA08DA
:101B370001000000FE7E012000C8010064000000D3
:101B4700FD7E012000C8010064000000FC7E01202A
:101B570002000000383906085A7B01200000803E49
:101B670005000000587B012080C1803E0500000071
:101B7700527B01200083007D05000000507B01207F
:101B870080C1803E050000004B7B012000FF010063
:101B9700447B01206400F40101000000427B012026
:101BA7000400000044390608417B012002000000C0
:101BB70058390608F97B01200D0000006439060832
:101BC700F67B012000640100F47B0120320010271E
:101BD7000A000000F27B01200D00000064390608AE
:101BE700F17B01200D00000064390608F07B01201D
:101BF700020000009C3906080000000000000000F9
:101C070000000000A8390608067F01203E000000FA
:101C1700E0390608047F01200100FF7F0100000072
:101C2700037F012002000000DC3A0608FB7B01204D
:101C370003000000EC3A0608FA7B012003000000CD
:101C4700EC3A0608B67D0120000A0100B47D0120A8
:101C57000000E80301000000B27D01200000E80356
:101C670001000000B07D01200000E8030100000032
:101C7700AE7D01200000E80301000000A67D0120E1
:101C87000000E80301000000AC7D01200000E8032C
:101C970001000000AA7D01200000E8030100000008
:101CA700A87D012000140100C47D0120020000006E
:101CB700FC3A0608C27D01200000F4010100000083
:101CC700C07D01200000F40101000000BE7D01205D
:101CD7000000F40101000000BC7D01200000F401B8
:101CE70001000000BA7D01200000A00F01000000E4
:101CF700B87D01200000A00F01000000AB7E01208D
:101D070019640100AA7E012002000000083B0608B2
:101D1700A87E0120E803D0070A000000A67E012064
:101D2700006401000A0000009B7E0120006401009E
:101D37009A7E012000640100A27E01200064010058
:101D47000A000000A17E0120006401000A000000D3
:101D5700A07E0120006401000A000000A57E01208A
:101D670000FF01000A000000A47E012000FF01001F
:101D77000A000000A37E012000FF01000A00000006
:101D87009F7E012001FF01000A0000009E7E0120C6
:101D970001FF01000A0000009D7E012001FF0100F4
:101DA7000A000000047C01200000F401010000008B
:101DB700027C01200000A00F01000000007C012030
:101DC7000000A00F01000000FE7B01200000A00F13
:101DD70001000000FC7B01200000A00F01000000B3
:101DE7008181012000C80100808101200064010079
:101DF7007F810120006401007E81012000640100D1
:101E07007D810120006401007C810120FF08010021
:101E17007B8101200164010081210208452102081C
:101E270000000000143B06088481012001320100F4
:101E37008381012001000000843B06088281012084
:101E4700040000008C3B06087A8101200064010031
:101E5700788101201400E803010000007681012049
:101E6700E80330750A0000007581012000C80100F1
:101E77007481012000C801007381012000C801009E
:101E8700728101200032010086810120004B010090
:101E97008581012004000000A03B06087181012014
:101EA700006401000A000000948101200000D007AF
:101EB700010000008F81012000C801008E810120F0
:101EC70000C801008D81012000C801009281012016
:101ED7000000D007010000008C81012000C801002C
:101EE7008B81012000C801008A81012000C8010000
:101EF700908101200000D0070100000089810120A6
:101F070000C801008881012000C8010087810120E5
:101F170000C80100391F0208211F02080000000045
:101F2700B43B0608ED7B0120005A0100EC7B012041
:101F370000C80100EA7B0120E803D0070100000088
:101F470000000000000000000D2F0208503C0608AA
:101F570049464C494748545F424C49545A5F4637B3
:101F67005F50524F000000005F7B0120000301001B
:101F77005E7B0120000301005D1E0208111E02089E
:101F870000000000A43C0608D11D0208891D0208B4
:101F970000000000403D0608A91E0208753302082C
:101FA70000000000C03D06085C7B01200103010022
:101FB70011240208E5230208000000001841060862
:101FC7000D1D0208C11C0208000000008841060818
:101FD700491F0208DD4F02080000000024420608DE
:101FE7000D3802083D24020800000000CC42060814
:101FF700991F02080000000000000000584306086F
:10200700752002081D20020800000000BC430608D6
:1020170009210208CD2002080000000064440608D8
:1020270085910208BD21020800000000F04406085F
:10203700BD7E012001060100E11F0208AD1F020855
:1020470000000000EC450608BB90020815350208A1
:10205700000000005C460608CD910208DD35020845
:1020670000000000AC470608BC7E01200103010008
:10207700F11E0208C11E0208000000008048060881
:10208700299202080000000000000000E44806084A
:10209700591D02085D330208000000006449060864
:1020A700000000000000000000000000F0490608E2
:1020B700F12102085536020800000000604A0608B0
:1020C700000000000000000000000000784C060837
:1020D700606701209CFF2C0100000000E8830120BD
:1020E700E0150C1700000000CC8001200200000062
:1020F700B04C06083C7B012088136F1701000000D5
:102107003E7B012088136F17000000001A4A012048
:102117000000000000000000184A01200000000035
:1021270000000000164A0120000000000000000027
:10213700144A01200000000000000000124A01209C
:102147000000000000000000104A0120000000000D
:1021570000000000940501200000000000000000BE
:10216700C47A012003000000A04D0608347B01203B
:1021770088136F1701000000AA67012088136F17E3
:1021870000000000011C0208000000000000000021
:10219700B04D0608CD80012001000000044E06085E
:1021A700AC67012001000000104E0608A26701205D
:1021B70002000000184E06080000000000000000A2
:1021C70000000000244E0608E91B0208000000007A
:1021D70000000000C04E06080000000000000000DC
:1021E70000000000144F0608000000000000000077
:1021F70000000000844F0608407B01200200000019
:10220700BC4F0608A6670120E0150C170000000068
:10221700CC8D0120208E0120D60101FFFFFFFFFF9B
:102227000000803F000000000000000000000000E8
:102237000000000000000000000000000000000097
:1022470000000000000000000000803F00000000C8
:1022570000000000000000000000803F00000000B8
:1022670000000000000000000000803F00000000A8
:102277000000000000000000010000000000FA4319
:102287000000FA430000803F89F6030800000000C1
:102297000000000000000000FFFFFFFFFF0000003C
:1022A700000000005CA501200800000000000000FD
:1022B7004CA5012008000000C5890008A98900086D
:1022C7006589000800000000598900084589000851
:1022D7003189000800000000000000000000000035
:1022E7000000000021890008000000001189000893
:1022F700A58E0008B98A0008818A0008958A000817
:10230700398A0008258A0008118A0008499C0008B4
:102317000D89000889880008A9F40008685E0C0088
:1023270002010000A00F0000B80B00000102FFFF30
:1023370001000000FFFF0000B44A07080000080280
:102347000503040000000000BC4A0708010008025A
:102357000504040000000000BCF606080200FE01A8
:1023670001100300000000005CDC060803001402F3
:102377000003000000000000C44A070804001F0211
:102387000200080000000000CC4A070805001F02F1
:102397000201080000000000FFFFFFFF19290108E4
:1023A700792801080552010800000000000000001C
:1023B700D94F01081150010800000000000000007B
:1023C70000000000911D0108811D0108711D010811
:1023D700611D0108E943050815440508D9430508A7
:1023E700A5340508894305083543050895340508CC
:1023F7003C190120E13C0508AD340508A93405085E
:10240700A1340508453E05089D340508993405089B
:10241700D89E0608FFFFFFFF1F0000001C000000FA
:102427001F0000001E0000001F0000001E0000002B
:102437001F0000001F0000001E0000001F0000001A
:102447001E0000001F0000000068214CFF01000073
:10245700F4010000FF00000078A8060800800202CF
:102467001F00000053544D202020202050726F641D
:10247700757420202020202020202020302E30316D
:102487000000000004010000000700000000000039
:102497000000000000020000100000000000000023
:1024A7000000000007000000B0010000020000006B
:1024B70009000000010000009C1901200000000035
:1024C7000000000000000000000000000000000005
:1024D70000000000000000000000000000000000F5
:1024E70000000000000000000000000000000000E5
:1024F70000000000000000000000000000000000D5
:1025070000000000000000000000000000000000C4
:0C251700000000000000000000000000B8
:10252300010000000100000024230020000000003F
:042533002000000084
:082800000000000000000000D0
:10800000026C03463AB11A6CD20608D50022012050
:1080100083F83C207047426480F83C20F3E71A6CF8
:1080200049494A4811401A6841F00201F0B4196404
:108030004168474D21F44031416041685C6821430B
:1080400041605168186921F48071D3F808C0DF6875
:10805000516054689E6A44EA0024AE4254605468F9
:1080600024F040745460506840EA0C0050609068FE
:1080700020F400609060916841EA0701916054D05B
:108080009068DC6A20F07060906091680E439660A2
:10809000906820F040509060916821439160906812
:1080A0009C6920F002009060916841EA440191606F
:1080B00093F82010002941D05468596A44F40064B0
:1080C000481E5460516821F460415160516841EA92
:1080D00040315160D06A0025DC6920F470005E698F
:1080E000611ED0622846D46A44EA0154D46294687E
:1080F00024F400749460946893F8301044EA4124A6
:108100009460946824F480649460916841EA8621C4
:1081100091605D641A6C22F0030242F001021A645D
:10812000002283F83C20F0BC7047916821F0706118
:108130009160916821F040519160B0E7516821F45D
:1081400000615160C6E700BFFDEEFFFF0023014064
:108150000100000F2DE9F04F022389468A462DEDDC
:10816000108B99B0DFEDCABA14930346169004330E
:10817000159217934FEADA06169DDDF85CC04FEAB8
:10818000CA0305EB46111396F0004FF0000B01EB0C
:10819000061437010390A6EB86020194049706EBC0
:1081A000460E04EBC202041D381D06EB86072C4464
:1081B000C6EBC60802972844029D02EB46174FEA19
:1081C000C808ED0001EBC60602954FEA0E150595AD
:1081D0004FEACE050695139D4FEA451E019D95ED8C
:1081E000007AD34492ED005AD7ED004AD945D1ED3B
:1081F000006A50ED013A35EE241AD6ED002A1CED46
:10820000016A73EE875A54ED017A33EEC73A36EEBF
:10821000264A77EEA21A36EE666A77EEE27A74EEB6
:10822000256A71EE812A77EE633A37EEC57A36EE2B
:10823000A22A77EEE47A76EEE26A0CED012A37EEB6
:10824000247A77EE857AD1ED018AC1ED006A74EE69
:10825000655A96ED015AB0EE460A94ED004AA7EE33
:108260002B6AD2ED010AE7EEAB3A74EE456AD7ED20
:10827000012AA7EE6B0A9CED007AD5ED014A34EE97
:10828000054A37EE689A90ED005A36EEE02A76EE0F
:10829000E26A30EEA28A32EE222A76EEA06AF0EE90
:1082A000492A75EE640A37EE287A75EE249AE2EED2
:1082B0006B2A74EEC54AF0EE608AB0EE40AAE6EE94
:1082C000AB4AE6EEAB8AA6EEEBAAF0EE496AB0EE58
:1082D000629A37EE695AE2EE2B6AB0EE432A74EEE8
:1082E00008AAA7EEEB9AA7EEAB2A77EE297A35EE2D
:1082F000617A75EEC89A35EE415A75EEC45A37EE7A
:10830000AABA77EEEA7A37EE011A8CED00BA36EEA9
:10831000287AC1ED017A39EE844A76EEC27A1944A0
:1083200075EE885A9C4435EE215A00ED014A70EEF4
:108330008A0A70EE244AC5ED005A36EE686A80ED6E
:10834000001A72EEA33A85ED015A33EE093A04EDB4
:10835000017A72EE266A87ED006A1D44C6ED000AB6
:108360001844C2ED004AC4ED007A1C44C7ED016A0E
:108370001F44C6ED013A1E4482ED013A1A443FF60D
:108380002EAF139A072A40F2C681039A0EF1080E07
:10839000169F08F108000832029E059D4FF0000864
:1083A00094463A46083608357244069C0499D346EA
:1083B000109207EB0C0208340C310F92BA190E928E
:1083C0007A190D923A190C923A180B927A1809926E
:1083D00007F10C020A9201220892149ADDF824C0D7
:1083E0009044159A0A9F02EBC8020B9EA8EB880ED8
:1083F0000C9D02EBC80192ED00BA0D9C01EBC80286
:10840000D1ED00AA0E9802EBC80192ED00AA01EB93
:10841000C802D1ED009A02EBC80192ED009A01EB7F
:10842000C802D1ED008A0F9902EB0E1E92ED008A70
:10843000109A0EEBC80ADEED017A1192CDED047AA6
:108440000AEBC802DAED017A02EBC80A1291CDED0F
:10845000057AD2ED017A0AEBC802DDF820E0CDED15
:10846000017ADAED017A02EBC80ACDED067AD2ED97
:10847000017A0AEBC802CDED027ADAED017ACDED90
:10848000077AD2ED017ADDE91121CDED037A01E021
:10849000F304353F17ED017ADE44D2ED007A94ED16
:1084A000005AF145D5ED006A37EE274AD0ED004A73
:1084B00077EE677A1CED016A96ED007A91ED001A6D
:1084C00076EE055A36EE872A97ED00DA71EE24EA49
:1084D00076EE453A74EE252A31EE641A35EE466A98
:1084E0003EEE825A74EE655A31EE664A72EE854A65
:1084F00031EE471AB0EE67CA47ED014A34EE077A0B
:10850000D1ED014A31EE261AD0ED016A72EEC52A8C
:1085100095ED014AA7EE6BCA74EEE60A96ED010AE4
:10852000E7EE2B7A92ED017A94ED015A74EEA64AA9
:108530003DEE473ADCED006A70EEC4CA70EEC00A48
:10854000B0EE43EA7CEE80CA74EE001A70EE840A44
:10855000ACEEEBEA36EEC54A3DEE077AB0EE63DAF2
:1085600036EE850AACEEAB3AF0EE4EDAA1EE2BDA3F
:10857000A1EE2B6AE1EE6BDA75EE666AB0EE441A94
:10858000F0EE4CCA37EE405AA0EEAB1AE0EEEBCA62
:10859000E0EEAB6A37EE007A74EEA10A35EEE1FA4E
:1085A00075EEE45A75EE6EFA37EE600A71EEA55A72
:1085B000DDED061A35EE425A7FEE244A3FEE822A5E
:1085C00022EEE1FA61EE80FADDED051A3EEE855A03
:1085D0003EEE066A73EEAD3A21EE82EA73EE4DDAB4
:1085E0003DEE033A24EEE1DADDED071A34EE2C4AD3
:1085F0007CEE266A61EE85CA25EEE1CADDED041A3D
:1086000077EE81EA77EEC17AE9EEA2FADDED032A90
:10861000A9EE80FA9DED030AAAEEA4EADDED014A77
:10862000AAEE82DA9DED012AE8EEA5CADDED025A36
:10863000A8EE85CA9DED025A21EEAD1A62EE832A9C
:108640006EEEE11A27EEC00A64EEA34A26EEC22AB5
:1086500065EE865A24EE455AABEE2E1AEBEE2D1A35
:10866000E8EE272AA8EE030AEAEE264AAAEE232A13
:10867000E9EE045AA9EE065A37EE207A87ED007A21
:108680001F44C2ED00FA82ED01FA1A440CED01EA32
:108690008CED00DA9C44C4ED00CA84ED01CA1C4490
:1086A00081ED001AC1ED011A1944C6ED002A86EDCC
:1086B000010A1E44C0ED005A80ED015A1844C5ED70
:1086C000004A85ED012A1D443FF6E4AE1099089A50
:1086D0000831013210910F99089208310F910E99CB
:1086E00008310E910D9908310D910C9908310C91BA
:1086F0000B9908310B910A9908310A9109990831AF
:108700000991139991427FF468AE149B8A46DB006D
:108710009BB214932EE519B0BDEC108BBDE8F08F21
:10872000124B30B41D686B6A28B943EA014300203C
:10873000AB6230BC7047AC6A013803EB14440BD019
:10874000002303F14002013305EB8202DBB25268E1
:10875000834204EB1244F4D3403044EA014405EB75
:1087600080004460002030BC704700BF001A012028
:10877000037870B42BB30246C0F10105531912F807
:10878000014FDBB2002CF9D101335B000E4C032208
:108790000B8084F8043484F80524017879B102232D
:1087A00000265A1CE518023354FA82F285F80414A4
:1087B000DBB282F8046410F8011F0029F1D170BC0B
:1087C00070470223E2E700BF001A0120F0B40F4B0C
:1087D000C40800F0070700221E5D03EBD005BE4071
:1087E000F6B2C7F1080300278B4228BF0B46C3F13E
:1087F00008049A40C91A46FA04F415F8016F42EACF
:108800000402EED11046F0BC704700BF441F0120A7
:1088100030B5EFF31181802383F312880A4AD2F82E
:108820007835D2F87C45D2F87805D2F87C55CAB2B2
:1088300082F31188013BA84294BF4FF400600020EE
:108840001B1B184430BD00BF001A0120012380F813
:1088500051307047014BD3F880057047001A012052
:1088600001207047024BC3F88425C3F88815704770
:10887000001A0120024BC3F88C25C3F890157047ED
:10888000001A012070477047212870B505D02228B2
:1088900029D0202810D0002070BD0029FBD0072A45
:1088A000F9D1184B18791C685A799B790871002006
:1088B0000C604A718B7170BD0029ECD0072AEAD197
:1088C0001148104B0C680E794D79D0F888258979BC
:1088D0001C601E715D719971002ADCD02146D0F8B0
:1088E00084059047D7E70029D5D0022AD3D1064A7C
:1088F000D2F89035002BCED00988D2F88C05984755
:10890000C9E700BF00000120001A012000207047C5
:1089100003460A2201481A80704700BF0800012060
:108920000346642201481A80704700BF14000120EA
:10893000012901D000207047014BD3F8903018472F
:1089400000000120012901D009F032BA014BD3F80F
:108950008C30184700000120014BD3F888301847AD
:108960000000012010B40B780A46044603F003030C
:10897000012B05D0022B0BD000205DF8044B704773
:108980008B8843B9204611465DF8044B0CF008BDB6
:108990008B88832BF6D0034B5DF8044BD3F88030E3
:1089A000184700BF0000012038B5054B04460D46AE
:1089B000DB6F98472946204609F076FF002038BD36
:1089C0000000012038B5054B04460D469B6F9847C3
:1089D0002946204609F0E4FF002038BD00000120B0
:1089E000F0B4002452004E1C2746030FB0F1204F74
:1089F0004FEA001003F1300503F1370334BF0D5582
:108A00000B5537550234A242EFD1F0BC704700BF7E
:108A1000024808B5FFF7ACFE014808BD78CB060850
:108A2000041E0120024808B5FFF7A2FE014808BD58
:108A300088CB0608041E01200B481A220B4B006845
:108A40001B680A80C01801D109487047094B0822E9
:108A5000094910B51C68FFF7C3FF042207492046E7
:108A6000FFF7BEFF024810BD107AF01F187AF01F02
:108A7000B0000120147AF01FB2000120C2000120D2
:108A8000024808B5FFF774FE014808BD94CB0608FC
:108A9000041E012008B520B90448FFF769FE044808
:108AA00008BD0448FFF764FE014808BDA0CB0608D6
:108AB000041E0120C4CB0608042301480B80704724
:108AC000CC00012098B182680C4B12B107229A7039
:108AD000704718780421DA6003281A611A750CBFF0
:108AE00080224FF480729970C3E901227047034BD2
:108AF000012241F2E4715A705A547047E04C01204F
:108B00000378022B0FD0006908B9012070470E4B83
:108B10001B78032B12D080B24FF6F773984294BFA4
:108B2000002001207047084941F6500243688A58E6
:108B3000B3EB422F2CBF012000207047034B98421B
:108B400094BF002001207047E04C0120F7FFFF0F89
:108B500030B40378022B13D0104A41F64801436821
:108B600041F63C04555802F5C25100692B40096892
:108B7000023812595B0A01FB003030BC10447047C8
:108B8000064B41F6300441F63401426818595958F1
:108B900000EB410030BC00EB52207047E04C01205C
:108BA000004870472C1F0120034B93F82805032829
:108BB00094BF002001207047001A0120034B93F856
:108BC0002805003818BF0120704700BF001A012097
:108BD00010B5094CD4F86025936813F4C05FFBD13D
:108BE00093681B06F8D40A203CF04CFAD4F86805C8
:108BF000BDE8104040F002BC001A01202DE9F84306
:108C0000884600294FD04718461E284C802507F17A
:108C1000FF39EFF3118185F31288D4F87825C9B2B2
:108C2000D4F87C05D4F87835D4F87CC581F3118864
:108C3000634594BF4FF400630023121A1344012BC1
:108C40001AD101203CF03AFBEFF3118185F3128831
:108C5000D4F87825C9B2D4F87C05D4F87835D4F89E
:108C60007C7581F31188BB4294BF4FF400630023ED
:108C7000121A1344012BE4D0EFF3118285F312880A
:108C8000D4F87C35D2B216F8011F234483F894152A
:108C9000D4F87C350133C3F30A03C4F87C3582F37E
:108CA00011884E45B5D14046BDE8F883001A012031
:108CB000F8B5002390F8505080F85030DDB11049DD
:108CC00041F208028A5C032A17D10E4E00F13C04DF
:108CD00056F8B87C29462046FFF790FF56F8B83C76
:108CE0002D1A0444DB1B322B01D8002DF2D1B5FA2A
:108CF00085F04009F8BD0120FCE71846FAE700BFFF
:108D0000001A0120F82A0120002280F85120CFE724
:108D100090F85020531C0244DBB280F8503082F8A7
:108D20003C1090F851200AB1132B00D9C0E77047CE
:108D3000F8B5144641F208030A4A0D46D35C032BEA
:108D40000FD1094E56F8B87C002C0ADD2146284682
:108D5000FFF754FF56F8B83C241A0544DB1B322BAE
:108D6000F2D9F8BD001A0120F82A01202DE9F041BE
:108D70004379484C002B14BF0122002284F854256B
:108D800003D184F82835BDE8F08190F801800546CC
:108D90000F4608F1FF3676B2304641F075FB0223EC
:108DA000C4F8600584F85C352B78002B45D1ED784C
:108DB000BDBB4FF48071D4F86005C4F8685553F01A
:108DC0009BF84FF47A703CF079FAD4F8680540F0DB
:108DD00015FB00220A23D4F86005114653F0A8F9C8
:108DE000D4F860152C4B8A6812F4C05F0FD18A68E2
:108DF00012F080020BD1294B012184F81C2553F875
:108E0000B83C84F82815C4F81835BDE8F081013B5A
:108E1000E9D194F81C2584F82835531C84F81C35B6
:108E2000B1E7284640F094F9054608B11E23C380F7
:108E30000D21284640F072F9BBE706EB8606414655
:108E400000203E4496F903203DF080F9064630B1FB
:108E500040683DF06BF9B26884F8742518B90023B6
:108E600084F86C35A3E7431E0D4A02F1D00102EBF2
:108E7000431201EB431392F8E810C4F8703500294F
:108E8000EDD11723A2F8E83052F070FB012384F8EB
:108E90006C358CE7001A0120A1860100F82A012018
:108EA0000000012010B503200C4652F095FF032866
:108EB0000AD0074B13F8B43C012B4FF012030CBF40
:108EC00004480548238010BD12230448238010BDA8
:108ED000F82A0120F8020120E4020120D00201203A
:108EE0002DE9F04FDFF81883BA4D4446DFF824939C
:108EF0002DED068B89B0CDE9060105920FCD0FC48B
:108F00000FCD0FC495E8070019F8AE3C84E80700C0
:108F1000042B00F20C81DFE813F037010A01050190
:108F2000050045019FEDAC8A9FEDAC9AAC4AAD4B74
:108F30000598AD49002818BF1346AC4AC8E9062178
:108F400039EE087ADFEDAA7AF5EE006AA94A28EE32
:108F5000278AA94EB0EE67AA02F11507C6EE879AD6
:108F60000025DFEDA68A0292C8F82430079BAB42A9
:108F700000F0D280029B05F1010B13F8014B5FFA60
:108F80008BF20293002C00F01B81002103E00131E1
:108F9000152900F0158101EB41004B0017F800C0C6
:108FA000A445F4D1484410F8931CCDE903320029BC
:108FB00000F00E8120463BF0DBFC8246006851F059
:108FC00085FD9AF805103BF011FD0078002840F06F
:108FD000F7804FEA141E039B04F00F0C049A0EF165
:108FE000FF3409EB03010323052C01F8532C01F88E
:108FF000543C00F2C580774901EB4401888D40FA6A
:109000000CF111F0010100F0BD800121039201FA81
:109010000CF10139084055F047F96E4BDFF8F8C103
:1090200002211C44039A032394F8384020440CEB9B
:10903000C00070618371C2719AF808203FF0B2FFDE
:10904000059B002B78D039F8B03C19F8AE1C07EE20
:10905000903AD9F8D8320429F8EEE77AFCEEE77AAC
:1090600017EE900AB3FBF0F202F57F4202F1FF0225
:109070004FEA1242B3FBF2F2B2FBF0F083B270D0CF
:1090800007EE902AF8EE676A66EE887A28EEE77AAD
:1090900019F8AD0C069901903046A9EE267A009198
:1090A0005146C6ED027A86ED037A33F04DFD002D70
:1090B00062DD7368D8F8382093425FD0012D5BD011
:1090C000D8F85020934259D0022D55D0D8F86820B6
:1090D000934253D0032D4FD0D8F8802093424DD0E7
:1090E000042D49D0D8F89820934247D0052D43D07D
:1090F000D8F8B020934241D0062D3DD0D8F8C820F2
:10910000D31A18BF01235D46012233741836082D87
:1091100006F8072C7FF42AAF394809B0BDEC068B5E
:10912000BDE8F08F9FED378AB0EE489AFEE69FEDDE
:10913000368AB0EE489AF9E6FAFE697AFCEEE77AEA
:10914000D9F8D8124FF6FF7317EE902A1846B1FBE4
:10915000F2F21A44120CB1FBF2F219F8AE1C042917
:109160008ED107EE900A07EE102AF8EE677AF8EE35
:10917000476A67EE8A7A89E70123C4E70023C2E7DA
:1091800070615DE771615BE70023174A01219FED84
:10919000188A0693154BB0EE489A0591C8E9063235
:1091A0000F4BCDE60023104A01219FED188A06934C
:1091B0000E4BB0EE489A0591C8E90632084BBFE65F
:1091C000134A0020064BC8F81C20C8F82430A4E736
:1091D0000B68FFDE681D0608ACC5A737ACC5A7360F
:1091E000AD2C040881BF0308C9C40308B92C0408C6
:1091F0006F12833A4F2A01204800002000007A4471
:1092000014000020282930386F12033900000000B4
:109210006DC20308F82A0120D02A0120024BFF2149
:10922000D3F8600553F07EB9001A012070B5092407
:1092300005460E46FFF7F2FFFF2803D1013CF9D1A6
:10924000012070BDFE2801D0022070BD06483346C3
:109250002A460021D0F8600552F06AFFFFF7DEFFD2
:10926000FFF7DCFF002070BD001A012030B5952308
:1092700083B008240A0E05468DF8053040F0400002
:109280000B0C8DF80410E1408DF800008DF80120E2
:109290008DF802308DF80310FFF7C0FFFF2802D0D1
:1092A000013CF9D175B90949062300220924D1F8F6
:1092B0006005694652F03CFFFFF7B0FFFF2802D17E
:1092C000013CF9D1FF2003B030BD00BF001A0120DE
:1092D000002310B5104CC4F82435FFF79FFFFD2183
:1092E000D4F8600553F01EF9FFF798FFFF2808D166
:1092F000FFF794FFFF2804D10423022084F82835C7
:1093000010BD064A0923002052F8B82C84F82835ED
:10931000C4F8182510BD00BF001A0120F82A01204A
:109320002DE9F8431C4C05468946904694F828657B
:109330001F46042E08D0082E02D00020BDE8F88376
:10934000FFF7C6FF0228F8D1D4F8680540F050F8BE
:1093500094F81E35BBB969021120FFF787FFC0B929
:109360000E4A05230120C4F8049552F8B82CC4F81D
:109370000855C4F81085C4F81475C4F8182584F885
:109380002835BDE8F88329461120FFF76FFF002834
:10939000E6D0FFF71DFCD0E7001A0120F82A0120D3
:1093A00010B50AF06FF8114C58B194F82835032B1A
:1093B00014D894F81C350133DBB2072B84F81C3524
:1093C00003D9002384F8283510BD094B012253F836
:1093D000B83C84F82825C4F8183510BD4FF48071C6
:1093E000D4F8600552F088FDE3E700BF001A0120C1
:1093F000F82A012070B51F4C06460D4694F8283512
:10940000042B09D0082B25D1D4F8203583422FD046
:10941000FFF75EFF02281DD1D4F868053FF0E8FF92
:1094200000213720FFF722FF29461720FFF71EFFF4
:10943000C0B994F81E357BB971021920FFF716FFE9
:1094400080B908230220C4F82455C4F8206584F8A4
:10945000283570BD012070BD31461920FFF706FF89
:109460000028EED0FFF7B4FBFFF79AFF032070BD92
:10947000022070BD001A01202DE9F043054691B08D
:109480000E4690461F464A4C94F8280504280ED0F4
:10949000082808D1D4F82035AB4200F08480FFF7CB
:1094A00017FF0228F0D0012011B0BDE8F083D4F8F6
:1094B00068053FF09DFF94F81E35002B63D16902CB
:1094C0001820FFF7D3FE002867D194F82895FFF7FE
:1094D000A5FEB9F1080F0CBFFC21FE21D4F86005F0
:1094E00053F020F894F86C25002A4ED094F8742597
:1094F0000021D4F860354FF0400E52064FF4806CD6
:109500004FF400700C330A92D4F87025CDF80CE0BB
:10951000CDF818C009900491106805910F91CDE91C
:109520000711CDE90B11CDE90D11117ACDE9013605
:109530000AF076FBD4F8703501AA197A18680AF097
:1095400029FBD4F870351B491A7A1868895CD4F85D
:109550006025435843F001034350536843F002032E
:109560005360012206230020C4F80465C4F808559E
:10957000C4F81085C4F8147584F80C2584F82835CF
:1095800011B0BDE8F08329469AE74FF48073314665
:10959000D4F8600552F0CCFDE3E7FFF719FBFFF7C5
:1095A000FFFE032080E7FFF739FEFC2196E700BFAE
:1095B000001A0120082406082DE9F047CE4C86B099
:1095C00094F85465002E00F0908194F8282504F258
:1095D0004458CA4F531E082B5CD8DFE813F06D00C7
:1095E000970025015B0049000900D6005B00C2001E
:1095F00094F86C25002A40F0838194F80C554FF4C0
:109600008073D4F80415D4F8600501EB052152F0FD
:109610008FFD94F80C350133DBB2022B84F80C3546
:1096200035D1D4F8600500E0C3688368DB07FBD45C
:10963000002152F077FF0021D4F8600552F072FF4C
:10964000FFF7ECFD00F01F00052800F02382FFF774
:10965000A7FED4F81055002D00F0AD810022D4F8FB
:109660001435D4F808150120A84794F82825B1E747
:109670004FF40071D4F80405FFF7D8FD012800F07D
:109680008181022800F08681002800F09A8194F8F8
:109690002825531EDBB2022B00F21D81974BD4F814
:1096A000182553F8B83C9B1AC82B00F250810026AD
:1096B000304606B0BDE8F087D4F868053FF098FE64
:1096C00000210846FFF7D2FD0546FFF781FA012D7C
:1096D000DDD14FF00009D4F8680584F81D953FF0FE
:1096E00087FE40F2AB110820FFF7C0FD052800F00F
:1096F0006581012800F03681FFF76AFA94F81D357C
:10970000002B00F0C381022384F82835D4F86805C3
:109710003FF06EFE94F81D3500213720022B0CBF60
:109720004FF080450D46FFF7A1FD29202946FFF7A0
:109730009DFD0546FFF74CFA002DA8D194F81D3584
:10974000022B00F0638184F81E55D4F868053FF0C1
:109750004FFE00210920FFF789FDB0B3FFF738FA6B
:1097600095E70825FFF75AFDFF2800F0AC81013D81
:10977000F8D1D4F8183557F8B82CFA33934286D27A
:10978000FFF70EFE94F8282524E7FFF747FDFF2892
:109790004FF0080505D0013DEBD0FFF73FFDFF2856
:1097A000F9D1D4F824350022012B84F81C2540F28D
:1097B0009081D4F82025013B08210132C4F82435DA
:1097C00084F82815C4F8202572E710214046FFF7D9
:1097D0002DFD05460028C1D101217F20FEF7F6FFAF
:1097E00001288146BAD128460221FEF7EFFF002862
:1097F00000F02D810128B1D116213A20FEF7E6FFB5
:1098000001308002C4F82C05FFF7E2F9D4F86805AE
:109810003FF0EEFD00210A20FFF728FD002840F070
:109820000F81032384F82835102102A8FFF7FEFCDE
:1098300000287FF42CAF9DF815309DF816201B01F1
:109840009DF809009DF80A5002F00F01DBB245EACD
:109850000025DDF8110043EA12139DF8102000BA2C
:1098600084F8401503F5FA639DF80B10C4F8380529
:10987000A4F83E3513099DF8080002F00F0284F8A1
:109880003C35039BA4F83055C4F8343584F83D25A5
:1098900084F8320584F83315FFF79AF994F81E35E9
:1098A00073B9D4F868053FF0A3FD4FF400711020A0
:1098B000FFF7DCFC0546FFF78BF9002D7FF460AF66
:1098C0000821D4F8600552F017FB00230422C4F8E5
:1098D000243584F82825042A18BF082A0CBF01263D
:1098E0000026304606B0BDE8F087304684F828658B
:1098F00006B0BDE8F08700BF001A0120F82A012059
:10990000D4F87025137C10681F2B73D9203B2022BC
:1099100041689A4011403FF4CAAE1021C26001FA7A
:1099200003F3C360D4F860058368DD0703D5C3681B
:109930008368D907FBD4836813F4C05FFBD18368C5
:109940001A06F8D4436823F0020343606DE6FFF77C
:1099500027FD94F82865082E18BF042E0CBF012699
:109960000026A5E60423494602AAD4F8600552F071
:10997000DFFB9DF80B30AB2B7FF4BEAE022384F8E7
:109980001D35B9E6D4F8183557F8B82C643393422E
:10999000BFF47DAEFFF71CF9FFF702FDD4F81055B8
:1099A0004DB10022D4F81435D4F808151046A84754
:1099B00094F828250EE694F828250BE684F81D5522
:1099C0009AE60190FFF704F904230198D4F81055A2
:1099D00084F81C0584F82835002D3FF469AED4F8CE
:1099E0001435D4F80425D4F80815A84794F8282588
:1099F000531E4FE6202201689A4011403FF457AEB3
:109A00001021826001FA03F383608BE7D4F86805C4
:109A10003FF0EEFC29463A20FFF728FC2946054690
:109A2000042302AAD4F8600552F082FB45B9FFF77F
:109A3000CFF8029B1BBAC3F3807384F81E3584E60B
:109A4000FFF7C6F8FFF7ACFC94F82825C2E504211F
:109A50002C20FEF7BBFE032105464E20FEF7B6FE86
:109A600082460C213620FEF7B1FE0AF1020A431CA1
:109A700009FA05F503FA0AF3A3FB0501430A43EAD1
:109A8000C153C4F82C35FFF7A3F8BFE61E4684F88F
:109A900028350DE6174B0722D4F8106553F8B83C6B
:109AA00084F82825C4F81835002E3FF401AED4F808
:109AB00014350120D4F80425D4F80815B04794F8DB
:109AC0002825531EE6E5FFF783F8042384F828359C
:109AD000EEE508D0042384F82835FFF779F894F8E8
:109AE0002825531ED6E5FFF7F3FB02287FF4CFAD00
:109AF00034E600BFF82A0120154BDB68C3F30223CC
:109B000010B4C3F107041A1D042C28BF0424062A2C
:109B10004FF0FF328CBF033B0023A240002821EA14
:109B2000020101FA03F108DB09010A4BC9B203443F
:109B300083F800135DF8044B704700F00F00090133
:109B4000054BC9B2034419765DF8044B704700BF5A
:109B500000ED00E000E100E0FCEC00E0F0B50446C0
:109B6000006883B0820AA2F58012522A05D82F4ECF
:109B7000324492F840500D2D01D903B0F0BD2C4A6B
:109B8000002150F0F3FE2B4B02272B4A03EB8510EC
:109B9000AD01D0F8DC1280F8197388680240062AFB
:109BA00006D0B2F5803F03D00A6842F001020A6095
:109BB0001D4421680124214A0023214885F81943C6
:109BC00001E050F8332091420CD001330E2BF8D134
:109BD00001210020FFF790FF002003B0BDE8F04016
:109BE00009F062BC06EBC303012193F9990093F8D5
:109BF00099400190FFF780FF019809F055FC1B2C5C
:109C000008D101211920FFF777FF0E4B4FF00072AA
:109C10001A60B2E72E2CB0D101212C20FFF76CFF87
:109C2000084B4FF480525A60A7E700BF681D060832
:109C300040420F00F82A0120070001000000014007
:109C4000FC1D060800E100E030B5284C0022284841
:109C500041F28731D4F8D83283B0264DA0FB0303FC
:109C600004F29C60C4F8A816DB0CC4F8AC26C4F857
:109C7000A426013BC4F89C56C4F8A0360AF004FDA3
:109C80001D4B062137201A6C42F020021A641B6C0F
:109C900003F020030193019BFFF72EFFD4F89C36BD
:109CA0004FF400001549164A4860D96841F0010197
:109CB000D96099680A40062A06D0B2F5803F03D0E1
:109CC0001A6842F001021A600E4B41F22402002091
:109CD0000D499A5803F29454C3F89005C2F8100243
:109CE000C3F88805C2E9811403B030BDF82A012009
:109CF00083DE1B43001400400038024000E100E016
:109D000007000100001A0120D431012038B50F4BA3
:109D10000F4AD3F8D832A2FB03239B09013BB3F1CE
:109D2000807F10D20B4A0024F0200B490725536096
:109D300081F82300214694604FF0FF301560FFF753
:109D4000DBFE204638BD012038BD00BFF82A0120C7
:109D5000D34D621010E000E000ED00E04309012265
:109D600000F01F0084B0013B02FA00F0032B0BD877
:109D7000DFE803F015021E0C124B5A6C02435A64C2
:109D80005A6C10400090009B04B070470D4B1A6B4A
:109D900002431A631A6B10400390039BF4E7094BCC
:109DA0005A6B02435A635A6B10400290029BEBE7D6
:109DB000044B1A6C02431A641A6C10400190019B08
:109DC000E2E700BF0038024018B1002220213FF036
:109DD000E9B870472DE9F8436F4D00234FF4F07256
:109DE000202107466D4C05F56E6085F8DC3E57F086
:109DF00083FE05F586504FF4F072202157F07CFE6B
:109E000094F8A90110B194F8AA211AB90026304695
:109E1000BDE8F8833FF09CF98046C4F8B8013FF0F4
:109E2000D9FA06460028F1D0B8F1000F02D023235A
:109E3000A8F806300D2140463FF070F9D4F8B8017B
:109E40003FF0DCFA94F8AA01DFF85881013840B2FB
:109E500040F01AFB02232021C4F8B00184F8AC3191
:109E600052F04AF8B8F80A134D4840F095FAD4F881
:109E7000B8013FF0BDFAFF218C204EF07BFC8146FB
:109E8000D4F8B8013FF0BAFA0821D4F8B00152F082
:109E900033F8B9F11B0F05D0D4F8B8010026FFF74D
:109EA00093FFB4E70122D4F8B83185F8DC2E0BB16A
:109EB0002322DA80B8F80A13394840F06DFAD4F852
:109EC000B8013FF095FA40210A204EF053FCFF21E3
:109ED0008A204EF04FFC0346D4F8B801C3F3801338
:109EE00084F8BC313FF08AFA0821D4F8B00152F06E
:109EF00003F894F8A831012B44D0022B3AD0EBB3ED
:109F000094F8BD31182B09D194F8BC21B8F80A3364
:109F1000A4F8C071A4F8C221A4F8C431B8F80A1397
:109F20001F4840F039FAB8F80A131D4840F034FAD7
:109F3000D4F8B8013FF05CFA022100204EF01AFC80
:109F4000D4F8B8013FF05AFA0821D4F8B00151F022
:109F5000D3FF94F8CD2194F8CE31C2F1200294F8C9
:109F6000CC11C3F1100384F8CF2184F8D03184F8E8
:109F7000C8114CE71023A8F80A33C1E72023A8F83A
:109F80000A33BDE7002FF5D094F8BC31002B14BF85
:109F900010232023EFE700BFF82A0120F03B012027
:109FA0009C3D01200000012000487047302B01201B
:109FB000002800F08F80B0F804C0BCFA8CF3202B8E
:109FC000C3F11F0200F086806F4B2DE9F04F9D1802
:109FD000DFF8E48185B0036808EB820095F804217E
:109FE0000024DFF8D8E10192C0F8D411674A02E0FA
:109FF0000134102C65D04FF0010909FA04F10CEA84
:10A00000010531EA0C01F3D14FF0030A04FA09F714
:10A0100018684FF00F0B0AFA07F704EA0A0124F058
:10A02000030620EA0700890006F1804618600BFA53
:10A0300001F0D3F80CB006F59C362BEA0707DF6079
:10A04000DEF8447047F48047CEF84470DEF8447080
:10A0500007F480470397039FB76827EA00004C4F37
:10A06000BB421AD007F58067BB4234D0494FBB4290
:10A0700035D0494FBB426BD0484FBB4271D0484F9F
:10A08000BB4269D0474FBB4278D0474FBB420CBF61
:10A090000727082707FA01F10843B0600134116867
:10A0A000102C41EA05011160516821EA0501516057
:10A0B000916841EA05019160D16821EA0505D56002
:10A0C00099D1019B984498F81432F02B0CD805B024
:10A0D000BDE8F08F704709FA01F10843DDE7022778
:10A0E00007FA01F10843D8E7F021304B264888F8F9
:10A0F0001412D968019AC1F302210244C1F1070088
:10A100000B1D92F81441042892F9142128BF042051
:10A11000062B4FF0FF338CBF033900218340002A08
:10A120006FEA030303F0030303FA01F31EDB204885
:10A1300001211B0104F01F0485185209DBB201FA4A
:10A1400004F485F8003340F8224005B0BDE8F08FF4
:10A150000AFA01F10843A0E7052707FA01F10843CD
:10A160009BE7042707FA01F1084396E704F00F0480
:10A170001B01104ADBB222441376A8E7062707FA30
:10A1800001F1084389E700BF681D0608003C014053
:10A190000000024000080240000C02400010024093
:10A1A0000014024000180240001C024000ED00E0D4
:10A1B00000E100E0FCEC00E0F03B01200038024050
:10A1C0002DE9F041D0F800E00C46DFF8588084B06B
:10A1D000DEF804501746DFF850C0194605EA0805B6
:10A1E000DDF82880064603932C43424644EA0C0CD3
:10A1F000CEF804C00BF0CAFE78B931680246039B62
:10A2000030468F624021CDF800800BF0EFFE003821
:10A2100018BF012004B0BDE8F081012004B0BDE802
:10A22000F08100BF009800FC00200180F8B5134FBA
:10A2300004460D460AE09B69DB0602D50BF066FE7C
:10A24000D0B9D7F81C325B1B0A2B08D823682A46E2
:10A250000A2120469E69B606EDD50020F8BD636C44
:10A260002021002201200B4384F84020636484F8FD
:10A27000411084F84220F8BD0120F8BDF03B0120D8
:10A280002DE9F84FCB4C054694F82012D4F828025B
:10A29000C1F340013FF0B8F894F82012D4F824023A
:10A2A000C94301F001013FF0AFF8002D00F0E78055
:10A2B00005F1FF39C04E4FF01008C04F5FFA89F921
:10A2C000BF4DD4F8283233B11A689B8851690B42CC
:10A2D00018BF1B049361D4F8243233B11A689B88E9
:10A2E00051690B4218BF1B049361B4F83032002B44
:10A2F00040F0578194F83212D4F834023FF084F8D9
:10A30000FA204FF47A714FF0010C7B68C3F3080315
:10A31000002B40F01981EFF31183002B40F01481E2
:10A3200056F8B82CD5F808E056F8B83C9A42F7D160
:10A33000D4F858329E45F3D8D4F854A201FB0AF35E
:10A34000A3EB0E03B3FBFAF301FB02327B68C3F30A
:10A350000803002B40F0B680EFF31183002B40F090
:10A36000B18056F8B83CD5F808B056F8B8EC73454B
:10A37000F7D1D4F858E2F345F3D8D4F854A201FB4E
:10A380000AFEAEEB0B0EBEFBFAFE01FB03E39B1ACB
:10A39000B3F57A7FDAD30138B7D1D4F8283233B1A4
:10A3A0001A689B8851690B4218BF1B049361D4F84B
:10A3B000243233B11A689B8851690B4218BF1B04C1
:10A3C0009361B4F83032002B40F0DF8094F8321201
:10A3D000D4F8340281F001013FF016F8FA204FF46E
:10A3E0007A714FF0010C7B68C3F30803002B40F037
:10A3F0008A80EFF31183002B40F0858056F8B82C4B
:10A40000D5F808E056F8B83C9A42F7D1D4F858325B
:10A410009E45F3D8D4F854A201FB0AF3A3EB0E0334
:10A42000B3FBFAF301FB02327B68C3F3080343BBBF
:10A43000EFF311832BBB56F8B83CD5F808B056F8AB
:10A44000B8EC7345F7D1D4F858E2F345F3D8D4F813
:10A4500054A201FB0AFEAEEB0B0EBEFBFAFE01FBA3
:10A4600003E39B1AB3F57A7FDED30138BBD109F140
:10A47000FF395FFA89F9B9F1FF0F7FF422AFBDE828
:10A48000F88FEFF3118A88F31288D5F808B02B689B
:10A49000DB0303D5C4F850C2D5F808B056F8B83C71
:10A4A0005FFA8AFAD4F850E28AF31188D4F854A2F9
:10A4B000734401FB0AFEAEEB0B0EBEFBFAFE01FB82
:10A4C00003E3CEE7EFF3118A88F31288D5F808B0DA
:10A4D0002B68DB0303D5C4F850C2D5F808B056F892
:10A4E000B83C5FFA8AFAD4F850E28AF31188D4F8BB
:10A4F00054A2734401FB0AFEAEEB0B0EBEFBFAFE48
:10A5000001FB03E343E7EFF3118E88F31288D5F8DC
:10A5100008A02B68DA0303D5C4F850C2D5F808A008
:10A5200056F8B83C5FFA8EFED4F850228EF31188AC
:10A53000D4F854E21A4401FB0EF3A3EB0A03B3FB75
:10A54000FEF301FB02326FE7EFF3118E88F31288FE
:10A55000D5F808A02B68DA0303D5C4F850C2D5F8A3
:10A5600008A056F8B83C5FFA8EFED4F850228EF35D
:10A570001188D4F854E21A4401FB0EF3A3EB0A034A
:10A58000B3FBFEF301FB0232E0E6D4F84C32002BC1
:10A590003FF424AF0023D4F83822136084F8493202
:10A5A0001CE7D4F84C32002B3FF4AAAE3AF050FF2F
:10A5B000A6E600BFF03B0120F82A012000ED00E0F4
:10A5C00010E000E02DE9F04FCA4C83B00523CA4EDD
:10A5D00094F820124FF01009D4F82802C1F340017A
:10A5E00001933EF011FF94F82012D4F82402C943DD
:10A5F000DFF80C83C14D01F001013EF005FFD4F8F6
:10A60000283233B11A689B8851690B4218BF1B046A
:10A610009361D4F8243233B11A689B8851690B4294
:10A6200018BF1B049361B4F83032002B40F05981FD
:10A6300094F83212D4F834023EF0E6FE32204FF4A1
:10A640007A710127D8F80430C3F30803002B40F0D7
:10A650001B81EFF31183002B40F0168156F8B82CC4
:10A66000D5F808E056F8B83C9A42F7D1D4F85832F9
:10A670009E45F3D8D4F854A201FB0AF3A3EB0E03D2
:10A68000B3FBFAF301FB0232D8F80430C3F308033A
:10A69000002B40F0B780EFF31183002B40F0B28025
:10A6A00056F8B83CD5F808B056F8B8EC7345F7D171
:10A6B000D4F858E2F345F3D8D4F854A201FB0AFECB
:10A6C000AEEB0B0EBEFBFAFE01FB03E39B1AB3F5E8
:10A6D0007A7FD9D30138B5D1D4F8283233B11A688A
:10A6E0009B8851690B4218BF1B049361D4F8243234
:10A6F00033B11A689B8851690B4218BF1B049361E0
:10A70000B4F83032002B40F0E08094F83212D4F8E4
:10A71000340281F001013EF077FE32204FF47A716D
:10A720000127D8F80430C3F30803002B40F08B80D6
:10A73000EFF31183002B40F0868056F8B82CD5F843
:10A7400008E056F8B83C9A42F7D1D4F858329E4502
:10A75000F3D8D4F854A201FB0AF3A3EB0E03B3FB26
:10A76000FAF301FB0232D8F80430C3F3080343BB09
:10A77000EFF311832BBB56F8B83CD5F808B056F868
:10A78000B8EC7345F7D1D4F858E2F345F3D8D4F8D0
:10A7900054A201FB0AFEAEEB0B0EBEFBFAFE01FB60
:10A7A00003E39B1AB3F57A7FDDD30138B9D1019B5E
:10A7B0005F1E17F0FF0301937FF421AF03B0BDE8E4
:10A7C000F08FEFF3118A89F31288D5F808B02B685F
:10A7D000DB0303D5C4F85072D5F808B056F8B83C7E
:10A7E0005FFA8AFAD4F850E28AF31188D4F854A2B6
:10A7F000734401FB0AFEAEEB0B0EBEFBFAFE01FB3F
:10A8000003E3CEE7EFF3118A89F31288D5F808B095
:10A810002B68DB0303D5C4F85072D5F808B056F89E
:10A82000B83C5FFA8AFAD4F850E28AF31188D4F877
:10A8300054A2734401FB0AFEAEEB0B0EBEFBFAFE04
:10A8400001FB03E342E7EFF3118E89F31288D5F899
:10A8500008A02B68DA0303D5C4F85072D5F808A015
:10A8600056F8B83C5FFA8EFED4F850228EF3118869
:10A87000D4F854E21A4401FB0EF3A3EB0A03B3FB32
:10A88000FEF301FB02326EE7EFF3118E89F31288BB
:10A89000D5F808A02B68DA0303D5C4F85072D5F8B0
:10A8A00008A056F8B83C5FFA8EFED4F850228EF31A
:10A8B0001188D4F854E21A4401FB0EF3A3EB0A0307
:10A8C000B3FBFEF301FB0232DEE6D4F84C32002B80
:10A8D0003FF423AF0023D4F83822136084F84932C0
:10A8E0001BE7D4F84C32002B3FF4A8AE3AF0B0FD91
:10A8F000A4E600BFF03B0120F82A012010E000E0B0
:10A9000000ED00E010B4B8B10D4CD4F85C32102B5F
:10A9100005D1052100205DF8044B3AF06BBA03EB3A
:10A920004302224482F86112012182F860020B4442
:10A9300082F86212C4F85C325DF8044B704700BFC5
:10A94000F03B01202021C078DCE700BF2DE9F04F6B
:10A95000BA4C002387B004F5247894F8A422C4F8F4
:10A960009032C8E90133C8E903331AB194F8A5322B
:10A9700084F8903294F8A6321BB194F8A73284F888
:10A980009F3294F8AA321BB194F8AB3284F89A3211
:10A9900094F8A8321BB194F8A93284F8953294F84F
:10A9A000AC32013B4FFA83FADBB2BAF1FF3F0293BC
:10A9B00000F02181B022A249A24D002302FB0A111E
:10A9C0002E4605F1280001F58E711F469B46019326
:10A9D00057F020F8039535785146284640F018F88E
:10A9E0008146002840F00A8101370536042FF2D154
:10A9F00094F8BC02039DFFF7B1F94FF44032924E38
:10AA000000230121C4F8C4223046D4F8B822C4F887
:10AA1000DCB2C4F8D812C4F8D01284F8F012C4F82A
:10AA2000C832C4F8CC3284F8E032C4F8E432C4F856
:10AA3000D432C4F8C022C4E9BA33FDF7E1FABAF15E
:10AA4000000F40F01781019B83F0010919F0FF0FFF
:10AA500040F01081A6F1080052F01AFB012308F122
:10AA60001408EA78002A40F03D8105354545F8D1C3
:10AA700004EB0A030299022093F9B4223BF066FB2F
:10AA80000546002800F0B780D0F8048040463BF02F
:10AA90004DFB6E4B421E03EB421393F8E870002F00
:10AAA00040F0A9800622A3F8E820002800F0A38047
:10AAB0004046DFF8B8813BF039FB50F057FDBBF161
:10AAC000010FA9684FF400638CBF4FF4806200222D
:10AAD00068684FF40055C4F80C134FF48071C4F843
:10AAE00018234FF40032C4F81C330323C4F80803BE
:10AAF0004046C4F83033C4F81073C4F81473C4F873
:10AB00002C73C4F82823C4E9CD77C4E9C8510CF0EC
:10AB1000A9F894F8FC32C4F8F882012BC4F8406319
:10AB2000059768D00123D4F8C05284F8FC32AB6892
:10AB3000DE0714D4464B4749D3F8D832AA68B3FB92
:10AB4000F1F342F0010203EB4303AA600593059B76
:10AB50002BB1059B013B0593059B002BF9D1AB68FD
:10AB6000D80748D5D4F800233B4B134043F48073F7
:10AB7000C4F800336B68590507D5D4F8003323F4C3
:10AB8000405343F48053C4F80033D4F8003313F433
:10AB9000805300F05681D4F8043323F00603C4F840
:10ABA00004332E4800232E496FF02202C4F84803D4
:10ABB0002C4884F8FC325B46C4F8441305F14C0180
:10ABC000C4F854032A606E68274A46F08066274816
:10ABD0006E60AE6846F48076AE600BF0BBFF244B2F
:10ABE0005A68D20640F01681D4F8C0329A6812F042
:10ABF000405F00F0218107B0BDE8F08F28463EF0AD
:10AC0000A7FAFB1D03210022DBB2CDF8049008B1A6
:10AC10008371C2713EF082FA30783FF02BFF0BF166
:10AC2000010386F802B05FFA83FB4FF007037070F0
:10AC300033714FF00103F370D6E600BFF03B012003
:10AC4000681D0608803E0120B03E01200000012062
:10AC5000F82A012040420F00FEF8FFFFC11E010844
:10AC6000C51E0108B11E010808010020F83E0120A0
:10AC700000230140B02200217948482756F03CFFCC
:10AC8000B0220021764856F037FF764B384684F8DC
:10AC90006C73C4F86833FFF761F84FF44030002359
:10ACA0000121D4F86823C4F874036F48C4F88813EA
:10ACB000C4F8801384F8A013C4F87833C4F87C3344
:10ACC000C4F88C3384F89033C4F89433C4F88433D4
:10ACD000C4F87023C4E9E633FDF792F9604852F0F6
:10ACE000D7F9BBE694F8FC0200215A1C2F79012801
:10ACF0000491D2B269783DD04FF00100092984F85F
:10AD0000FC024ED94FF0030E6FF01D00D4F8C0C204
:10AD10004FF007091EFB0100DCF80CE009FA00F90E
:10AD200007FA00F02EEA0907CCF80C70DCF80C707A
:10AD30003843CCF80C00062B4FF005001CD86FF000
:10AD4000040710FB0373D4F8C0721F2000FA03FC41
:10AD5000786B01FA03F320EA0C007863786B034305
:10AD60007B63D4F8C0323F48834230D04FF00003B9
:10AD700084F8FC32134678E60C2B32D86FF02207A9
:10AD800010FB0373D4F8C0021F2707FA03FC076BFC
:10AD900001FA03F327EA0C070763076B3B430363DE
:10ADA000DFE7D4F8C00201EB41094FF0070ED0F8FD
:10ADB00010C007FA09F70EFA09FE2CEA0E0CC0F8CB
:10ADC00010C0D0F810C047EA0C070761B3E712299A
:10ADD0001AD01129CAD125494B6843F400034B60AE
:10ADE000C4E76FF0400710FB0373D4F8C0021F27BD
:10ADF00007FA03FCC76A01FA03F327EA0C07C762E4
:10AE0000C76A3B43C362ACE718494B6843F480030D
:10AE10004B60ABE7D4F8C02212498A4214D05B6879
:10AE2000DB063FF5E8AE124B9A427FF4E4AE9A6837
:10AE300012F0405F7FF4DFAE9A6842F080429A6081
:10AE4000D9E6C4F80433ACE6936813F0405F03D14D
:10AE5000936843F080439360044B5B68CBE600BF8C
:10AE6000583F012000200140603F012000230140A5
:10AE7000002201402DE9F041D0F800E00C46DFF857
:10AE8000588084B0DEF804501746DFF850C01946E9
:10AE900005EA0805DDF82880064603932C43424660
:10AEA00044EA0C0CCEF804C00BF070F878B93168A5
:10AEB0000246039B30468F628021CDF800800BF064
:10AEC00095F8003818BF012004B0BDE8F0810120DA
:10AED00004B0BDE8F08100BF009800FC00200181B3
:10AEE0000A4610B102213EF05DB87047034690F863
:10AEF0003C00012800F03E810220F0B4012483F8D8
:10AF00003D0083F83C40142A45D8DFE812F04D009C
:10AF10004400440044007B00440044004400DA0044
:10AF2000440044004400AA004400440044000601D8
:10AF300044004400440015001A688E68156A0F68C2
:10AF400025F48015AB4C1562106A556820F400108A
:10AF5000D2F854C040EA0650A74E0CEA0404B242AC
:10AF600044EA072400F0088106F58066B24200F04A
:10AF700003814E6855605465D6651062506D0C694A
:10AF800040F400605065506D20F480605065516D54
:10AF900041EA0421516500220121104683F83D1049
:10AFA00083F83C20F0BC70471A68D1F808C0156AD5
:10AFB0000F6825F00105914C1562106A5668956975
:10AFC00020F002002C408C4D40EA0C00AA4244EADA
:10AFD000070400F0DD8005F58065AA4200F0D88006
:10AFE0004D68566094615563106290690C6940F039
:10AFF00008009061906920F00400906191692143FC
:10B000009161C8E71A68D1F808C0156A0F6825F081
:10B0100010057B4C1562106A5668956920F0200077
:10B020002C40754D40EA0C10AA4244EA072400F077
:10B03000C38005F58065AA4200F0BE804D68566069
:10B0400094619563106290690C6940F400609061AE
:10B05000906920F480609061916941EA04219161D6
:10B0600099E71A688E68156A0F6825F48055644C54
:10B070001562106A556820F40050D2F81CC040EAEE
:10B0800006305D4E0CEA0404B24244EA072400F0A4
:10B090008D8006F58066B24200F088804E6855606B
:10B0A000D46116641062D0690C6940F40060D0610C
:10B0B000D06920F48060D061D16941EA0421D16176
:10B0C00069E71A68D1F808C0156A0F6825F4807519
:10B0D0004A4C1562106A5668D56920F400702C40FD
:10B0E000454D40EA0C20AA4244EA070473D005F516
:10B0F0008065AA426FD04D685660D461D5631062F6
:10B10000D0690C6940F00800D061D06920F00400DB
:10B11000D061D1692143D1613DE71A688E68156A13
:10B120000F6825F48035374C1562106A556820F495
:10B130000030D2F854C040EA06402F4E0CEA040416
:10B14000B24244EA07041DD006F58066B24219D027
:10B150004E685560546596651062506D0C6940F0FC
:10B1600008005065506D20F004005065516D21437A
:10B17000516510E70220704725F480254E6945EAA5
:10B180008625F6E625F480354E6945EA0625DFE793
:10B1900026F4407C20F008008E69CF684D69384362
:10B1A000354320F0040045EA0C0619E725F48045F4
:10B1B0004E6945EA861571E726F4406C20F0800060
:10B1C0008E69CF684D6940EA0710354320F0400092
:10B1D0004CEA850632E726F4405C20F400608E6974
:10B1E000CF684D6940EA0720354320F480604CEA7F
:10B1F000051680E7FF8FFFFE000001408CFFFEFF79
:10B20000FF8CFFFE8FFFFEFFF8B5474E96F81844FF
:10B2100004EB4403650006EBC30393F81C34032BD3
:10B2200077D8DFE803F0492A1F02254406EBC5055D
:10B23000D5F82034002B6ED196F87C24944268D047
:10B24000013404F003018A4286F8181461D001EB3E
:10B2500041040222184606EBC404C4F8203484F8E2
:10B260001C24F8BD2B1906EBC303D3F8202472B1BC
:10B27000013A0020C3F82024F8BD2B1906EBC303C4
:10B28000D3F82024002AF3D1022283F81C24254479
:10B2900006EBC50595F82834013BDBB285F8283468
:10B2A000F3B1224B0120D3F80C2302F2E733B3FBB6
:10B2B000F2F3C5F82034F8BD3FF0A0FA48B31B4ABA
:10B2C00042F20F732C440121D2F80C2306EBC40484
:10B2D000134484F81C14B3FBF2F3C4F82034F8BD13
:10B2E000124B601C0327D5F82414D3F80C233840E4
:10B2F00096F87C44531E85F81C74001B0B4418BF41
:10B3000001209A42B3FBF2F188BF0020C5F8201457
:10B3100030B90120F8BD013B0020C5F82034F8BD4C
:10B320000139C5F82014F8BDF03B012000000120D0
:10B3300030B5044683B001230D460DF107020848DD
:10B3400021463FF0B1F89DF8072035EA020304D00A
:10B350002A43214602483FF0E5F903B030BD00BF63
:10B360007040012030B5044683B000BFC06800259E
:10B370003EF03EF84CF2050301AA6946ADF80030F4
:10B38000032360688DF8025050F0D2FEE0683EF072
:10B3900035F800BF9DF8060003B030BD0848002313
:10B3A000024611780632022904D00133062BF8D167
:10B3B0000020704703EB430300EB4300704700BFDE
:10B3C000B4400120F0B5C04C85B02422002104F225
:10B3D000C44056F091FB94F8E964002E3AD135460A
:10B3E000D4F800355BB39B6A4BB3B8489847836881
:10B3F0002BB303880021DFF808C3013B6046664693
:10B400009BB237780636032F1CD001310629F8D1BC
:10B41000002201780630022900F0A6800132062AB7
:10B42000F7D1D4F82815052909D002FB01C2013152
:10B43000C4F82815022000219380107051802846FE
:10B4400005B0F0BD062303FB0141B1F8C634013B52
:10B450009BB2DDE704F59E6394F8E804C4F8EC348D
:10B4600008B90025BCE73DF073FE0746C4F8FC04AC
:10B470003DF0B0FF05460028F3D0013E022370B234
:10B4800084F8F0343FF000F80028EAD0C4F8F4045F
:10B490000FB12023FB800D2138463DF03FFED4F84C
:10B4A000EC340126D8683DF0A9FFD4F8EC34202113
:10B4B000586850F021FD864BD4F8EC2484F82465BC
:10B4C0000026C4F8202593E80300009032208DF870
:10B4D000041039F0F3FE052302AA6946D4F8EC04FF
:10B4E0008DF80A608DF809603EF0BCFF9DF80A10E7
:10B4F0009DF809600A029DF80B30764842EA064240
:10B500001A43824200F0958032DCA0F5F1108242AD
:10B510005FD043DD7048824253D00230824263D113
:10B520004FF400724FF48073A4F80425A4F810358A
:10B53000B4F810250020B4F804354FF480711202DD
:10B5400084F81205A4F8061502FB03F3C4F80825D5
:10B55000B3F1807FC4F80C3562D801225F4B84F8C8
:10B560001925C4F800353BE7062101FB02C261E75B
:10B570005B48824235DC0538824235DD594B134445
:10B58000032B5ED801A252F823F000BFD3B5000808
