:020000040800F2
:10000000F0FF0120C568060891F20008E1D204085B
:100010003D6906083D6906083D69060800000000C4
:100020000000000000000000000000008DF2000849
:1000300089F200080000000085F20008DD9B04083A
:100040003D6906083D6906083D6906083D690608E0
:100050003D6906083D690608E5E3040811E5040862
:10006000D5E4040899E404085DE40408D93A0608D4
:10007000C93A0608B93A0608A93A0608953A0608A0
:10008000813A06086D3A06083D690608000000003E
:1000900000000000000000000000000021E404084F
:1000A000C986040815870408B98604083987040836
:1000B00009870408F9860408E9860408D157060868
:1000C000D9570608C5570608CD5706083D690608E2
:1000D0003D690608B99D0408FD9C04080000000065
:1000E000A9E304083D690608AD0901080000000005
:1000F000000000000000000000000000593A06085F
:10010000000000008D150608D98604083D69060820
:1001100000000000000000000000000000000000DF
:10012000453A0608313A06081D3A0608093A060813
:10013000F539060800000000000000000000000083
:1001400000000000000000000000000019EC0008A2
:10015000E1390608CD390608B9390608419C04087A
:10016000B9570608C157060800000000000000004B
:10017000000000000000000000000000000000007F
:10018000000000003D6906080000000000000000BB
:080190003D6906083D690608FF
:08019800646406000100000090
:1001A0000E02010002000000246700208467002086
:1001B00000000000F809000814020100050000001A
:1001C000C43E00208867002000000000FA090008F3
:1001D0001302010004000000DC24002090670020CE
:1001E00000000000000A00080D1001004C00000093
:1001F000A464002094670020000000006DFA03084A
:100200000400080080000000E4630020E067002094
:1002100000000000000000000902010001000000D1
:100220008C6300206068002000000000040A0008C1
:10023000FD010100240000003063002064680020FC
:1002400000000000DF670408FB010100010000005E
:10025000706100208868002000000000C981050846
:10026000FC010100090000003C6000208C680020B7
:1002700000000000D1810508F70101000600000020
:10028000306000209868002000000000060A000886
:10029000F9010100040000002C600020A06800208B
:1002A0000000000089680408160215003F000000E5
:1002B00064320020A468002000000000F1810508DD
:1002C0003400010010000000205F0020E4680020DE
:1002D00000000000FD970208110201000800000064
:1002E000F85E0020F4680020000000000C0A0008FE
:1002F0001212010004000000F05E0020FC680020E3
:1003000000000000140A000818200100320000005C
:10031000BC5E00200069002000000000A98A0508DA
:100320001220010011000000DC5D00203469002073
:1003300000000000180A0008000201000B00000085
:10034000185B0020486900200000000015820508A5
:10035000FF11010006000000C05A0020546900206F
:1003600000000000A9810508081203000F0000002A
:10037000CC5A00205C690020000000002D82050896
:10038000FA01010003000000B85400206C6900204D
:1003900000000000E98105080A8001002800000033
:1003A000984C002070690020000000000115020830
:1003B000061001001C000000883100209869002010
:1003C00000000000A98205080202010003000000ED
:1003D000C4280020B46900200000000000000000D4
:1003E0000C02010004000000A4280020B8690020CD
:1003F00000000000B9810508110001000C00000098
:10040000EE400020BC69002000000000DDF203087F
:10041000FE01010014000000F43F0020C869002024
:10042000000000006D810508FD0701007600000056
:1004300068C00020E0C00020000000007D790108B5
:10044000261001000E00000068C1002058C10020E5
:1004500000000000751C01080B3001001A000000AC
:1004600034BA0020A8C10020000000002C0A0008B7
:100470001F3001002400000070B90020C4C100201A
:1004800000000000480A0008050201000400000006
:1004900064BC0020E8C10020000000006C0A0008D5
:1004A000030101000A000000B4B90020ECC10020E3
:1004B0000000000015170108220201001C010000C5
:1004C00078D9002030DC002000000000618A050897
:1004D0000C200600CC000000F4D700204CDD0020EA
:1004E000000000002DF10308010201000B000000D4
:1004F00098D7002018DE00200000000005820508C3
:100500001B020100100000006CD7002024DE002038
:1005100000000000958205081B1001000C0000007F
:10052000F0C3002034DE002000000000F17F01084D
:1005300021020100F000000070C2002040DE002017
:1005400000000000C1A101082312010010000000FA
:1005500074D4002030DF002000000000700A000882
:10056000371001002E000000DCD6002040DF002004
:1005700000000000800A00081610010006000000BC
:100580006CD4002070DF002000000000AE0A0008DC
:100590002F100100220000000CDC002078DF00207A
:1005A00000000000B40A00081E000100090000005D
:1005B00064D300209CDF002000000000D60A000861
:1005C0000510010006000000D8D30020A8DF00209D
:1005D00000000000E00A0008F5810100680000004A
:1005E00000C20020B0DF002000000000419201089E
:1005F000232001001000000018D4002018E0002083
:100600000000000015160208F62101000C00000091
:10061000E4EB00209CED002000000000E80A000848
:100620001C0202001C00000088EB0020ECED002002
:1006300000000000D18B05082820010018000000F0
:10064000A4EB002008EE0020000000005D3102084D
:1006500004120100020000005CED002020EE0020EA
:1006600000000000F40A00080F0201000100000071
:1006700058ED002024EE002000000000F60A0008DB
:10068000140001000400000080EB002028EE002090
:1006900000000000F80A0008012001000C00000022
:1006A00038E300202CEE002000000000FC0A0008C7
:1006B0000EF003009E01000020E1002038EE002033
:1006C000000000004598020813000100040000002B
:1006D00010E70020D8EF002000000000080B000801
:1006E00001010100040000006CE00020DCEF0020AC
:1006F00000000000000000000001010004000000F4
:1007000064E00020E0EF0020000000000C0B000877
:10071000020101000300000060E00020E4EF00207F
:100720000000000069F10308190001000500000045
:10073000E8FD0020B4FE002000000000100B0008BF
:100740001A0001000E00000048FD0020BCFE002041
:1007500000000000160B0008203201000A00000013
:10076000E0FB0020CCFE00200000000021980208E1
:100770001500100070000000BCF50020D8FE00201D
:1007800000000000000000002A00080060000000D7
:1007900030FE002048FF002000000000D59702082E
:1007A0002C00040010000000B8FF0020A8FF00206B
:1007B00000000000AD9502082B001200240000008C
:1007C000ECFF0020C8FF0020000000008195020817
:1007D00029201400780000005CF3002010000120A4
:1007E00000000000000000001902010010000000DD
:1007F00090F200208800012000000000F58105082B
:10080000030001000100000010190120241C012038
:100810000000000000000000031201003D00000085
:10082000B8180120281C012000000000240B00083B
:1008300025201E002C0100001C160120681C012030
:100840000000000000000000101001000200000085
:100850009C150120941D012000000000620B00087F
:10086000F821010006000000F8150120981D012064
:1008700000000000640B0008020001000C000000F2
:10088000042601209826012000000000000000003E
:10089000290201004000000070200120A426012050
:1008A000000000006A0B00080A02010014000000AA
:1008B0005C1F01200427012000000000F9F003085C
:1008C00028020400040000005C30012038320120BE
:1008D00000000000918205082702040004000000C7
:1008E000583001203C3201200000000085820508BC
:1008F0001F02080010000000B42D0120403201202A
:1009000000000000858105081A0201003C0000007B
:100910005C2901205032012000000000558B0508A1
:100920003810010001000000382701208C3201201E
:1009300000000000AA0B00082700010004000000CE
:10094000543301205C33012000000000AC0B000890
:100950000B1201003C00000014350120DC4701208F
:1009600000000000B00B00080D1201001400000090
:10097000C84101201848012000000000EC0B0008CD
:100980000702010002000000C44701202C4801209A
:1009900000000000000C00081D020200060000001C
:1009A0008C470120304801200000000000000000BA
:1009B000060203000C00000098470120B84C0120FB
:1009C00000000000198B0508390001000500000037
:1009D000A4470120C44C0120000000001D8205082E
:1009E0001002010001000000988001209480012085
:0809F00000000000020C0008E9
:1009F8000000000000FF00000000010000000000EF
:100A0800010000000000000001010101FFFFFFFFDD
:100A180000000001000105533431310000000002DC
:100A280000000000AE014A015E012C0164000200D2
:100A3800000001000A019A01001E0A0000020000DD
:100A48000000000000010000000500000102030092
:100A5800000000000000000000000000000000008E
:100A680000800700000000000000000000000000F7
:100A7800000000000000000020003200C800D0077D
:100A880096001400320028004C044006000550006F
:100A980014000F00080064000100010005000A00AE
:100AA8000000F4019600C4090000190000000000CD
:100AB800000000000000000000000000000000002E
:100AC8000000000000000000000000000000000519
:100AD80001000000000000002000030100000000E9
:100AE80000000000010000000202000000000000F9
:100AF80003000023E8036400040A000114001E0038
:100B080000204030900100000000280100007E0510
:100B1800EA05B4053200E803D00700000000000031
:100B280000000000000000000000000000000000BD
:100B380000000000000000000000000000000000AD
:100B4800000000000000000000000000000000009D
:100B58000000000000000000010000050201F4018F
:100B68001400000000000000000000000000000069
:100B7800000000000000000000000000000000006D
:100B8800000000000000000000000000000000005D
:100B9800000000000000000000000000000000004D
:100BA800000000002003000000000000000000001A
:100BB800000000000000000000000000000000002D
:100BC800000000000000000000000000000000001D
:100BD800000000000000000000000000000000000D
:100BE80001000000000000000000000000000000FC
:0B0BF8000000000000000000003C00B6
:100C03000403090412010002EF0201408304563277
:100C1300000201020301000012010002020200406F
:100C2300830440570002010203010800FFFFFFFF96
:100C3300006002401060024000000000000000005D
:100C4300000B000000000000000000000000000096
:100C53000060024028600240010000000000000024
:100C6300060C00000000000000000000000000006F
:100C730000600240406002400200000000000000EB
:100C8300100D000000000000000000000000000044
:100C930000600240586002400300000000000000B2
:100CA300160E00000000000000000000000000001D
:100CB3000060024070600240040000000000000079
:100CC300200F0000000000000000000000000000F2
:100CD3000060024088600240050000000000000040
:100CE30026100000000000000000000000000000CB
:100CF30000600240A0600240060000000000000007
:100D0300301100000000000000000000000000009F
:100D130000600240B86002400700000000000000CD
:100D2300362F00000000000000000000000000005B
:100D33000064024010640240000000000000000054
:100D43000038000000000000000000000000000068
:100D5300006402402864024001000000000000001B
:100D63000639000000000000000000000000000041
:100D730000640240406402400200000000000000E2
:100D8300103A000000000000000000000000000016
:100D930000640240586402400300000000000000A9
:100DA300163B0000000000000000000000000000EF
:100DB3000064024070640240040000000000000070
:100DC300203C0000000000000000000000000000C4
:100DD3000064024088640240050000000000000037
:100DE3002644000000000000000000000000000096
:100DF30000640240A06402400600000000000000FE
:100E0300304500000000000000000000000000006A
:100E130000640240B86402400700000000000000C4
:100E23003646000000000000000000000000000043
:100E33007D000000010000001583000811830008F5
:100E43000D83000801830008FD8200080983000860
:100E530005830008000000004D8F000889A30008E7
:100E6300118F0008DDA40008319000088583000875
:100E73007183000855830008119D0008B18800089C
:100E8300A1D5000819D6000899D6000891D8000802
:100E9300A10F01085D8300084D83000801000000D5
:100EA3000000803F353A0108393F0108B13A010893
:100EB3003D100108211201084D10010869100108B5
:100EC30015100108051001080000000000000000D3
:100ED30009022000010104C03209040000020806CF
:100EE300500507058102400000070501024000008C
:100EF30009026400030100C0320904000001030079
:100F030000000921110100012236000705830309AE
:100F1300000A080B01020202010009040100010298
:100F2300020100052400100105240100020424022B
:100F3300020524060102070582030800FF090402D3
:100F430000020A00000007050102400000070581B6
:100F53000240000009024300020100C032090400FC
:100F63000001020201000524001001052401000113
:100F7300042402020524060001070582030800FF7A
:100F830009040100020A00000007050102400000F5
:100F93000705810240000000FF00000000FF000081
:100FA300000000000000AA550701000001AA550532
:100FB30001000008D8AB0608FF1FFF1F0501090544
:100FC300A101A100050109300931093209330935AD
:100FD3000934093609371581257F7508950881027B
:100FE30005091901290815002501950875018102D4
:100FF300C0C0000009022200010100E03209040020
:10100300000103010200092111010001223600073A
:1010130005830309000A0000000000000102030425
:1010230001020304060708092D202D2D202D2D2D47
:101033002D202D2D2D2D00000000000000000000AC
:1010430000000000000000AA550B010000AA55058E
:10105300010000AA550902000000AA5503009F00E1
:1010630001000000C0120000A0C100200000000029
:1010730078C1002000000000010000006030070874
:101083006830070800000000F1F10308A0860100A2
:101093000400000000000000000000000000000049
:1010A300000000000000000000000000000000003D
:1010B300000000000000000000000000603007088E
:1010C3007030070800000000217C0408E8030000DA
:1010D3000400000000000000000000000000000009
:1010E30000000000000000000000000000000000FD
:1010F3000000000000000000000000007830070836
:101103000000000000000000155D03087D000000E2
:10111300FF000000000000000000000000000000CD
:1011230000000000000000000000000000000000BC
:101133000000000000000000000000005CB607088B
:101143000000000000000000C57403087D000000DB
:10115300FF0000000000000000000000000000008D
:10116300000000000000000000000000000000007C
:1011730000000000000000000000000024450708F4
:10118300000000000000000015B903087D00000006
:10119300FF0000000000000000000000000000004D
:1011A300000000000000000000000000000000003C
:1011B300000000000000000000000000803007086D
:1011C300000000000000000051720408E803000062
:1011D3000300000000000000000000000000000009
:1011E30000000000000000000000000000000000FC
:1011F3000000000000000000000000008430070829
:1012030000000000000000002D2703081027000045
:1012130003000000000000000000000000000000C8
:1012230000000000000000000000000000000000BB
:1012330000000000000000000000000070B207087A
:10124300000000008D91020895D304085F7600002A
:101253000500000000000000000000000000000086
:10126300000000000000000000000000000000007B
:1012730000000000000000000000000000B60708A6
:101283000000000000000000F9F20408102700002D
:10129300010000000000000000000000000000004A
:1012A300000000000000000000000000000000003B
:1012B300000000000000000000000000903007085C
:1012C3000000000000000000B1640408E80300000F
:1012D3000500000000000000000000000000000006
:1012E30000000000000000000000000000000000FB
:1012F3000000000000000000000000009C30070810
:101303000000000000000000D5F80308204E000094
:1013130003000000000000000000000000000000C7
:1013230000000000000000000000000000000000BA
:10133300000000000000000000000000AC300708BF
:101343000000000000000000BDF60308204E00006E
:101353000300000000000000000000000000000087
:10136300000000000000000000000000000000007A
:10137300000000000000000000000000BC3007086F
:10138300000000000000000065780408400D030021
:101393000300000000000000000000000000000047
:1013A300000000000000000000000000000000003A
:1013B300000000000000000000000000CC3007081F
:1013C30000000000000000003D2D0408102700006D
:1013D3000100000000000000000000000000000009
:1013E30000000000000000000000000000000000FA
:1013F300000000000000000000000000D4300708D7
:10140300000000000000000059AE01081027000092
:1014130003000000000000000000000000000000C6
:1014230000000000000000000000000000000000B9
:10143300000000000000000000000000D830070892
:1014430000000000000000006D710208A08601008A
:101453000100000000000000000000000000000088
:101463000000000000000000000000000000000079
:10147300000000000000000000000000E03007084A
:101483000000000000000000D970040850C30000F1
:101493000100000000000000000000000000000048
:1014A3000000000000000000000000000000000039
:1014B300000000000000000000000000E830070802
:1014C3000000000000000000A96E0408A0860100CF
:1014D3000000000000000000000000000000000009
:1014E30000000000000000000000000000000000F9
:1014F300000000000000000000000000F4300708B6
:101503000000000000000000916A0408A8610000C8
:1015130001000000000000000000000000000000C7
:1015230000000000000000000000000000000000B8
:101533000000000000000000000000000031070868
:101543000000000000000000AD070208A0860100B3
:101553000100000000000000000000000000000087
:101563000000000000000000000000000000000078
:101573000000000000000000000000000C3107081C
:10158300000000000000000065A20408A00F000096
:101593000100000000000000000000000000000047
:1015A3000000000000000000000000000000000038
:1015B30000000000000000000000000018310708D0
:1015C3000000000000000000A9020208102700002C
:1015D3000100000000000000000000000000000007
:1015E30000000000000000000000000000000000F8
:1015F3000000000000000000000000002431070884
:10160300000000000000000031F20308A00F0000FA
:1016130001000000000000000000000000000000C6
:1016230000000000000000000000000000000000B7
:101633000000000000000000000000003031070837
:10164300000000000000000095DD01081A410000C1
:101653000100000000000000000000000000000086
:101663000000000000000000000000000000000077
:1016730000000000000000000000000034310708F3
:1016830000000000000000004917010810270000B7
:101693000100000000000000000000000000000046
:1016A3000000000000000000000000000000000037
:1016B30000000000000000000000000040310708A7
:1016C3000000000000000000714C020850C300003D
:1016D3000100000000000000000000000000000006
:1016E30000000000000000000000000000000000F7
:1016F3000000000000000000000000004431070863
:1017030000000000000000008D200108400D0300D0
:1017130000000000000000000000000000000000C6
:1017230000000000000000000000000000000000B6
:101733000000000000000000000000004C3107081A
:101743000000000000000000FDF20308400D03004C
:101753000000000000000000000000000000000086
:101763000000000000000000000000000000000076
:1017730000000000000000000000000054310708D2
:1017830000000000000000001DEC010850C3000031
:101793000300000000000000000000000000000043
:1017A3000000000000000000000000000000000036
:1017B3000000000000000000000000006031070886
:1017C3000000000000000000050A040840420F006A
:1017D3000000000000000000000000000000000006
:1017E30000000000000000000000000000000000F6
:1017F3000000000000000000000000006C3107083A
:10180300000000000000000099FD030850C3000021
:1018130000000000000000000000000000000000C5
:1018230000000000000000000000000000000000B5
:1018330000000000000000000000000001000000A4
:1018430000000100E0010000FFFFFFFF01007EFF39
:10185300FFFFFFFF080000004257020000000106DF
:10186300425702000000010601FFFF00FFFFFFFFD8
:1018730001010100190B0208000000000000000034
:1018830010B60608E0E4002034E500208D260208A7
:10189300B52402080000000078CE0608C9FA010842
:1018A3000000000000000000DCCD06082D27020820
:1018B300000000000000000094CD060800000000B6
:1018C300000000000000000044CC060800000000F7
:1018D3000000000000000000FCCC0608000000002F
:1018E3000000000000000000A8CC06080000000073
:1018F3000000000091230208D5E60020D601FF2D49
:10190300202D2D202D2D2D2D202D2D2D00000000DF
:1019130000000000000000000000000000000000C4
:10192300FFFFFFFF1D2A0208000000000000000067
:10193300D4CB060801000000FA00000001000000FB
:10194300010000000101000000010101000000008E
:1019530032E300200000F4010100000030E3002026
:101963000000F401010000002EE300200000F40158
:10197300010000002CE300200000F401010000003E
:101983002AE300200000F4010100000028E3002006
:101993000000F4010100000026E300200000F40130
:1019A3000100000051130208151302080000000093
:1019B30054B8060816E300200532010024E3002092
:1019C3006400F4010100000022E300206400C40964
:1019D3000100000014E30020E803D0070100000029
:1019E30012E30020E803D0070100000010E3002009
:1019F300E803D007010000000EE300201E00B80B2F
:101A0300010000001CE3002005000F00010000009E
:101A13001EE3002003000A00010000000CE3002085
:101A23001E00F4010100000020E30020020000007A
:101A3300E0B806080AE30020140064000100000077
:101A430018E300203200E8030100000008E300204F
:101A53000000C80001000000E1E2002000C801000E
:101A6300E0E2002000500100DFE20020005A010004
:101A7300DDE2002002000000ECB806086C3C070819
:101A8300743C07085E6600200100C40900000000E2
:101A93005C6600200100C409000000005A660020B3
:101AA3000100C40900000000586600200100C409B9
:101AB30000000000546600200100C409000000007B
:101AC300566600200100C409000000005266002091
:101AD3000100C40900000000506600200100C40991
:101AE300000000008BE0002000C801008AE0002015
:101AF30000C8010088E000200000FFFF0A0000008A
:101B030086E000200100C8000100000084E00020FE
:101B1300320030753200000082E000207EFF1400A6
:101B23000500000080E0002005002C0105000000F6
:101B33007EE00020055A05007BE0002000FF010045
:101B43007DE00020020000001410002079E0002056
:101B530003000000F8AD06087AE0002000FF010052
:101B63007CE00020020000001410002078E0002038
:101B730003000000F8AD0608A5120208351202089A
:101B830000000000F8B8060848E30020EE02CA0887
:101B93000100000046E3002000C8010064000000CB
:101BA30045E3002000C801006400000044E3002076
:101BB3000200000004BA060872E000200000803E24
:101BC3000500000070E0002080C1803E0500000099
:101BD3006AE000200083007D0500000068E000202B
:101BE30080C1803E0500000063E0002000FF01008B
:101BF3005EE000206400F401010000005CE00020CE
:101C03000400000010BA06085BE000200200000098
:101C130024BA060811E100200D00000030BA0608BE
:101C23000EE10020006401000CE1002032001027C7
:101C33000A0000000AE100200D00000030BA060887
:101C430009E100200D00000030BA060808E1002079
:101C53000200000068BA060800000000000000004F
:101C63000000000074BA06084EE300203E000000A6
:101C7300ACBA06084CE300200100FF7F010000001E
:101C83004BE3002002000000A8BB060813E100207C
:101C930003000000B8BB060812E1002003000000A7
:101CA300B8BB0608CEE20020000A0100CCE2002007
:101CB3000000E80301000000CAE200200000E8037E
:101CC30001000000C8E200200000E803010000005A
:101CD300C6E200200000E80301000000BEE200208D
:101CE3000000E80301000000C4E200200000E80354
:101CF30001000000C2E200200000E8030100000030
:101D0300C0E2002000140100DCE200200200000019
:101D1300C8BB0608DAE200200000F401010000005D
:101D2300D8E200200000F40101000000D6E2002008
:101D33000000F40101000000D4E200200000F401DF
:101D430001000000D2E200200000A00F010000000B
:101D5300D0E200200000A00F01000000F5E2002007
:101D630019640100F4E2002002000000D4BB06085D
:101D7300F2E20020E803D0070A000000F0E20020AE
:101D8300006401000A000000E5E200200064010095
:101D9300E4E2002000640100ECE2002000640100A2
:101DA3000A000000EBE20020006401000A000000CA
:101DB300EAE20020006401000A000000EFE20020D4
:101DC30000FF01000A000000EEE2002000FF010016
:101DD3000A000000EDE2002000FF01000A000000FD
:101DE300E9E2002001FF01000A000000E8E2002010
:101DF30001FF01000A000000E7E2002001FF0100EB
:101E03000A0000001CE100200000F40101000000B2
:101E13001AE100200000A00F0100000018E10020DB
:101E23000000A00F0100000016E100200000A00F39
:101E33000100000014E100200000A00F01000000D9
:101E430025E7002000C8010024E70020006401000A
:101E530023E700200064010022E700200064010062
:101E630021E700200064010020E70020FF080100B3
:101E73001FE70020016401009D110208611102089F
:101E830000000000E0BB060828E700200132010043
:101E930027E700200100000050BC060826E70020C9
:101EA3000400000058BC06081EE70020006401007F
:101EB3001CE700201400E803010000001AE70020DB
:101EC300E80330750A00000018E7002000C801008D
:101ED30017E7002000C8010016E7002000C8010032
:101EE30015E70020003201002AE70020004B010023
:101EF30029E70020040000006CBC060814E700205A
:101F0300006401000A00000038E700200000D00749
:101F13000100000033E7002000C8010032E7002081
:101F230000C8010031E7002000C8010036E70020A7
:101F33000000D0070100000030E7002000C80100C6
:101F43002FE7002000C801002EE7002000C8010091
:101F530034E700200000D007010000002DE7002037
:101F630000C801002CE7002000C801002BE7002077
:101F730000C80100550F02083D0F020800000000D1
:101F830080BC060805E10020005A010004E100209E
:101F930000C8010002E10020E803D00701000000AF
:101FA3000000000000000000D12302081CBD060849
:101FB30053544D33324634313100000077E0002072
:101FC3000003010076E0002000030100790E0208FF
:101FD3002D0E02080000000070BD0608ED0D02087A
:101FE300A50D0208000000000CBE0608C50E02087D
:101FF300012A0208000000008CBE060874E00020DD
:10200300010301002D14020801140208000000005E
:10201300E4C10608310D0208ED0C020800000000BF
:1020230054C20608650F0208552B02080000000081
:10203300F0C206081D2F0208591402080000000010
:1020430098C30608B50F0208000000000000000056
:1020530024C4060891100208391002080000000089
:1020630088C4060825110208E910020800000000D0
:1020730030C50608698C0208D91102080000000067
:10208300BCC5060807E3002001060100FD0F020896
:10209300C90F020800000000B8C606089D8B02089D
:1020A300212C02080000000028C70608B18C020892
:1020B300E92C02080000000078C8060806E30020A7
:1020C300010301000D0F0208DD0E020800000000ED
:1020D3004CC90608098D020800000000000000003A
:1020E300B0C90608750D0208E929020800000000BE
:1020F30030CA0608000000000000000000000000D5
:10210300BCCA06080D120208612D02080000000077
:102113002CCB0608000000000000000000000000B7
:1021230044CD060810BC00209CFF2C0100000000D9
:1021330098E80020E0150C1700000000A0DB002049
:10214300020000007CCD060857E0002002000000DA
:1021530088CD060852E0002088136F1701000000A5
:1021630054E0002088136F1700000000A2660020CF
:102173000000000000000000A06600200000000036
:10218300000000009E660020000000000000000028
:102193009C66002000000000000000009A660020FA
:1021A300000000000000000098660020000000000E
:1021B30000000000FC0500200000000000000000FB
:1021C30028E0002003000000DCCE060850E00020D9
:1021D30088136F17010000005ABC002088136F1783
:1021E30000000000D10B0208000000000000000006
:1021F300ECCE060819E600200100000040CF0608D7
:102203005CBC0020010000004CCF060852BC00203B
:102213000200000054CF0608000000000000000088
:102223000000000060CF0608BD0B0208000000009C
:1022330000000000FCCF06080000000000000000C2
:102243000000000050D0060800000000000000005D
:1022530000000000C0D0060856E000200200000085
:10226300F8D0060856BC0020E0150C17000000004B
:102273000101000098000120FFFFFFFF0000803FE5
:10228300000000000000000000000000000000004B
:10229300000000000000000000000000000000003B
:1022A300000000000000803F00000000000000006C
:1022B300000000000000803F00000000000000005C
:1022C300000000000000803F00000000000000004C
:1022D30000000000010000000000FA430000FA4380
:1022E3000000803F4D2F04080000000000000000A4
:1022F30000000000FFFFFFFFFF00000000000000E0
:10230300F42601200800000000000000E42601205C
:1023130008000000200000008D3901083111010878
:102323002539010800000000011001080D420108D1
:1023330075380108C13401080000000000000000E6
:10234300C10F01082583000819830008958E000832
:10235300B18E0008798E00085D8E0008418E00085A
:10236300453901080D110108793801080000000002
:10237300D90F0108C534010849380108213401087F
:102383000000000000000000CD0F0108685E0C0093
:10239300FFFFFFFF02010000A00F0000B80B0000C9
:1023A30002FFFF01FFFF000064B2070800000802FC
:1023B30005030300000000006CB2070801000802D7
:1023C3000504030000000000345A07080200FE0160
:1023D3000110030000000000D43F070803001402AB
:1023E300000300000000000074B2070804001F028D
:1023F30002000800000000007CB2070805001F026D
:102403000201080000000000FFFFFFFF1A030000A5
:1024130000000000000000000000000000000000B9
:102423000000000000000000040309041201000280
:1024330000000040830420570002010203010B0146
:10244300499305081D930508C19205085D83050896
:10245300DD9205088192050859830508F81A0020C2
:102463003994050859940508299405083D830508FE
:10247300E59305089D9305082D830508D41A0020CC
:102483005D8C0508458305084183050839830508E4
:10249300A58D05083583050831830508B42307088E
:1024A300A9410108ED10010889400108000000005E
:1024B3000000000021380108313701080000000046
:1024C3000000000000000000B50F0108E5830508C7
:1024D300D9830508A9940508C594050891830508BF
:1024E3008D94050871940508FFFFFFFF01000000AC
:1024F30050C30000010100001F0000001C00000089
:102503001F0000001E0000001F0000001E0000004E
:102513001F0000001F0000001E0000001F0000003D
:102523001E0000001F0000000068214C0125000070
:10253300F8200708542D07081C1B00200080020206
:102543001F00000053544D202020202050726F6440
:10255300757420202020202020202020302E303190
:10256300008002021F00000053544D202020202031
:1025730050726F647574202020202020202020209A
:10258300302E3031131701080F1701080717010800
:10259300F1140108F51F010821200108511F01084A
:1025A300FD160108ED160108DD160108CD16010818
:1025B300E9140108FFFF0100F40100000000040119
:1025C30000000000000000021000000007000000EF
:1025D30000000000000000000102030406070809D0
:1025E30001000000801B002000000000000000002C
:1025F30000000000000000000000000000000000D8
:1026030000000000000000000000000000000000C7
:1026130000000000000000000000000000000000B7
:1026230000000000000000000000000000000000A7
:102633000000000000000000000000000000000097
:0826430000000000000000008F
:08280000082800080040000850
:10800000F0B401292A4C2B4D23684FF0000694BF91
:1080100000270127EE626662A6626763676B47EA24
:1080200042076763EE63EC6B002A38D144F4957421
:10803000EC631C6824F001041C601C68E407FCD499
:10804000490289085960D8601968EAB921F04001ED
:10805000196019498B421DD018494FF47410C8603B
:10806000196841F01E011960596941F08001596198
:10807000196841F00101196022B90E4AD36A43F030
:108080000803D362F0BC704741F0400119600A490F
:108090008B42E1D14FF0746041F8500CE0E744F0BE
:1080A0001A04EC63EC6A44F00804EC62C1E700BF18
:1080B000E01B0020002C0140586402400064024094
:1080C0001148002302461178032902F1060216D056
:1080D0000133062BF7D10D4AD36D052B0ED0591C59
:1080E00003EB4303D16500EB4303032040F2EB3184
:1080F00040F2FF32187059809A807047704703EB46
:10810000430300EB4303F0E7181C0020E01B0020B2
:1081100070B4C3080D4CE25C00F00706B24004EBFB
:10812000D004D2B20020C6F108038B4228BF0B4610
:10813000C3F108052A419840C91A40EA02004FF0ED
:10814000000614F8012FEED170BC7047801C00208F
:10815000084AD2E9343199420AD0D118013391F852
:10816000D8100170C3F30A03C2F8D0300120704761
:1081700000207047E01B0020064AD2F8D838D2F819
:10818000DC28934294BF4FF400600020013B9B1A0F
:1081900018447047E01B0020012380F851307047DD
:1081A00007B501A8FFF7D4FF0028FAD09DF8040016
:1081B00003B05DF804FB044BD3E93403984288BF55
:1081C00003F50063181A7047E01B00200120704778
:1081D000024BC3F8E028C3F8E4187047E01B002006
:1081E000024BC3F8E828C3F8EC187047E01B0020E6
:1081F0007047704730B4134DD5E934239A4286BF97
:1082000003F50064A21A9A1A0A44B2F5006F13D853
:10821000A9B101444A1E013810F8014FE918824201
:1082200003F1010381F8D840C3F30A03F4D1C5F880
:10823000D430002030BC7047022030BC7047084664
:10824000F8E700BFE01B0020212838B50C4605D018
:1082500022282ED0202813D0002038BD0029FBD0A2
:10826000072AF9D11A4BD3F8F00893F8F41893F8C9
:10827000F52893F8F638206021716271A371EBE75D
:108280000029E9D0072AE7D1114DD5F8E4381BB110
:108290000968D5F8E0089847206821796279A379C0
:1082A000C5F8F00885F8F41885F8F52885F8F6384B
:1082B000D2E70029D0D0022ACED1054AD2F8EC3834
:1082C000002BC9D00988D2F8E8089847C4E700BF56
:1082D000E01B0020024B0020C3F8F808704700BFE5
:1082E000E01B0020044B00200522C3F8F828C3F847
:1082F000EC08C3F8E4087047E01B0020704700BF9B
:10830000704700BF704700BF704700BF704700BF95
:10831000704700BF704700BF042301480B807047BF
:108320009801002010B4074A074B92F8FC08122469
:1083300003F114020C8001280CBF184610465DF8AA
:10834000044B7047E01B00209C0100200048704750
:10835000681C002000487047681C0020034B93F8FD
:108360008400032894BF002001207047E01B0020F8
:10837000034B93F88400032894BF0020012070472A
:10838000E01B0020034B93F88400003818BF012045
:10839000704700BFE01B0020A0B182680D4B12B1F6
:1083A00007229A7070471978DA6003294FF00400A9
:1083B0000CBF80214FF48071C3E901111A611A7555
:1083C00098707047034B41F2E47101225A545A707D
:1083D000704700BFDC9900200378022B10D00069A1
:1083E00008B9012070470C4B1B78032B0EBF0B4BB9
:1083F00080B24FF6F773984294BF00200120704777
:108400000549436841F650028A58B3EB422F2CBF0E
:1084100001200020704700BFDC990020F7FFFF0F0C
:108420000378022B14D030B4104A4368006941F637
:10843000480402F5C2511559096841F63C042B4025
:1084400012595B0A023801FB0030104430BC7047FF
:10845000064B426841F6340141F63000595818582D
:1084600000EB410000EB5220704700BFDC99002078
:108470002DE9F041684C00234FF4F07220210646AC
:1084800004F6041084F8003961F0A9FD04F6E42034
:108490004FF4F072202161F0A2FD94F8C50C10B1E8
:1084A00094F8C62C1AB900252846BDE8F08144F09E
:1084B000F9FB0746C4F8D00C44F0C8FE0546002876
:1084C000F1D00FB12323FB800921384640F098FDFD
:1084D000D4F8D00C514F44F0DBFE94F8C60C0138B0
:1084E00040B246F06BFB0223102184F8C83CC4F86C
:1084F000CC0C58F071FA798D494846F0D3F9D4F88C
:10850000D00C44F0BFFEFF218C205CF0ADFB804618
:10851000D4F8D00C44F0BCFED4F8CC0C042158F0B4
:108520005BFAB8F11B0F05D0D4F8D00C202140F035
:1085300067FDB8E7D4F8D03C012284F800290BB1DC
:108540002322DA80798D364846F0ACF9D4F8D00C85
:1085500044F098FE40210A205CF086FBFF218A202F
:108560005CF082FBC0F38013D4F8D00C84F8D43CC8
:1085700044F08EFED4F8CC0C042158F02DFA94F877
:10858000C43C012B3FD0022B37D0CBB394F8D53C61
:10859000182B08D194F8D42C7B8DA4F8D86CA4F8AF
:1085A000DA2CA4F8DC3C798D1D4846F07BF9798DF6
:1085B0001B4846F077F9D4F8D00C44F063FE022152
:1085C00000205CF051FBD4F8D00C44F061FE042193
:1085D000D4F8CC0C58F000FA94F8E52C94F8E63C6A
:1085E00094F8E41C84F8E01CC2F12002C3F11003EB
:1085F00084F8E72C84F8E83C56E708237B85C5E738
:1086000010237B85C2E7002EF7D094F8D43C002BD2
:1086100014BF08231023F1E7E01B0020980100207D
:10862000A82800202DE9F84F564B984210D003F5AA
:1086300068530833984267D0534B0020A3F8440D89
:10864000A3F8500DC3F8480DC3F84C0DBDE8F88FE2
:108650004D4C4E4E02224FF0000BC4F8EC2C04F5AA
:108660004F65D9464FF4007A4FF48078F26A0127BB
:108670005A455946BB4403D0D4F8600D53F0A0FFCF
:1086800094F8642D85F82420D4F8600DA5F804A092
:108690004FF000724FF48031A960EA60A5F81080B5
:1086A00085F81290A5F806802F762862B72154F03D
:1086B0007DF9D4F8EC2C364B6F76934545F8283B82
:1086C000D4DB84F8529DD4F8EC1CB4F8F42CD4F824
:1086D000FC3CD4F8F80CB4F8005DC4F8683D12FB1B
:1086E00001F203FB01F3A4F8442DB4F8F61C294A67
:1086F000C4F8480DC4F84C3DA4F8505DA4F8461DDC
:10870000C4F8402D0120A1E71F4C204E0223C4F8DD
:10871000EC3C04F54F654FF0000B4FF4806A4FF0CE
:1087200040094FF40068F26A01275A455946BB4494
:1087300003D0D4F8600D53F043FFD4F8601D94F8D3
:10874000642D296285F824204FF400314FF0006237
:10875000C5E90212A5F804A0A5F81090A5F80680B6
:10876000AF74FFF7ADFC28466F7654F071F8D4F87B
:10877000EC2C094B45F8283B9345D4DB84F8527D1B
:10878000A1E700BF1971EF00E01B00209801002055
:1087900080A00608D8A00608ACA00608F8B51A4CB8
:1087A00094F86C3D002BFBD159B301444E1E451E7D
:1087B000D4F8DC28D4F8D81815F8017F531CC3F37B
:1087C0000A038B422CBF4FF400600020C91A2244D8
:1087D0000144012982F8707DC4F8DC380FD10120F2
:1087E00041F05CF9D4F8D838D4F8DC188B4294BF47
:1087F0004FF4006200225B1A1344012BEFD0B54204
:10880000D6D10020F8BD00BFE01B00200A4B08466F
:10881000D3F8F81810B569B1D3F8F838052B09D199
:10882000064C002AD4F8783404DD1146FFF7B6FF71
:10883000D4F8783410BD00BFE01B0020D82C0020F5
:1088400010B590F85010002380F8503089B10C4CCE
:10885000D4F8F8287AB1D4F8F828052A0DD1094CB3
:108860003C30D4F87834FFF799FFD4F878340120FD
:1088700010BD0120FCE71046FAE71846F8E700BFF4
:10888000E01B0020D82C0020002280F85120D7E7E0
:1088900090F85020531C0244DBB280F8503082F82C
:1088A0003C1090F851200AB1132B00D9C8E770474B
:1088B0002DE9F8434379534D002B14BF01220022C8
:1088C00085F8B02003D185F88430BDE8F88390F8AE
:1088D000018008F1FF3676B2044630460F4646F076
:1088E0006DF90223C5F8BC0085F8B8302378002B59
:1088F00064D1E478002C55D14FF48071D5F8BC00D8
:10890000C5F8C04058F068F84FF47A7041F0C6F8E6
:10891000D5F8C00044F0BCFCD5F8BC404FF00A08C4
:10892000A38942F20F764FF0FF090BE0A4F80C90F8
:1089300041F088F807462389D9072DD5B8F10108F9
:10894000A3890DD041F07EF8074623899807EDD41E
:1089500041F078F8C01BB042F7DD204645F0ECFF4F
:10896000D5F8BC10284B0A8992070BD50A8912F05A
:10897000800207D1254B85F87820D3F878346B67CF
:108980000123A0E7013BEED195F8782085F88430EB
:10899000531C85F8783098E741F054F8C01BB0427A
:1089A000C9DDDAE7204644F07DF9044608B11E230C
:1089B000C3800921204640F023FB9DE706EB860695
:1089C0003E44414696F90320002041F0DBFB064679
:1089D00030B1406859F0A8FCB36885F8CE3018B9BA
:1089E000002385F8C43084E7094A431E02EB431391
:1089F00017210022C5F8C83059F0A8FC012385F8DA
:108A0000C43076E7E01B0020A1860100D82C0020AE
:108A1000C80100202DE9F04FCF4ED04D86468C4640
:108A200017460FCE05F27C442DED068B0FC40FCEFA
:108A30000FC496E807008BB095F8B234059784E828
:108A40000700CDE906EC042B00F24981DFE813F0C2
:108A5000A801470142010500B8019FEDC18ADFED81
:108A6000C18AC149C5F89814C049C14BC14AC5F86B
:108A700094140599002918BF134638EE887AF5EE4C
:108A8000006AC6EE879ABC4EC5F8A034A6F115035D
:108A9000039306F1C0080027DFEDBF7A9FEDB79A78
:108AA00028EE278AB0EE67AA079BBB4200F00C8134
:108AB000039B13F8014B039307F1010B5FFA8BF350
:108AC000002C00F08081002203E00132152A00F022
:108AD0007A8102EB42014FEA420918F80100A042F4
:108AE000F3D12944049391F88D15002900F0738186
:108AF000204640F06BF88246006840F00BF89AF888
:108B0000051040F083F890F800C0BCF1000F40F071
:108B10005A8105EB09014FEA141909F1FF39049B49
:108B200081F8CD350322B9F1040F81F8CC2504F08A
:108B30000F0000F2FF80924C04EB4901B1F8B0C085
:108B40004CFA00F111F0010100F02881012101FA35
:108B500000F0013800EA0C00A14404935DF03AFDF6
:108B600099F8BCC0DFF82CE2049B60440EEBC00C0B
:108B700003228CF807308CF806205EF83000C6F827
:108B800014C000F13F4303F57E0304EB932401215D
:108B900094F8C4309AF8082003F01F045B09032BF3
:108BA00001FA04F100F0D380042B00F0CB80022BFB
:108BB00000F0C380BCF804300893B3FA83F3C3F128
:108BC0001F03C3F3CC0100EB810103F007030C6A20
:108BD0009B004FF00F0C0CFA03FC24EA0C040C620F
:108BE0000C6A02FA03F323430B62022308A90993D8
:108BF0000BF01CFE059B002B76D0B5F8B034D5F8F1
:108C0000781807EE903AF8EEE77AFCEEE77A17EE7E
:108C1000900AB1FBF0F202F57F42FF32120CB1FB79
:108C2000F2F295F8B214B2FBF0F0042983B272D0DC
:108C300007EE902AF8EE676A66EE887A29EE677A80
:108C400095F8B30406990091A8EEA67A01905146D2
:108C50003046C6ED027A86ED037A37F083FA002FAC
:108C600064DD7368D5F8D024934261D0012F5DD0C4
:108C7000D5F8E82493425BD0022F57D0D5F80025D1
:108C8000934255D0032F51D0D5F8182593424FD099
:108C9000042F4BD0D5F83025934249D0052F45D02D
:108CA000D5F84825934243D0062F3FD0D5F860250C
:108CB000D31A18BF01235F460122082F3374727440
:108CC00006F118067FF4F0AE2E480BB0BDEC068B13
:108CD000BDE8F08F9FED2C8AF0EE488AC1E69FED4B
:108CE0002B8AF0EE488ABCE6B0EE690A5EF0CCFD55
:108CF000FCEEC07A4FF6FF7317EE902AD5F878187D
:108D0000B1FBF2F21A44120CB1FBF2F295F8B21474
:108D1000042918468CD107EE900A07EE102AF8EEC7
:108D2000677AF8EE476A67EE8A7A87E70123C2E737
:108D30000023C0E7C6F814C05CE7154B5C6C214308
:108D4000596437E7124B1C6B2143196332E7104B10
:108D50001C6C214319642DE704A10608D82C0020BF
:108D6000ACC5A737ACC5A73691F6030875680408EB
:108D70007DEE030869680408A431002000007A44ED
:108D800080A0060854310020282930386F1203399A
:108D900000380240D03200206F12833A716129E717
:108DA0001FED038A0D4A0E4BC5F89824C5F894347C
:108DB00000220123CDE90532F0EE488A094B5CE63A
:108DC0009FED098AEEE7094A064BC5F89824C5F8D5
:108DD000A034002079E70B68FFDE00BF91F603089E
:108DE000756804086968040800000000CDEF0308F6
:108DF000104B70B5D3F87848054600680E466408F5
:108E00000BF018FCB4FBF6F1B1F5803F03D3012C55
:108E1000FAD96408F6E72246284689B23FF074FD85
:108E20000549064B0B6028460022BDE870403FF024
:108E30008BBC00BFD82C0020B83D00206DFE01087F
:108E400010B5044C04480A4621460AF06DFA204643
:108E500010BD00BFC03D0020782F070810B5044C9E
:108E600004480A4621460AF05FFA204610BD00BFBA
:108E7000C03D0020882F070810B5044C04480A465E
:108E800021460AF051FA204610BD00BFC03D002027
:108E9000942F070810B5044C04480A4621460AF0EE
:108EA00043FA204610BD00BFC03D0020A02F070898
:108EB00010B5044C04480A4621460AF035FA20460B
:108EC00010BD00BFC03D0020AC2F070810B50D4CF1
:108ED00094F8CD200023C4F8803012B10A4AC2F8B9
:108EE000F03058F0B3FB20B10423022084F8843022
:108EF00010BD064BD3F878346367092384F88430B7
:108F000010BD00BFE01B0020D03D0020D82C002069
:108F100070B50D4D95F88430042B04460E460AD0EA
:108F2000082B06D1EB6F83420CD0FFF7CFFF02284E
:108F300001D0012070BD0823C5E91F4685F88430A3
:108F4000022070BD022070BDE01B002070B5437987
:108F5000234C002B14BF0123002384F8B03003D12D
:108F6000002384F8843070BD1E4D002195F9F72050
:108F7000032041F007F90028F2D04668304659F046
:108F8000D3F984F8CC000028EAD095F8F530003BFE
:108F900018BF0123304684F8CD3059F0A5FA0AF005
:108FA00073F938B994F8783084F88400013384F880
:108FB000783070BD58F034FC40B194F8783000221D
:108FC000013384F8783084F8842070BD064B84F82F
:108FD0007800D3F878346367012384F8843070BD57
:108FE000E01B0020D03D0020D82C002010B558F008
:108FF00017FC58B10C4C94F878300133DBB2072BD6
:1090000084F8783003D9002384F8843010BD0AF046
:109010003BF90028F7D0054A0123D2F8782462678B
:1090200084F8843010BD00BFE01B0020D82C002045
:109030002DE9F041894C94F8B050002D00F0FB80F0
:1090400094F88420864E874F531E082B42D8DFE8C1
:1090500003F0373AA1416B521541050058F0F6FA7A
:10906000002840F0EF80636FD6F87824FA339342FB
:109070002DD2FFF7BBFF94F88420E5E758F0E6FA1D
:109080000028F0D0D4F880300022012B84F878201A
:1090900040F2DC80E16F94F8CD00013B0131C4E97E
:1090A0001F1310B16F4BC3F8F020082284F88420FE
:1090B000A2F10805B5FA85F56D092846BDE8F081ED
:1090C000022384F8843058F0C1FA002843D194F880
:1090D0008420531EDBB2022B0AD8614B616FD3F898
:1090E00078345B1AC82BE3D9FFF780FF94F884200B
:1090F000042ADDD1E1E7236B002BD9D1584BE66E72
:10910000D3F878346367072284F88420002ECFD008
:10911000D4E91821236F0120B047D8E7636FD6F850
:10912000781464338B42C3D2D4F82C80B8F1000F8A
:10913000F4D158F08BFA00289DD0E66E84F8788040
:10914000042384F88430002E7AD0D4E91821236FC8
:109150004046B047BBE757F01FFF0028B7D197F84C
:10916000F930002BA3F10203B3FA83F314BF0222F8
:1091700001225B0984F8792084F87A3057F00CFFDB
:1091800000287FF476AFD7F84831C4F8883003233D
:1091900084F8843057F000FF002898D1314BC4F890
:1091A000800093F82C61B3F82E01D3F830E1D3F8A6
:1091B00030C1D3F83071D3F8302184F88E6093F841
:1091C0003411A4F88C0093F8356184F8922093F858
:1091D0003501D3F83821C4F89420B3F83E81B3F8B0
:1091E0003E2184F89310B3F83E11C2F30B1343EA07
:1091F000182303F00F0301F00F024FEA1E6E4FEA2F
:109200001C4C3F0A360900F00F0003F5FA630421F5
:1092100084F8990084F88FE084F890C084F8917005
:1092200084F89860A4F89A3084F89C2084F884101C
:109230002846BDE8F08184F884502846BDE8F081D6
:1092400005463AE7042384F8843036E7FAD1FFF77D
:109250003DFE94F88420531E3CE700BFE01B002035
:10926000D82C0020D03D00202DE9F04FC14C94F8BF
:10927000581183B00546C1F34001D4F8600144F0B1
:109280000DF894F85811D4F85C01C94301F00101BC
:109290006F1E44F003F8FBB20193002D00F0D08064
:1092A000B54EDFF8DC82B54D4FF01009D4F86001FF
:1092B00043F0D8FFD4F85C0143F0D4FFB4F8683130
:1092C000002B40F04E8194F86A11D4F86C0143F001
:1092D000E5FF4FF0FA0A4FF47A710120D8F8043014
:1092E000C3F30803002B40F00F81EFF31183002B31
:1092F00040F00A81D6F87824D5F808C0D6F878343A
:109300009A42F7D1D4F890319C45F3D8D4F88C71B7
:1093100001FB07F3A3EB0C03B3FBF7F301FB0232F2
:10932000D8F80430C3F30803002B40F0AB80EFF310
:109330001183002B40F0A680D6F87834D5F808B019
:10934000D6F87874BB42F7D1D4F89071BB45F3D806
:10935000D4F88C7101FB07FCACEB0B0CBCFBF7FCED
:1093600001FB03C39B1AB3F57A7FD9D3BAF1010A83
:10937000B4D1D4F8600143F075FFD4F85C0143F038
:1093800071FFB4F86831002B40F0DF8094F86A1167
:10939000D4F86C0181F0010143F080FFFA204FF412
:1093A0007A714FF0010CD8F80430C3F30803002B96
:1093B00040F08980EFF31183002B40F08480D6F8D1
:1093C0007824D5F808E0D6F878349A42F7D1D4F862
:1093D00090319E45F3D8D4F88CA101FB0AF3A3EB9E
:1093E0000E03B3FBFAF301FB0232D8F80430C3F3E7
:1093F000080343BBEFF311832BBBD6F87834D5F8C1
:1094000008B0D6F87874BB42F7D1D4F89071BB4558
:10941000F3D8D4F88CA101FB0AFEAEEB0B0EBEFB19
:10942000FAFE01FB03E39B1AB3F57A7FDDD3013823
:10943000B9D1019B5F1EFBB2FF2B01937FF436AFC6
:1094400003B0BDE8F08FEFF3118A89F31288AF689B
:109450002B68DB0344BFC4F888C1AF68D6F8783402
:10946000D4F888E15FFA8AFA8AF31188D4F88CA1DB
:10947000734401FB0AFEAEEB070EBEFBFAFE01FBD6
:1094800003E3D0E7EFF3118E89F31288D5F808B023
:109490002B68DF0344BFC4F88801D5F808B0D6F8BC
:1094A0007834D4F888C15FFA8EFE8EF31188D4F830
:1094B0008C71634401FB07FCACEB0B0CBCFBF7FCB1
:1094C00001FB03C34EE7EFF3118E89F31288D5F841
:1094D00008A02B68DA0344BFC4F888C1D5F808A0F7
:1094E000D6F87834D4F888215FFA8EFE8EF311888E
:1094F000D4F88CE11A4401FB0EF3A3EB0A03B3FB8F
:10950000FEF301FB023270E7EFF3118C89F312884E
:10951000D5F808E02B68DB0344BFC4F88801D5F810
:1095200008E0D6F87834D4F888215FFA8CFC8CF304
:109530001188D4F88C711A4401FB07F3A3EB0E03D6
:10954000B3FBF7F301FB0232EAE6D4F88431002BD7
:109550003FF424AFD4F87031C3F800A084F881A19F
:109560001CE7D4F88431002B3FF4B3AE40F056FB37
:10957000AFE600BFD03D0020D82C002010E000E076
:1095800000ED00E02DE9F04FBD4CBE4E94F85811AF
:10959000D4F86001DFF8F482BB4D83B0C1F3400121
:1095A00043F07CFE94F85811D4F85C01C94301F0F3
:1095B000010143F073FE052301934FF01009D4F825
:1095C000600143F04FFED4F85C0143F04BFEB4F869
:1095D0006831002B40F04C8194F86A11D4F86C018A
:1095E00043F05CFE32274FF47A710120D8F8043042
:1095F000C3F30803002B40F00F81EFF31183002B1E
:1096000040F00A81D6F87824D5F808C0D6F8783426
:109610009A42F7D1D4F890319C45F3D8D4F88CE134
:1096200001FB0EF3A3EB0C03B3FBFEF301FB0232D1
:10963000D8F80430C3F30803002B40F0AB80EFF3FD
:109640001183002B40F0A680D6F87834D5F808B006
:10965000D6F878C46345F7D1D4F890C1E345F3D880
:10966000D4F88CE101FB0EFCACEB0B0CBCFBFEFC5C
:1096700001FB03C39B1AB3F57A7FD9D3013FB5D160
:10968000D4F8600143F0EEFDD4F85C0143F0EAFD4C
:10969000B4F86831002B40F0E08094F86A11D4F8F7
:1096A0006C0181F0010143F0F9FD32204FF47A7131
:1096B0000127D8F80430C3F30803002B40F08B8057
:1096C000EFF31183002B40F08680D6F87824D5F88C
:1096D00008E0D6F878349A42F7D1D4F890319E4514
:1096E000F3D8D4F88CA101FB0AF3A3EB0E03B3FB70
:1096F000FAF301FB0232D8F80430C3F3080343BB8A
:10970000EFF311832BBBD6F87834D5F808B0D6F830
:1097100078E47345F7D1D4F890E1F345F3D8D4F861
:109720008CA101FB0AFEAEEB0B0EBEFBFAFE01FBA9
:1097300003E39B1AB3F57A7FDDD30138B9D1019BDE
:109740005F1E17F0FF0301937FF439AF03B0BDE84C
:10975000F08FEFF3118A89F31288D5F808B02B68DF
:10976000DB0344BFC4F88871D5F808B0D6F8783464
:10977000D4F888E15FFA8AFA8AF31188D4F88CA1C8
:10978000734401FB0AFEAEEB0B0EBEFBFAFE01FBBF
:1097900003E3CEE7EFF3118E89F31288D5F808B012
:1097A0002B68DB0344BFC4F88801D5F808B0D6F8AD
:1097B0007834D4F888C15FFA8EFE8EF31188D4F81D
:1097C0008CE1634401FB0EFCACEB0B0CBCFBFEFC20
:1097D00001FB03C34EE7EFF3118E89F31288D5F82E
:1097E00008A02B68DA0344BFC4F88871D5F808A034
:1097F000D6F87834D4F888215FFA8EFE8EF311887B
:10980000D4F88CE11A4401FB0EF3A3EB0A03B3FB7B
:10981000FEF301FB02326EE7EFF3118C89F312883D
:10982000D5F808E02B68DA0344BFC4F88801D5F8FE
:1098300008E0D6F87834D4F888215FFA8CFC8CF3F1
:109840001188D4F88CC11A4401FB0CF3A3EB0E036E
:10985000B3FBFCF301FB0232EAE6D4F88431002BBF
:109860003FF423AFD4F870311F6084F881711CE796
:10987000D4F88431002B3FF4B5AE40F0CFF9B1E617
:10988000D03D0020D82C002010E000E000ED00E0EA
:109890000E4B30B4DB68427801780D4CDB43C3F3E8
:1098A0000223C3F10403DBB202FA03F360181B01C5
:1098B00001F01F050122490903F0F003AA4080F8D6
:1098C000003344F8212030BC704700BF00ED00E0B9
:1098D00000E100E000F01F0240090123032803FA21
:1098E00002F304D004280CD0022805D07047074AA0
:1098F000116C0B4313647047044A516C0B4353645F
:109900007047024A116B0B431363704700380240E3
:1099100000285FD00368374A2DE9F04103F13F4446
:1099200004F57E0402EB9422012492F8C42002F094
:109930001F055209032A04FA05F456D0042A4FD011
:10994000022A48D08588B5FA85F0C0F11F00C0F31F
:10995000CC0603EB860600F0070082000F24306A75
:10996000944020EA04003062306A01FA02F20243B5
:10997000002132624FF0010E0A464FF0030C02271D
:109980000EFA02F838EA050002F101021CD118684B
:109990000CFA01F420EA04001860186807FA01F6CE
:1099A00006431E609E6826EA04069E6098689860DA
:1099B000586820EA0800586058685860D86820EA5B
:1099C0000400D860D868D860102A01F10201D7D10C
:1099D000BDE8F0817047084A556C2C435464B1E7E8
:1099E000054A156B2C431463ACE7034A156C2C43F2
:1099F0001464A7E780A0060800380240002861D060
:109A00000368384A03F13F4101F57E0102EB9122E0
:109A10002DE9F04192F8C42002F01F0452090121FF
:109A2000032A01FA04F158D0042A51D0022A4AD05C
:109A30008588B5FA85F2C2F11F02C2F3CC0403EBAC
:109A4000840402F00702216A92000F20904021EA6C
:109A500000012162206A0C2101FA02F20243002176
:109A6000226208464FF0010E4FF0030C02270EFA57
:109A700000F838EA050200F101001DD11C680CFA5B
:109A800001F224EA02041C601E6807FA01F4344360
:109A90001C609E6826EA02069E609E6816439E60D1
:109AA0005C6824EA08045C605C685C60DC6824EA4A
:109AB0000202DA60DA68DA60102801F10201D6D118
:109AC000BDE8F0817047084A546C21435164AFE708
:109AD000054A146B21431163AAE7034A146C21431E
:109AE0001164A5E780A00608003802402DE9F04186
:109AF0000378012B84B00446164635D0022B24D1BE
:109B0000836841F0800113B11A689B8853836568AC
:109B100003913FF097FFAB890399074642F20F7814
:109B20002B899B0715D5284659F0DEFF0123606875
:109B3000324600215BF0D4F8A368FBB11A689B8819
:109B40001383012004B0BDE8F081002004B0BDE81B
:109B5000F08103913FF076FFC31B43450399DFDD9E
:109B6000284644F0E9FEE1E700920A46417990F97F
:109B700004005BF083FC04B0BDE8F0810120E5E760
:109B800058B183884FF00042B3FA83F332FA03F3FB
:109B900003D002490A6813430B607047003C014040
:109BA000134B0268196821EA02011960596821EA19
:109BB0000201596019680A431A609968026821EA2B
:109BC00002019960D96821EA0201D960417910291E
:109BD00007D001F1804303F59E3319680A431A60E8
:109BE0007047996811439960D9680A43DA607047F1
:109BF000003C0140002864D0F0B58388B3FA83F3B9
:109C0000202B0A4685B00446C3F11F0143D02D4DD9
:109C10002D4E05EB81037718C3F89421002197F8A6
:109C2000CC703FF0EDF9B4F804C02268274CBCFAC0
:109C30008CFCCCF11F0303F0FC0101F1804101F524
:109C40009C3103F0030398004FF00F0E02F13F43E5
:109C50008A680EFA00FE22EA0E0203F57E038A608D
:109C6000C3F38723834088684FF0004222FA0CF246
:109C700003433D448B6002A8626101234FF40061FD
:109C80008DF80E300292ADF80C10FFF789FF95F8B1
:109C9000D431F02B01D805B0F0BD3E44F02196F848
:109CA000DC308DF8043003224FF4807301A885F86E
:109CB000D4118DF80520ADF80630FFF7E9FD05B0A9
:109CC000F0BD7047D03D002080A00608003C014058
:109CD00010B4B8B10D4CD4F8DC31102B05D15DF8BF
:109CE000044B052100203FF073BC03EB43022244E8
:109CF00082F8E11101210B4482F8E00182F8E211BF
:109D0000C4F8DC315DF8044B704700BFD03D002043
:109D1000C0782021DCE700BF2DE9F04FDFF87CA3FD
:109D20002DED028B9AF824120022CAE98522CAE995
:109D3000872297B0CAF8102219B19AF825228AF81A
:109D400010229AF826221AB19AF827228AF81F229E
:109D50009AF82A221AB19AF82B228AF81A229AF82B
:109D600028221AB19AF829228AF815229AF82C3258
:109D700005935A1ED3B257B204937B1C00F0AA80FD
:109D8000BC4ABD4E52F83780029602EBC702002350
:109D90001279019308EE102A1D463446994626781A
:109DA0003946304645F0B0F983463046BBF1000FE6
:109DB0001ED042F077FFEA1D1321D2B220B14FF03E
:109DC000000E827180F807E03FF01AF9207845F024
:109DD000C5F94FF0070309F1010223714FF00103A8
:109DE00084F802906070CDF804B05FFA82F9E370F5
:109DF0000135042D04F10504D1D118EE100A029E9C
:109E0000CDF80C90FFF766FD9C499D4A48680240DA
:109E100042F440324A600FB9019B5BB9994C48202B
:109E2000FFF758FD204602215BF0E8FCA26842F0F3
:109E30000102A2609148934A4168BAF82E4241F467
:109E400000014160516821F480515160916B21F40F
:109E5000401141F480119163D16841F46001D160F7
:109E6000956B85F44011C1F3015101EB81011F2075
:109E700000FA01FC25EA0C0C112505FA01F141EA72
:109E80000C019163D16841F0E061D160956BC5F33D
:109E90000151C1F10401C9B201EB810188404FF0C9
:109EA000120C25EA00000CFA01F108439063E4B1BA
:109EB000BAF83012CAF83842A1B1BAF83222CAF858
:109EC0003C1262B1019B7048521A90FBF2F2CAF840
:109ED00040226BB917B0BDEC028BBDE8F08F6B4A26
:109EE0001288EFE76A4A1188E7E76A4A1488DFE7D1
:109EF000404603995BF082FC5F4B012003F114099B
:109F00000723F278441CE4B252B375783279A5F194
:109F10000A0101EB410105EB450C092D03FA01FE95
:109F200003FA0CFB02FA01F140F28E80D8F80C2003
:109F300022EA0E0E41EA0E01C8F80C10421E02EB96
:109F400082021F21062801FA02FC05FA02F261D8FA
:109F5000D8F8341021EA0C010A432046C8F834200E
:109F60000536B145CDD1D8F80820049942F40072E5
:109F7000C8F80820D8F8082042F48072C8F80820F1
:109F8000D8F80820574442F00102C8F8082097F991
:109F90003422022040F0F6F8044600289AD04068A7
:109FA00058F0C2F9059A062158F0D0F960680AF015
:109FB000A7F907A80AF066F9039EA368364A079333
:109FC000012E8CBF4FF48060002000230D9008F11B
:109FD0004C054FF40060089509920A934FF4807283
:109FE0000C930E904FF4003360680B9607A94FF462
:109FF0000055CDE90F5211930AF056F962681368C3
:10A0000043F001031360D8F8083043F08043C8F8E8
:10A0100008305FE7C11FA0F10D0201EB81014FF095
:10A020001F0E02EB82020C280EFA01FC0EFA02F05F
:10A0300005FA01F113D8D8F8302022EA0C021143B6
:10A040002046C8F830108BE7D8F8101002FA0CF24E
:10A0500021EA0B0B42EA0B02C8F810206EE7D8F891
:10A060002C1005FA02F221EA00010A432046C8F842
:10A070002C2075E764A10608E03F00200023014082
:10A08000E030FCFF00200140803801002E7AFF1FE5
:10A090002C7AFF1F2A7AFF1F14400020D03D002099
:10A0A0002DE9F84F2E4F00EBC00407EB8404D4F8E1
:10A0B00050622EB1054694F8610200F0FF0820B10D
:10A0C0004FF000084046BDE8F88F89469A4693460F
:10A0D0003FF0B8FC4FEA49010123C9B284F862128B
:10A0E00084F863B284F8653284F8668284F8643256
:10A0F00084F8613284F86082B288C4F868A291055D
:10A100008146C4F86CA21DD43388DA0510D442F21B
:10A110000F7405E03FF096FCA0EB0903A34215DCA9
:10A1200033889B05F6D433889BB243F48073338025
:10A13000B3889BB243F440734FF00108B3804046AC
:10A14000BDE8F88F98464046BDE8F88FB7F8B832BA
:10A1500001339BB22846A7F8B8325AF0EDFEB1E7BA
:10A16000D03D002070B5464E96F8BA4204EB440349
:10A1700006EBC303650093F8BC32032B6ED8DFE80F
:10A1800003F059291E02254406EBC505D5F8C00287
:10A19000002870D196F81C339C425FD0013404F043
:10A1A0000302934286F8BA2258D002EB420406EB2F
:10A1B000C4040223C4F8C00284F8BC3270BD2B1959
:10A1C00006EBC303D3F8C02272B1013AC3F8C02230
:10A1D000002070BD2B1906EBC303D3F8C022002A60
:10A1E000F3D1022283F8BC22254406EBC50595F87D
:10A1F000C832013BDBB285F8C8328BBB214B96F8E5
:10A200001C63D3F83012D5F8C402621C02F00302BA
:10A210004B1E0324B242034485F8BC42B3FBF1F069
:10A22000C5F8C0021AD0994218D80138C5F8C00242
:10A23000012070BD44F072FE80B1124B2C44D3F863
:10A24000302206EBC404012102F51C5384F8BC1231
:10A250000F33B3FBF2F3C4F8C03270BD012070BD00
:10A26000084BD3F83022012002F2E733B3FBF2F3BC
:10A27000C5F8C03270BD0138C5F8C002002070BDFD
:10A28000D03D002098010020054B93F81D23002AA3
:10A29000FBD1D3F8803E03491B6801F10C0018473D
:10A2A000D03D0020F04000202DE9F84F3249DFF882
:10A2B000D4B091F8F9100124022907461946104636
:10A2C000CBF82C404FF000022C4C1D4618BF7F02EB
:10A2D000FDF796FE2A4B63626B02A362E36A40F2CB
:10A2E000FF5943F093034FF400704FF48A62E36226
:10A2F0000121C4F83890A0601020E26056F098FF69
:10A30000012D40F251434E46C4F83890CA4640F2FF
:10A3100052488EBF4FF0120998464FF011090A2596
:10A32000C4F838A00121A7604846C4F80C8056F054
:10A330007FFF03464FF0000C40F2774201213720A7
:10A34000A6632BB900231846CBF82830BDE8F88F58
:10A35000A663C4F808C0E26056F06AFF013DA66338
:10A360000028EFD015F0FF05DAD10346CBF82C50CA
:10A37000CBF82830BDE8F88FD03D0020002C0140FC
:10A3800000E1F505E01B00202DE9F843DFF87480BB
:10A3900098F88450042D0446894617461E4608D076
:10A3A000082D02D00020BDE8F883FEF78FFD0228BB
:10A3B000F8D101234A4620460021FFF775FF68B116
:10A3C000FEF714FED8F86C40002CEBD00022D8F831
:10A3D0007030D8F864101046A047E3E7084BC8F87F
:10A3E0006090D3F87824C8F864400523C8E91B7648
:10A3F000C8F8742088F884300120BDE8F88300BFD5
:10A40000D82C0020E01B00202DE9F84F2F49DFF861
:10A41000C49091F8F9101E4602292D4B07464FF0C3
:10A42000010418BF4702012E40F259481C6398BF2F
:10A430004FF48B683B469346474640F2FF55B04683
:10A440008CBF4FF0190A4FF0180A0A241E4640F23A
:10A45000FF53C9F838300121C9F808605046C9F8DF
:10A460000C7056F0E5FE03464FF0000C40F27742C8
:10A4700001213720C9F83850A3B958464146012276
:10A48000FDF7BEFD4646134A134B536276029662B1
:10A49000D36A43F09103D3620D4B002108469962C1
:10A4A000BDE8F88FC9F83850C9F808C0C9F80C20C1
:10A4B00056F0BEFE013CC9F838500028DDD014F03B
:10A4C000FF04C4D1024B1C63BDE8F88FD03D0020CF
:10A4D000E01B0020002C014000E1F5052DE9F047CC
:10A4E000374C82B005460E461746984694F88400CD
:10A4F00004280CD0082806D1E36FAB4207D0FEF742
:10A50000E5FC0228F2D0012002B0BDE8F087DFF8B8
:10A51000B8A02666DAF8F0906566C9F34F210F29D6
:10A520004FEA592223D8D4F880300193FBB194F834
:10A53000CD00E0B1B9F5005F13D0224831464FF4A9
:10A54000007248445FF0EAFC09F50072C2F34F2143
:10A550001029CAF8F0204FEA522202D0019B012BA9
:10A5600021D192B2013A174EAD1A0B4600E00123F9
:10A5700032462846062601250021E766C4F8708089
:10A5800084F8685084F88460FFF73EFF0028BBD051
:10A59000FEF72CFDE66E86B12846236F616E002221
:10A5A000B0470320B0E7E26F013B01320421C4E968
:10A5B0001F2384F884100220A6E70320A4E700BF2D
:10A5C000E01B0020DC690020D03D00202DE9F04791
:10A5D000274D95F8843E022B82B004460F4616465E
:10A5E00011D0012B0BD10091134695F8891E02461C
:10A5F00095F9880E5AF042FF02B0BDE8F0870020BE
:10A6000002B0BDE8F087D5F88C3E13B11A689B887C
:10A610005383D5F888AE3FF015FABAF80C3080466F
:10A6200042F20F79BAF808309B0714D521465046FC
:10A6300059F05AFA3346D5F8880E3A4600215AF0B6
:10A640004FFBD5F88C3E83B11A689B881383012099
:10A6500002B0BDE8F0873FF0F5F9A0EB08034B45E9
:10A66000E0DD504644F068F9E4E70120C4E700BFAC
:10A67000D03D0020F0B50578022D83B0044615D0FA
:10A68000012D02D0002003B0F0BD90F90400274B4B
:10A69000421C83F8C45EF5D00328F3DC0A466179D6
:10A6A00003F6C46303B0BDE8F040F9E4836813B176
:10A6B0001A689B885383656801913FF0C3F9AB89A1
:10A6C0000199064642F20F772B89980718D528463C
:10A6D00059F00AFA65683FF0B5F9AB89064642F2CF
:10A6E0000F772B89990716D52846012159F0FCF9D7
:10A6F000A368CBB11A689B881383012003B0F0BD17
:10A7000001913FF09FF9831BBB420199DCDD284694
:10A7100044F012F9DEE73FF095F9831BBB42E0DD20
:10A72000284644F009F9E3E70120ACE7D03D0020DA
:10A7300010B50C4C94F8843E022B11D1D4F88C0E39
:10A7400042F0A6FDD4F88C0E08B12123C38001216C
:10A750003EF056FCBDE810400348082144F0A2B882
:10A7600010BD00BFD03D0020544C002073B50D4EED
:10A7700005460C46FF230A46014630468DF8073051
:10A7800044F0B2F901230DF1070245F08001304693
:10A7900044F078F99DF80700031B5842584102B075
:10A7A00070BD00BF544C0020094B93F8B234042B09
:10A7B00008D9053B032B08D801231A4600B10370C2
:10A7C0001046704700230122F8E700231A46F5E7F8
:10A7D000D82C0020F0B40D6800240CE0BCF1050F6B
:10A7E00018D8A0F137030A2B14D104EB840415F810
:10A7F000010B03EB4404A0F13003DEB2092EA0F1FB
:10A800006107A0F1410CF0D9052FE7D8A0F157035B
:10A810000A2BEAD00D601460F0BC70479FED737A8C
:10A8200007EE901A20EE070AF8EE677A27EE800A04
:10A83000FDEEC07A17EE903A2033402B00F2C7802D
:10A84000DFED6B7AB4EEE70AF1EE10FAF0EE407A43
:10A850000CDD9FED686ADFED686AB0EE677AB4EEF2
:10A86000E67AF1EE10FA77EEC67AF6DC9FED637ABF
:10A87000F4EEC77AF1EE10FA0CD59FED5E6ADFEDCB
:10A88000606AB0EE677AB4EEE67AF1EE10FA77EE2F
:10A89000867AF6D49FED5B7AF4EEC77AF1EE10FA81
:10A8A00000F38D809FED587AF4EEC77AF1EE10FA3E
:10A8B00044BF9FED527A77EE677A27EEA76ADFED05
:10A8C000535A9FED537ADFED536AA6EE257A67EE71
:10A8D000865AE6EE076AB6EE007AE5EEA67A27EE2D
:10A8E000877ADFED486A70EE267ABDEEE76A16EEEB
:10A8F000103A2033402B67D8B4EEE60AF1EE10FA96
:10A900000CDDDFED3C5A9FED3C6AF0EE676AF4EE39
:10A91000C66AF1EE10FA77EEE57AF6DCDFED376A1B
:10A92000F4EEE67AF1EE10FA0CD5DFED325A9FED37
:10A93000346AF0EE676AF4EEC66AF1EE10FA77EE6A
:10A94000A57AF6D4DFED2F6AF4EEE67AF1EE10FA8E
:10A9500040DDDFED276A76EEE77A67EEA75A9FEDD6
:10A960002B5A9FED2B6ADFED2B6AA5EE856A27EE49
:10A97000A55AE5EE866AB8EE006AE5EE267A67EE3D
:10A98000867AC7EE206A0023836143610362C36154
:10A99000B7EE006A76EE865A76EE666A86EE257A1D
:10A9A00067EE277A66EE876AC0ED017AC0ED037A1A
:10A9B00080ED007A80ED027AC0ED046A70479FED69
:10A9C0000C7A77EE677A78E7DFED137AD9E79FEDB7
:10A9D000127A86E7DFED0C6AF4EEE67AF1EE10FA11
:10A9E00044BFDFED066A76EEE77AB6E727D4D236C3
:10A9F000DB0F4940DB0FC940E4CB1641DB0F49C0F8
:10AA0000E4CB16C1DB0FC93FDB0FC9BF92E741B9E9
:10AA10009730083C15A82ABE000000002DE9F04739
:10AA2000944C82B094F8C53E0190002B40F01D81FB
:10AA300094F8E83EB4F8EA2EDFED8F6AB4F8EC9EA5
:10AA4000A4F8FC9E07EE103AB8EEC76AB7EE007A9B
:10AA500007EE902AF0EE475AB4F8E62EE6EE665A74
:10AA60004FEA49059542A6EE267AB8BF154604F589
:10AA70006F61F8EEE77A04F6F46267EEA67AC1ED4C
:10AA8000005AAEB204F6F86182ED007A0122A4F811
:10AA9000FE6EC1ED007A84F8C52E002B00F0E18037
:10AAA000DDED017A9FED750A754FF8EE677AADB26C
:10AAB00080EE270A5CF02EFF6D00B0FBF5F5012D4E
:10AAC000B8BF0125EDB2B0FBF5F39BB2804684F828
:10AAD000005F00EE103ABBEEED0A87ED000A5CF075
:10AAE00019FF684BDFED686AB9FBF0F0A3FB08388B
:10AAF0004FEAD80807EE908AF8EEE77A022886EE49
:10AB0000A77AB8BF022084F8080F07F10C010023D0
:10AB10009FED5E1A9FED5E6ADFED5E1ADFED5E5A15
:10AB20009FED5E2ADFED5E2A9FED5E3ADFED5E3A35
:10AB30009FED5E4A87ED027A07EE903AB8EEE77A2B
:10AB4000F0EE467AE7EE017AFDEEE76A16EE902A1D
:10AB50002032402A00F28280B4EEE17AF1EE10FA5F
:10AB60000CDDDFED536A9FED537AB0EE675AB4EE19
:10AB7000C75AF1EE10FA77EEE67AF6DCF4EEE57AF3
:10AB8000F1EE10FA0CD5DFED4A6A9FED4B7AB0EE8C
:10AB9000675AB4EEC75AF1EE10FA77EEA67AF6D4F9
:10ABA000F4EEC67AF1EE10FA50DD74EE677A67EED5
:10ABB000A76AF0EE624AE6EE824AF0EE430AE6EE5B
:10ABC000A40AB7EE007A27EEE65A77EE677AB6EE79
:10ABD000007AE5EE207A67EE877A0133202BE1ECEC
:10ABE000017AA9D107EE905AF8EEE77AF7EE006AFB
:10ABF00086EEA77A314B324A41F2AC5741F2A85166
:10AC0000E35141F2B85003F128076750A83341F2ED
:10AC1000094107EE906A2350F8EE677A41F2A45793
:10AC200041F2B45041F2B05365541026202514214E
:10AC3000E6532552E15282ED007AC2EDAC7AC2EDC4
:10AC4000AD7AC2EDAE7A02B0BDE8F087F4EEE37AF9
:10AC5000F1EE10FA48BF75EEE77AA8E7F6EE007A53
:10AC6000BBE7184A82F834321AE794F8005FB4F868
:10AC7000FE6EB7E7D03D00200AD7233C002474497C
:10AC8000D44C0020ABAAAAAADB0FC9413C8C4F3E92
:10AC9000DB0FC93F0100F840DB0F49C092E741B923
:10ACA0009730083C15A82ABEDB0FC9BFDB0F49400F
:10ACB000DB0FC940E4CB1641E4CB16C16CA10608FA
:10ACC000DC5100209801002008480023024611783A
:10ACD000022902F1060204D00133062BF7D100202D
:10ACE000704703EB430300EB43007047181C002040
:10ACF00010B50021094C82B00846C4F8E01535F0C3
:10AD000013FA074B0193042304F2E4500DEB030202
:10AD1000062143F087FE02B010BD00BFC84E0020E0
:10AD20005475C52A70B5461E00F13105344614F835
:10AD3000011F601E801BFF29C0B201D035F0F4F95D
:10AD4000AC42F4D1A02052F029FA0121022035F0C2
:10AD5000EBF90E4D40F2E93401E0013C05D042210F
:10AD6000284643F00DFE0028F7D16221074843F042
:10AD700007FE1321242035F0D7F92520092135F0CD
:10AD8000D3F9BDE87040A02052F008BAAC540020BE
:10AD90002DE9F04F2DED108B034697B0043315933A
:10ADA000DFEDCACA149002238A4613928B4612938F
:10ADB000149C4FEADB0604EB461202EB061031014D
:10ADC000A6EB86034FEAC60806EB4605CDE900016F
:10ADD00000EBC303043108F1040011962044214420
:10ADE0002C01C6EBC60C0394EC00119D04944FEAB1
:10ADF000CC0405946C0106EB860E0294159D009C14
:10AE000003EB46174FEACE0E02EBC6064FEACB091C
:10AE10004FF0000C51ED01AAD3ED001A92ED007A2B
:10AE200094ED005A96ED004AD7ED007A15ED012A0F
:10AE300050ED016A32EE07BA76EE840A7AEE855A50
:10AE400031EEA70A3BEE256A70EE804A76EEC46AC0
:10AE500036EE244A36EE646A05ED014A82ED006A58
:10AE6000D0ED00BAD6ED012AD3ED019A95ED00AAF6
:10AE700092ED016A97ED013A91ED00CAD4ED014AD5
:10AE80007BEEE23A36EEE19A32EE472A73EEE98A39
:10AE90003AEE464A39EE279A78EE838AB0EE428A35
:10AEA000A9EE6C8ADC44E24573EEC33AB0EE441A74
:10AEB000A8EEEC1A76EEE77A33EEA97A7CEE643AE5
:10AEC00077EEA17A3AEE066A7AEEC51A3CEE24AA2B
:10AED00074EECC4A39EE833A35EE6A5AF0EE639A54
:10AEE000F0EE48AAE7EE2C9AA8EEAC4AE7EE2C4A20
:10AEF000E7EE6CAAF0EE418AB0EE427AB0EE612A3B
:10AF00007BEE656A7BEEA22A76EE4A5AA9EE2C7A8F
:10AF1000A7EEAC2AA7EEAC5AE7EEEC8A32EE83BA83
:10AF200076EEC3BA35EEE09A75EEC07A36EE0A6A6E
:10AF300076EEE26A36EE0BAA76EE836A77EEA07AB8
:10AF400034EE423A77EE290A36EE4B6A7BEEA22ABD
:10AF500039EE000A73EEAA3A78EE244A37EE697A9F
:10AF600031EE055A71EEA85A32EE044A85ED00AA78
:10AF700082ED016A4D4441ED012A4A44C4ED006A64
:10AF800081ED000AC4ED017A494440ED010A4C44C8
:10AF900087ED007AC6ED003AC3ED004A80ED003A35
:10AFA00087ED014A484486ED015A4F44C3ED015AEA
:10AFB0004E444B443FF62EAF119B072B40F2C78106
:10AFC000029D149E019B03980499059A08357519F2
:10AFD0000C330E95354608F108080EF10804EB18FD
:10AFE00008300831083246442C1928186918AA1864
:10AFF000079305F10C030D960C940B900A9109929E
:10B0000008934FF001084FF0000E129B9E44139BD3
:10B0100003EBCE0303EBCE02109302EBCE0303EB64
:10B02000CE01029101EBCE0101EBCE0505EBCE0680
:10B03000D6ED007A0F93AEEB8E03019106EB03136E
:10B0400003EBCE07D3ED01AACDED067A019BD5ED3A
:10B05000007A97ED01BACDED057AD3ED007A029B27
:10B06000CDED047AD3ED007A0F9BCDED037A07EB9B
:10B07000CE0CD3ED007ADCED01BACDED027A0CEB0B
:10B08000CE01D2ED007A109A009101EBCE0001467C
:10B0900091ED01DACDED017A0099D2ED007A91EDD2
:10B0A00001CA00EBCE0000EBCE0494ED01EAD0ED36
:10B0B00001DACDED007ADDE90776DDE90954DDE955
:10B0C0000B01DDE90D23C44602E000BFF304353F68
:10B0D00094ED009A90ED00FA91ED006AD5ED007ABA
:10B0E000D3ED006A57ED014A92ED005A56ED013A50
:10B0F00096ED00AA35EE060A73EEA65A39EE278AB7
:10B1000034EE8F7A70EE082A75EE87EA35EE465AED
:10B110003EEEA26A73EEE63A06ED016AD1ED019ABF
:10B12000D2ED01FAD4ED016AD3ED011A95ED013AA1
:10B13000D0ED018A97ED004A3FEEE96A35EE491AF3
:10B1400076EE660A31EE271A3AEE612A75EE677AD4
:10B1500070EE830A3FEEA95A74EECF9A77EE897AA1
:10B160007AEE211AB0EE42AA74EE68FAA0EEECAACA
:10B17000DC44E24535EEC77AB0EE639A74EE285AA5
:10B1800038EEC44AF0EE698AA1EE6C9AE7EEAC8A1A
:10B1900036EE436A7FEE644A36EE266AA0EEAC2AAB
:10B1A000F0EE4A0AE7EEEC0AE7EEAC4AF0EE687A17
:10B1B000F0EE498A36EE833AE6EE6C8AE1EE2C3AFE
:10B1C000B0EE6F1AA6EE2C1A71EEE56AA6EE2C4AC6
:10B1D00071EEA55A75EE031A7EEEE22A37EE43FAB7
:10B1E00075EEE1EAB0EE686A76EEC08A39EE044A9E
:10B1F0007FEE86FA76EEC86A33EE816A38EE888A88
:10B2000073EEC13A37EE457A2CEE2E1A3FEE055A10
:10B2100022EECC9A9DED03FA70EE266A33EE077AA1
:10B22000AFEE221AAFEE2E9A7AEE244A9DED01FA85
:10B2300079EEA09A25EE4BAA72EE670A37EE822AC3
:10B240006BEE087AAFEE08AAEFEE057A2DEEA63A7D
:10B250009DED05FA67EE6D8AAFEE073AEFEE268AAE
:10B2600066EE6A2A9DED00FA2AEEA00AEFEE202A89
:10B270006EEE02EADDED060A23EECE5AE0EEA3EA18
:10B280002BEEA98ADDED023AAFEE060AA3EE848A20
:10B2900024EE6B7A6DEE246A9DED044A2FEECD6AA2
:10B2A000A0EE825AA3EEA97AE4EE2F6AA4EE246AF5
:10B2B00075EEA15AC6ED005A83ED001A83ED019A8E
:10B2C0004E4447ED017A87ED00AA4B4480ED003AE9
:10B2D000C0ED018A4F4482ED000A4844C2ED012AC4
:10B2E000C5ED00EA85ED015A4A44C1ED006A81EDE1
:10B2F000016A4D4484ED008A84ED017A49444C444E
:10B300003FF6E6AE0E9B08330E930D9B08330D936C
:10B310000C9B08330C930B9B08330B930A9B08334D
:10B320000A93099B08330993089B08330893079BEA
:10B3300008330793119B08F1010843457FF465AE7C
:10B34000129BDDF844B0DB009BB2129330E517B0DE
:10B35000BDEC108BBDE8F08F30B5044683B000BF64
:10B36000806841F08FFF4CF2050301AA6946ADF8F1
:10B3700000306068032300258DF8025059F0B0FCBE
:10B38000A06841F085FF00BF9DF8060003B030BD06
:10B39000F0B5C04FC04885B0242200215EF01FFEEA
:10B3A00097F8F165002E3AD1BC4C3546D4F8403DB3
:10B3B0005BB39B6A4BB3BA48984783682BB3038847
:10B3C000DFF8D4C2013B9BB2604666460021377865
:10B3D000032F06F106061BD001310629F7D1002202
:10B3E0000178022900F1060000F0A9800132062A46
:10B3F000F6D1E16D052908D0481C02FB01C2E065C9
:10B4000002200021938010705180284605B0F0BDC5
:10B41000062303FB01414B8F013B9BB2DFE797F80B
:10B42000F00507F5BF63C7F8F43510B99B4C00254C
:10B43000BCE741F037FC0446C7F8000641F006FFC0
:10B4400005460028F2D0013E022370B287F8F83595
:10B4500043F0B4FB0028E9D0C7F8FC050CB1202369
:10B46000E380204609213DF0CBFDD7F8F4358B4C25
:10B47000986841F00DFFD7F8F4351021586855F061
